{
  "_format": "hh-sol-artifact-1",
  "contractName": "BuildingPermitContract",
  "sourceName": "contracts/BuildingPermitContract.sol",
  "abi": [
    {
      "inputs": [
        {
          "internalType": "address",
          "name": "_project",
          "type": "address"
        }
      ],
      "stateMutability": "nonpayable",
      "type": "constructor"
    },
    {
      "inputs": [],
      "name": "project",
      "outputs": [
        {
          "internalType": "address",
          "name": "",
          "type": "address"
        }
      ],
      "stateMutability": "view",
      "type": "function"
    }
  ],
  "bytecode": "0x608060405234801561001057600080fd5b5060405161017538038061017583398101604081905261002f91610089565b600080546001600160a01b0319166001600160a01b03929092169190911790556100b2565b60006001600160a01b0382165b92915050565b61007081610054565b811461007b57600080fd5b50565b805161006181610067565b60006020828403121561009e5761009e600080fd5b60006100aa848461007e565b949350505050565b60b5806100c06000396000f3fe6080604052348015600f57600080fd5b506004361060285760003560e01c8063f60ca60d14602d575b600080fd5b600054603f906001600160a01b031681565b604051604a91906073565b60405180910390f35b60006001600160a01b0382165b92915050565b606d816053565b82525050565b6020810160608284606656fea2646970667358221220266b91761067b801f25b810c6770d6ab465f88b87b64404368825ad0d08a579864736f6c63430008090033",
  "linkReferences": {},
  "deployedLinkReferences": {}
}