{
  "_format": "hh-sol-artifact-1",
  "contractName": "DocumentContract",
  "sourceName": "contracts/DocumentContract.sol",
  "abi": [
    {
      "inputs": [
        {
          "internalType": "address",
          "name": "_project",
          "type": "address"
        },
        {
          "internalType": "address",
          "name": "_projectManager",
          "type": "address"
        },
        {
          "internalType": "address",
          "name": "_assessmentProvider",
          "type": "address"
        },
        {
          "components": [
            {
              "internalType": "string",
              "name": "id",
              "type": "string"
            },
            {
              "internalType": "address",
              "name": "owner",
              "type": "address"
            },
            {
              "internalType": "bytes32",
              "name": "documentHash",
              "type": "bytes32"
            }
          ],
          "internalType": "struct Document[]",
          "name": "_attachments",
          "type": "tuple[]"
        },
        {
          "internalType": "enum DocumentContract.MainDocumentType",
          "name": "_mainDocumentType",
          "type": "uint8"
        }
      ],
      "stateMutability": "nonpayable",
      "type": "constructor"
    },
    {
      "anonymous": false,
      "inputs": [
        {
          "indexed": true,
          "internalType": "string",
          "name": "id",
          "type": "string"
        },
        {
          "indexed": false,
          "internalType": "bytes32",
          "name": "documentHash",
          "type": "bytes32"
        }
      ],
      "name": "AssessmentAttachmentAdded",
      "type": "event"
    },
    {
      "anonymous": false,
      "inputs": [
        {
          "indexed": true,
          "internalType": "string",
          "name": "id",
          "type": "string"
        },
        {
          "indexed": false,
          "internalType": "bytes32",
          "name": "documentHash",
          "type": "bytes32"
        }
      ],
      "name": "AssessmentAttachmentRemoved",
      "type": "event"
    },
    {
      "anonymous": false,
      "inputs": [
        {
          "indexed": false,
          "internalType": "bool",
          "name": "requestConfirmed",
          "type": "bool"
        }
      ],
      "name": "AssessmentDueDateExtensionEvaluated",
      "type": "event"
    },
    {
      "anonymous": false,
      "inputs": [
        {
          "indexed": false,
          "internalType": "uint256",
          "name": "requestedDueDate",
          "type": "uint256"
        }
      ],
      "name": "AssessmentDueDateExtensionRequested",
      "type": "event"
    },
    {
      "anonymous": false,
      "inputs": [
        {
          "indexed": true,
          "internalType": "string",
          "name": "id",
          "type": "string"
        },
        {
          "indexed": false,
          "internalType": "bytes32",
          "name": "documentHash",
          "type": "bytes32"
        },
        {
          "indexed": false,
          "internalType": "uint256",
          "name": "timestamp",
          "type": "uint256"
        }
      ],
      "name": "AssessmentMainDocumentUpdated",
      "type": "event"
    },
    {
      "anonymous": false,
      "inputs": [
        {
          "indexed": true,
          "internalType": "uint256",
          "name": "_dateProvided",
          "type": "uint256"
        }
      ],
      "name": "AssessmentProvided",
      "type": "event"
    },
    {
      "anonymous": false,
      "inputs": [
        {
          "indexed": true,
          "internalType": "string",
          "name": "id",
          "type": "string"
        },
        {
          "indexed": false,
          "internalType": "bytes32",
          "name": "documentHash",
          "type": "bytes32"
        }
      ],
      "name": "AttachmentAdded",
      "type": "event"
    },
    {
      "anonymous": false,
      "inputs": [
        {
          "indexed": true,
          "internalType": "string",
          "name": "id",
          "type": "string"
        },
        {
          "indexed": false,
          "internalType": "bytes32",
          "name": "documentHash",
          "type": "bytes32"
        }
      ],
      "name": "AttachmentRemoved",
      "type": "event"
    },
    {
      "anonymous": false,
      "inputs": [
        {
          "indexed": false,
          "internalType": "uint256",
          "name": "timestamp",
          "type": "uint256"
        }
      ],
      "name": "DeadlineExceeded",
      "type": "event"
    },
    {
      "anonymous": false,
      "inputs": [
        {
          "indexed": false,
          "internalType": "uint256",
          "name": "timestamp",
          "type": "uint256"
        },
        {
          "indexed": false,
          "internalType": "address",
          "name": "project",
          "type": "address"
        },
        {
          "indexed": false,
          "internalType": "address",
          "name": "assessmentProvider",
          "type": "address"
        }
      ],
      "name": "MainDocumentUpdateRequested",
      "type": "event"
    },
    {
      "inputs": [
        {
          "components": [
            {
              "internalType": "string",
              "name": "id",
              "type": "string"
            },
            {
              "internalType": "address",
              "name": "owner",
              "type": "address"
            },
            {
              "internalType": "bytes32",
              "name": "documentHash",
              "type": "bytes32"
            }
          ],
          "internalType": "struct Document[]",
          "name": "_assessmentAttachments",
          "type": "tuple[]"
        }
      ],
      "name": "addAssessmentAttachments",
      "outputs": [],
      "stateMutability": "nonpayable",
      "type": "function"
    },
    {
      "inputs": [
        {
          "components": [
            {
              "internalType": "string",
              "name": "id",
              "type": "string"
            },
            {
              "internalType": "address",
              "name": "owner",
              "type": "address"
            },
            {
              "internalType": "bytes32",
              "name": "documentHash",
              "type": "bytes32"
            }
          ],
          "internalType": "struct Document[]",
          "name": "_attachments",
          "type": "tuple[]"
        }
      ],
      "name": "addAttachments",
      "outputs": [],
      "stateMutability": "nonpayable",
      "type": "function"
    },
    {
      "inputs": [],
      "name": "assessment",
      "outputs": [
        {
          "internalType": "uint256",
          "name": "dateProvided",
          "type": "uint256"
        },
        {
          "components": [
            {
              "internalType": "string",
              "name": "id",
              "type": "string"
            },
            {
              "internalType": "address",
              "name": "owner",
              "type": "address"
            },
            {
              "internalType": "bytes32",
              "name": "documentHash",
              "type": "bytes32"
            }
          ],
          "internalType": "struct Document",
          "name": "assessmentMainDocument",
          "type": "tuple"
        }
      ],
      "stateMutability": "view",
      "type": "function"
    },
    {
      "inputs": [],
      "name": "assessmentDueDate",
      "outputs": [
        {
          "internalType": "uint256",
          "name": "",
          "type": "uint256"
        }
      ],
      "stateMutability": "view",
      "type": "function"
    },
    {
      "inputs": [],
      "name": "assessmentProvider",
      "outputs": [
        {
          "internalType": "address",
          "name": "",
          "type": "address"
        }
      ],
      "stateMutability": "view",
      "type": "function"
    },
    {
      "inputs": [
        {
          "internalType": "uint256",
          "name": "",
          "type": "uint256"
        }
      ],
      "name": "attachments",
      "outputs": [
        {
          "internalType": "string",
          "name": "id",
          "type": "string"
        },
        {
          "internalType": "address",
          "name": "owner",
          "type": "address"
        },
        {
          "internalType": "bytes32",
          "name": "documentHash",
          "type": "bytes32"
        }
      ],
      "stateMutability": "view",
      "type": "function"
    },
    {
      "inputs": [],
      "name": "dateCreated",
      "outputs": [
        {
          "internalType": "uint256",
          "name": "",
          "type": "uint256"
        }
      ],
      "stateMutability": "view",
      "type": "function"
    },
    {
      "inputs": [
        {
          "internalType": "bool",
          "name": "confirm",
          "type": "bool"
        }
      ],
      "name": "evaluateAssessmentDueDateExtension",
      "outputs": [],
      "stateMutability": "nonpayable",
      "type": "function"
    },
    {
      "inputs": [
        {
          "internalType": "string",
          "name": "id",
          "type": "string"
        }
      ],
      "name": "getAssessmentAttachmentById",
      "outputs": [
        {
          "components": [
            {
              "internalType": "string",
              "name": "id",
              "type": "string"
            },
            {
              "internalType": "address",
              "name": "owner",
              "type": "address"
            },
            {
              "internalType": "bytes32",
              "name": "documentHash",
              "type": "bytes32"
            }
          ],
          "internalType": "struct Document",
          "name": "",
          "type": "tuple"
        }
      ],
      "stateMutability": "view",
      "type": "function"
    },
    {
      "inputs": [],
      "name": "getAssessmentAttachments",
      "outputs": [
        {
          "components": [
            {
              "internalType": "string",
              "name": "id",
              "type": "string"
            },
            {
              "internalType": "address",
              "name": "owner",
              "type": "address"
            },
            {
              "internalType": "bytes32",
              "name": "documentHash",
              "type": "bytes32"
            }
          ],
          "internalType": "struct Document[]",
          "name": "",
          "type": "tuple[]"
        }
      ],
      "stateMutability": "view",
      "type": "function"
    },
    {
      "inputs": [],
      "name": "getAssessmentAttachmentsLength",
      "outputs": [
        {
          "internalType": "uint256",
          "name": "",
          "type": "uint256"
        }
      ],
      "stateMutability": "view",
      "type": "function"
    },
    {
      "inputs": [
        {
          "internalType": "string",
          "name": "id",
          "type": "string"
        }
      ],
      "name": "getAttachmentById",
      "outputs": [
        {
          "components": [
            {
              "internalType": "string",
              "name": "id",
              "type": "string"
            },
            {
              "internalType": "address",
              "name": "owner",
              "type": "address"
            },
            {
              "internalType": "bytes32",
              "name": "documentHash",
              "type": "bytes32"
            }
          ],
          "internalType": "struct Document",
          "name": "",
          "type": "tuple"
        }
      ],
      "stateMutability": "view",
      "type": "function"
    },
    {
      "inputs": [],
      "name": "getAttachments",
      "outputs": [
        {
          "components": [
            {
              "internalType": "string",
              "name": "id",
              "type": "string"
            },
            {
              "internalType": "address",
              "name": "owner",
              "type": "address"
            },
            {
              "internalType": "bytes32",
              "name": "documentHash",
              "type": "bytes32"
            }
          ],
          "internalType": "struct Document[]",
          "name": "",
          "type": "tuple[]"
        }
      ],
      "stateMutability": "view",
      "type": "function"
    },
    {
      "inputs": [],
      "name": "getAttachmentsLength",
      "outputs": [
        {
          "internalType": "uint256",
          "name": "",
          "type": "uint256"
        }
      ],
      "stateMutability": "view",
      "type": "function"
    },
    {
      "inputs": [],
      "name": "isClosed",
      "outputs": [
        {
          "internalType": "bool",
          "name": "",
          "type": "bool"
        }
      ],
      "stateMutability": "view",
      "type": "function"
    },
    {
      "inputs": [],
      "name": "isDeadlineExceeded",
      "outputs": [
        {
          "internalType": "bool",
          "name": "",
          "type": "bool"
        }
      ],
      "stateMutability": "nonpayable",
      "type": "function"
    },
    {
      "inputs": [],
      "name": "mainDocumentType",
      "outputs": [
        {
          "internalType": "enum DocumentContract.MainDocumentType",
          "name": "",
          "type": "uint8"
        }
      ],
      "stateMutability": "view",
      "type": "function"
    },
    {
      "inputs": [],
      "name": "mainDocumentUpdateRequested",
      "outputs": [
        {
          "internalType": "bool",
          "name": "",
          "type": "bool"
        }
      ],
      "stateMutability": "view",
      "type": "function"
    },
    {
      "inputs": [],
      "name": "project",
      "outputs": [
        {
          "internalType": "address",
          "name": "",
          "type": "address"
        }
      ],
      "stateMutability": "view",
      "type": "function"
    },
    {
      "inputs": [],
      "name": "projectManager",
      "outputs": [
        {
          "internalType": "address",
          "name": "",
          "type": "address"
        }
      ],
      "stateMutability": "view",
      "type": "function"
    },
    {
      "inputs": [
        {
          "components": [
            {
              "internalType": "uint256",
              "name": "dateProvided",
              "type": "uint256"
            },
            {
              "components": [
                {
                  "internalType": "string",
                  "name": "id",
                  "type": "string"
                },
                {
                  "internalType": "address",
                  "name": "owner",
                  "type": "address"
                },
                {
                  "internalType": "bytes32",
                  "name": "documentHash",
                  "type": "bytes32"
                }
              ],
              "internalType": "struct Document",
              "name": "assessmentMainDocument",
              "type": "tuple"
            },
            {
              "components": [
                {
                  "internalType": "string",
                  "name": "id",
                  "type": "string"
                },
                {
                  "internalType": "address",
                  "name": "owner",
                  "type": "address"
                },
                {
                  "internalType": "bytes32",
                  "name": "documentHash",
                  "type": "bytes32"
                }
              ],
              "internalType": "struct Document[]",
              "name": "assessmentAttachments",
              "type": "tuple[]"
            }
          ],
          "internalType": "struct DocumentContract.Assessment",
          "name": "_assessment",
          "type": "tuple"
        },
        {
          "internalType": "bool",
          "name": "requiresAssessment",
          "type": "bool"
        }
      ],
      "name": "provideAssessment",
      "outputs": [],
      "stateMutability": "nonpayable",
      "type": "function"
    },
    {
      "inputs": [
        {
          "internalType": "string[]",
          "name": "_assessmentAttachmentIds",
          "type": "string[]"
        }
      ],
      "name": "removeAssessmentAttachments",
      "outputs": [],
      "stateMutability": "nonpayable",
      "type": "function"
    },
    {
      "inputs": [
        {
          "internalType": "string[]",
          "name": "_attachmentIds",
          "type": "string[]"
        }
      ],
      "name": "removeAttachments",
      "outputs": [],
      "stateMutability": "nonpayable",
      "type": "function"
    },
    {
      "inputs": [
        {
          "internalType": "uint256",
          "name": "_requestedAssessmentDueDate",
          "type": "uint256"
        }
      ],
      "name": "requestAssessmentDueDateExtension",
      "outputs": [],
      "stateMutability": "nonpayable",
      "type": "function"
    },
    {
      "inputs": [],
      "name": "requestMainDocumentUpdate",
      "outputs": [],
      "stateMutability": "nonpayable",
      "type": "function"
    },
    {
      "inputs": [],
      "name": "requestedAssessmentDueDate",
      "outputs": [
        {
          "internalType": "uint256",
          "name": "",
          "type": "uint256"
        }
      ],
      "stateMutability": "view",
      "type": "function"
    },
    {
      "inputs": [
        {
          "components": [
            {
              "internalType": "string",
              "name": "id",
              "type": "string"
            },
            {
              "internalType": "address",
              "name": "owner",
              "type": "address"
            },
            {
              "internalType": "bytes32",
              "name": "documentHash",
              "type": "bytes32"
            }
          ],
          "internalType": "struct Document",
          "name": "updatedAssessmentMainDocument",
          "type": "tuple"
        }
      ],
      "name": "updateAssessmentMainDocument",
      "outputs": [],
      "stateMutability": "nonpayable",
      "type": "function"
    },
    {
      "inputs": [],
      "name": "updateMainDocument",
      "outputs": [],
      "stateMutability": "nonpayable",
      "type": "function"
    }
  ],
  "bytecode": "0x60c06040523480156200001157600080fd5b506040516200381838038062003818833981016040819052620000349162000500565b600080546001600160a01b0319166001600160a01b0387811691909117909155848116608052831660a0526002805482919060ff191660018381811115620000805762000080620005a0565b02179055504260038190556200009a906213c680620005cc565b60045560005b825181101562000144576001838281518110620000c157620000c1620005e7565b602090810291909101810151825460018101845560009384529282902081518051929460030290910192620000fc9284929091019062000150565b5060208201516001820180546001600160a01b0319166001600160a01b03909216919091179055604090910151600290910155806200013b81620005fd565b915050620000a0565b50505050505062000662565b8280546200015e9062000631565b90600052602060002090601f016020900481019282620001825760008555620001cd565b82601f106200019d57805160ff1916838001178555620001cd565b82800160010185558215620001cd579182015b82811115620001cd578251825591602001919060010190620001b0565b50620001db929150620001df565b5090565b5b80821115620001db5760008155600101620001e0565b60006001600160a01b0382165b92915050565b6200021481620001f6565b81146200022057600080fd5b50565b8051620002038162000209565b601f01601f191690565b634e487b7160e01b600052604160045260246000fd5b6200025b8262000230565b81018181106001600160401b03821117156200027b576200027b6200023a565b6040525050565b60006200028e60405190565b90506200029c828262000250565b919050565b60006001600160401b03821115620002bd57620002bd6200023a565b5060209081020190565b60006001600160401b03821115620002e357620002e36200023a565b620002ee8262000230565b60200192915050565b60005b8381101562000314578181015183820152602001620002fa565b8381111562000324576000848401525b50505050565b6000620003416200033b84620002c7565b62000282565b9050828152602081018484840111156200035e576200035e600080fd5b6200036b848285620002f7565b509392505050565b600082601f830112620003895762000389600080fd5b81516200039b8482602086016200032a565b949350505050565b8062000214565b80516200020381620003a3565b600060608284031215620003ce57620003ce600080fd5b620003da606062000282565b82519091506001600160401b03811115620003f857620003f8600080fd5b620004068482850162000373565b8252506020620004198484830162000223565b60208301525060406200042f84828501620003aa565b60408301525092915050565b60006200044c6200033b84620002a1565b838152905060208082019084028301858111156200046d576200046d600080fd5b835b81811015620004b35780516001600160401b03811115620004935762000493600080fd5b808601620004a28982620003b7565b85525050602092830192016200046f565b5050509392505050565b600082601f830112620004d357620004d3600080fd5b81516200039b8482602086016200043b565b600281106200022057600080fd5b80516200020381620004e5565b600080600080600060a086880312156200051d576200051d600080fd5b60006200052b888862000223565b95505060206200053e8882890162000223565b9450506040620005518882890162000223565b93505060608601516001600160401b03811115620005725762000572600080fd5b6200058088828901620004bd565b92505060806200059388828901620004f3565b9150509295509295909350565b634e487b7160e01b600052602160045260246000fd5b634e487b7160e01b600052601160045260246000fd5b60008219821115620005e257620005e2620005b6565b500190565b634e487b7160e01b600052603260045260246000fd5b6000600019821415620006145762000614620005b6565b5060010190565b634e487b7160e01b600052602260045260246000fd5b6002810460018216806200064657607f821691505b602082108114156200065c576200065c6200061b565b50919050565b60805160a051613119620006ff600039600081816102bf015281816108330152818161089c0152818161096d01528181610a3e01528181610a7801528181610ae4015281816112a501528181611856015281816118c00152818161194701528181611a4601528181611acd0152611b6501526000818161015e0152818161038f01528181610d380152818161160e015261167b01526131196000f3fe608060405234801561001057600080fd5b50600436106101545760003560e01c8063029eb76e1461015957806304afdded146101965780630c2a88bb146101a75780630d6a2033146101bc5780631e138f15146101de5780631f741c7a146101e757806326bbb2d1146101f05780632d91cca214610203578063301a370d1461020b578063304e2a061461021e57806333b4f36e146102345780634c3cf1c814610247578063646d72001461025c57806375999f2d1461027c5780638c935a6714610296578063970169771461029f5780639f623cf4146102a7578063ab2aba14146102ba578063ad755dc5146102e1578063bc3d4d33146102f4578063c2b6b58c146102fc578063c682360714610316578063cf1977d01461031e578063e655805b14610331578063eaabf66c14610339578063f0ea7e941461034b578063f60ca60d1461035e578063fc07b0a614610371575b600080fd5b6101807f000000000000000000000000000000000000000000000000000000000000000081565b60405161018d9190611d84565b60405180910390f35b600a545b60405161018d9190611d98565b6101ba6101b5366004611df7565b610384565b005b6101cf6101ca366004611e56565b61075c565b60405161018d93929190611ee1565b61019a60045481565b61019a60035481565b6101ba6101fe366004611f29565b610828565b6101ba610962565b6101ba610219366004611df7565b610a6d565b610226610c65565b60405161018d929190611fab565b6101ba610242366004611fde565b610d2d565b61024f610e03565b60405161018d9190612078565b61026f61026a3660046120d3565b610f17565b60405161018d919061210e565b6002546102899060ff1681565b60405161018d9190612168565b61019a60055481565b61024f611133565b61026f6102b53660046120d3565b611241565b6101807f000000000000000000000000000000000000000000000000000000000000000081565b6101ba6102ef366004611df7565b61129a565b6101ba6115cc565b600b546103099060ff1681565b60405161018d919061217e565b60015461019a565b6101ba61032c366004611df7565b611603565b6103096117fc565b60025461030990610100900460ff1681565b6101ba61035936600461218c565b61184b565b600054610180906001600160a01b031681565b6101ba61037f366004611e56565b611b5a565b336001600160a01b037f000000000000000000000000000000000000000000000000000000000000000016146103d55760405162461bcd60e51b81526004016103cc90612231565b60405180910390fd5b600b5460ff16156103f85760405162461bcd60e51b81526004016103cc90612299565b60005b818110156107575760005b60015481101561074457610520848484818110610425576104256122a9565b905060200281019061043791906122bf565b8080601f01602080910402602001604051908101604052809392919081815260200183838082843760009201919091525050600180549092508591508110610481576104816122a9565b9060005260206000209060030201600001805461049d90612333565b80601f01602080910402602001604051908101604052809291908181526020018280546104c990612333565b80156105165780601f106104eb57610100808354040283529160200191610516565b820191906000526020600020905b8154815290600101906020018083116104f957829003601f168201915b5050505050611c4b565b156107325760006001828154811061053a5761053a6122a9565b9060005260206000209060030201600001805461055690612333565b80601f016020809104026020016040519081016040528092919081815260200182805461058290612333565b80156105cf5780601f106105a4576101008083540402835291602001916105cf565b820191906000526020600020905b8154815290600101906020018083116105b257829003601f168201915b505050505090506000600183815481106105eb576105eb6122a9565b906000526020600020906003020160020154905060018080805490506106119190612370565b81548110610621576106216122a9565b906000526020600020906003020160018481548110610642576106426122a9565b9060005260206000209060030201600082018160000190805461066490612333565b61066f929190611c61565b5060018281015482820180546001600160a01b0319166001600160a01b0390921691909117905560029283015492909101919091558054806106b3576106b3612387565b600082815260208120600019909201916003830201906106d38282611cec565b506001810180546001600160a01b0319169055600060029091015590556040516106fe9083906123bf565b60405180910390206000805160206130c4833981519152826040516107239190611d98565b60405180910390a25050610744565b8061073c816123cb565b915050610406565b508061074f816123cb565b9150506103fb565b505050565b6001818154811061076c57600080fd5b906000526020600020906003020160009150905080600001805461078f90612333565b80601f01602080910402602001604051908101604052809291908181526020018280546107bb90612333565b80156108085780601f106107dd57610100808354040283529160200191610808565b820191906000526020600020905b8154815290600101906020018083116107eb57829003601f168201915b50505050600183015460029093015491926001600160a01b031691905083565b336001600160a01b037f000000000000000000000000000000000000000000000000000000000000000016146108705760405162461bcd60e51b81526004016103cc90612424565b600b5460ff166108925760405162461bcd60e51b81526004016103cc9061247c565b6001600160a01b037f0000000000000000000000000000000000000000000000000000000000000000166108cc60408301602084016124a0565b6001600160a01b0316146108f25760405162461bcd60e51b81526004016103cc90612513565b8060076108ff8282612803565b5061090c905081806122bf565b60405161091a92919061282c565b60405180910390207f27b9d82d922ac3b427b695f873089f631464fb8320e03e90c9d0501f2c974bf3826040013542604051610957929190612839565b60405180910390a250565b336001600160a01b037f000000000000000000000000000000000000000000000000000000000000000016146109aa5760405162461bcd60e51b81526004016103cc90612424565b600b5460ff16156109cd5760405162461bcd60e51b81526004016103cc90612299565b600254610100900460ff16156109f55760405162461bcd60e51b81526004016103cc906128a6565b6002805461ff0019166101001790556000546040517fdcd8ce5ccb691e620aa00facff8bbbe6c71a8ecdde42dfa428aee53ea2c7c13291610a639142916001600160a01b0316907f0000000000000000000000000000000000000000000000000000000000000000906128b6565b60405180910390a1565b336001600160a01b037f00000000000000000000000000000000000000000000000000000000000000001614610ab55760405162461bcd60e51b81526004016103cc90612424565b600b5460ff16610ad75760405162461bcd60e51b81526004016103cc9061247c565b60005b81811015610757577f00000000000000000000000000000000000000000000000000000000000000006001600160a01b0316838383818110610b1e57610b1e6122a9565b9050602002810190610b3091906128de565b610b419060408101906020016124a0565b6001600160a01b031614610b675760405162461bcd60e51b81526004016103cc90612948565b600a838383818110610b7b57610b7b6122a9565b9050602002810190610b8d91906128de565b815460018101835560009283526020909220909160030201610baf8282612803565b5050828282818110610bc357610bc36122a9565b9050602002810190610bd591906128de565b610bdf90806122bf565b604051610bed92919061282c565b60405180910390207f60ad18c818250b3d53e07a748d92927b46a7bb3370d2c6f083b26a615b93c5a0848484818110610c2857610c286122a9565b9050602002810190610c3a91906128de565b60400135604051610c4b9190611d98565b60405180910390a280610c5d816123cb565b915050610ada565b6006805460408051606081019091526007805492939282908290610c8890612333565b80601f0160208091040260200160405190810160405280929190818152602001828054610cb490612333565b8015610d015780601f10610cd657610100808354040283529160200191610d01565b820191906000526020600020905b815481529060010190602001808311610ce457829003601f168201915b505050918352505060018201546001600160a01b03166020820152600290910154604090910152905082565b336001600160a01b037f00000000000000000000000000000000000000000000000000000000000000001614610d755760405162461bcd60e51b81526004016103cc90612231565b600b5460ff1615610d985760405162461bcd60e51b81526004016103cc90612299565b600554610db75760405162461bcd60e51b81526004016103cc9061299e565b8015610dc95760058054600455600090555b7fe6c74b1d6da308711756ea9d9af654c915cbe22d349c336f106ddf68d1283e8c81604051610df8919061217e565b60405180910390a150565b60606001805480602002602001604051908101604052809291908181526020016000905b82821015610f0e5783829060005260206000209060030201604051806060016040529081600082018054610e5a90612333565b80601f0160208091040260200160405190810160405280929190818152602001828054610e8690612333565b8015610ed35780601f10610ea857610100808354040283529160200191610ed3565b820191906000526020600020905b815481529060010190602001808311610eb657829003601f168201915b50505091835250506001828101546001600160a01b031660208084019190915260029093015460409092019190915291835292019101610e27565b50505050905090565b610f1f611d29565b60005b6001548110156111145761101860018281548110610f4257610f426122a9565b90600052602060002090600302016000018054610f5e90612333565b80601f0160208091040260200160405190810160405280929190818152602001828054610f8a90612333565b8015610fd75780601f10610fac57610100808354040283529160200191610fd7565b820191906000526020600020905b815481529060010190602001808311610fba57829003601f168201915b505050505085858080601f016020809104026020016040519081016040528093929190818152602001838380828437600092019190915250611c4b92505050565b156111025760018181548110611030576110306122a9565b906000526020600020906003020160405180606001604052908160008201805461105990612333565b80601f016020809104026020016040519081016040528092919081815260200182805461108590612333565b80156110d25780601f106110a7576101008083540402835291602001916110d2565b820191906000526020600020905b8154815290600101906020018083116110b557829003601f168201915b505050918352505060018201546001600160a01b03166020820152600290910154604090910152915061112d9050565b8061110c816123cb565b915050610f22565b5060405162461bcd60e51b81526004016103cc906129f0565b92915050565b60606006600401805480602002602001604051908101604052809291908181526020016000905b82821015610f0e578382906000526020600020906003020160405180606001604052908160008201805461118d90612333565b80601f01602080910402602001604051908101604052809291908181526020018280546111b990612333565b80156112065780601f106111db57610100808354040283529160200191611206565b820191906000526020600020905b8154815290600101906020018083116111e957829003601f168201915b50505091835250506001828101546001600160a01b03166020808401919091526002909301546040909201919091529183529201910161115a565b611249611d29565b60005b600a548110156111145761126f60066004018281548110610f4257610f426122a9565b1561128857600a805482908110611030576110306122a9565b80611292816123cb565b91505061124c565b336001600160a01b037f000000000000000000000000000000000000000000000000000000000000000016146112e25760405162461bcd60e51b81526004016103cc90612424565b600b5460ff166113045760405162461bcd60e51b81526004016103cc9061247c565b60005b818110156107575760005b600a548110156115b95761138d848484818110611331576113316122a9565b905060200281019061134391906122bf565b8080601f01602080910402602001604051908101604052809392919081815260200183838082843760009201919091525050600a80549092508591508110610481576104816122a9565b156115a7576000600660040182815481106113aa576113aa6122a9565b906000526020600020906003020160000180546113c690612333565b80601f01602080910402602001604051908101604052809291908181526020018280546113f290612333565b801561143f5780601f106114145761010080835404028352916020019161143f565b820191906000526020600020905b81548152906001019060200180831161142257829003601f168201915b5050505050905060006006600401838154811061145e5761145e6122a9565b6000918252602090912060026003909202010154600a80549192509061148690600190612370565b81548110611496576114966122a9565b9060005260206000209060030201600660040184815481106114ba576114ba6122a9565b906000526020600020906003020160008201816000019080546114dc90612333565b6114e7929190611c61565b5060018281015490820180546001600160a01b0319166001600160a01b03909216919091179055600291820154910155600a80548061152857611528612387565b600082815260208120600019909201916003830201906115488282611cec565b506001810180546001600160a01b0319169055600060029091015590556040516115739083906123bf565b60405180910390206000805160206130c4833981519152826040516115989190611d98565b60405180910390a250506115b9565b806115b1816123cb565b915050611312565b50806115c4816123cb565b915050611307565b6000546001600160a01b031633146115f65760405162461bcd60e51b81526004016103cc90612a38565b6002805461ff0019169055565b336001600160a01b037f0000000000000000000000000000000000000000000000000000000000000000161461164b5760405162461bcd60e51b81526004016103cc90612231565b600b5460ff161561166e5760405162461bcd60e51b81526004016103cc90612299565b60005b81811015610757577f00000000000000000000000000000000000000000000000000000000000000006001600160a01b03168383838181106116b5576116b56122a9565b90506020028101906116c791906128de565b6116d89060408101906020016124a0565b6001600160a01b0316146116fe5760405162461bcd60e51b81526004016103cc90612a91565b6001838383818110611712576117126122a9565b905060200281019061172491906128de565b8154600181018355600092835260209092209091600302016117468282612803565b505082828281811061175a5761175a6122a9565b905060200281019061176c91906128de565b61177690806122bf565b60405161178492919061282c565b60405180910390207fbef5ffbdb27e936d418aac85e7a7dcd68153b34b631ddc76b023c8c59bf82c318484848181106117bf576117bf6122a9565b90506020028101906117d191906128de565b604001356040516117e29190611d98565b60405180910390a2806117f4816123cb565b915050611671565b6000600454421115611845577f149f4e6f33dd9d8e01e7de869eb261f2e7aa57033be8e900565d2a76df6ab8b2426040516118379190611d98565b60405180910390a150600190565b50600090565b336001600160a01b037f000000000000000000000000000000000000000000000000000000000000000016146118935760405162461bcd60e51b81526004016103cc90612424565b600b5460ff16156118b65760405162461bcd60e51b81526004016103cc90612299565b6001600160a01b037f0000000000000000000000000000000000000000000000000000000000000000166118ed60208401846128de565b6118fe9060408101906020016124a0565b6001600160a01b0316146119245760405162461bcd60e51b81526004016103cc90612afd565b60005b6119346040840184612b0d565b90508110156119df576001600160a01b037f0000000000000000000000000000000000000000000000000000000000000000166119746040850185612b0d565b83818110611984576119846122a9565b905060200281019061199691906128de565b6119a79060408101906020016124a0565b6001600160a01b0316146119cd5760405162461bcd60e51b81526004016103cc90612bb7565b806119d7816123cb565b915050611927565b508160066119ed8282612f57565b505042600655600b805460ff19166001179055600060025460ff166001811115611a1957611a1961211f565b14611aa55760005460405163cc5b255b60e01b81526001600160a01b039091169063cc5b255b90611a6e907f000000000000000000000000000000000000000000000000000000000000000090600401611d84565b600060405180830381600087803b158015611a8857600080fd5b505af1158015611a9c573d6000803e3d6000fd5b50505050611b2a565b600054604051630436e27b60e21b81526001600160a01b03909116906310db89ec90611af7907f0000000000000000000000000000000000000000000000000000000000000000908590600401612f61565b600060405180830381600087803b158015611b1157600080fd5b505af1158015611b25573d6000803e3d6000fd5b505050505b6006546040517f76abe57b1ebd79aa1de96eb8a9fbc4bc33228bfabc1d04cf9bc344bcd17eb34c90600090a25050565b336001600160a01b037f00000000000000000000000000000000000000000000000000000000000000001614611ba25760405162461bcd60e51b81526004016103cc90612424565b600b5460ff1615611bc55760405162461bcd60e51b81526004016103cc90612299565b600454811015611be75760405162461bcd60e51b81526004016103cc90612fe5565b600354611bf790624f1a00612ff5565b811115611c165760405162461bcd60e51b81526004016103cc90613073565b60058190556040517f35db10d8f770515efa5c41d75e9308cb342170b6151f4eb1b6e813fca7ea620790610df8908390611d98565b8051602091820120825192909101919091201490565b828054611c6d90612333565b90600052602060002090601f016020900481019282611c8f5760008555611cdc565b82601f10611ca05780548555611cdc565b82800160010185558215611cdc57600052602060002091601f016020900482015b82811115611cdc578254825591600101919060010190611cc1565b50611ce8929150611d49565b5090565b508054611cf890612333565b6000825580601f10611d08575050565b601f016020900490600052602060002090810190611d269190611d49565b50565b604080516060808201835281526000602082018190529181019190915290565b5b80821115611ce85760008155600101611d4a565b6001600160a01b031690565b600061112d82611d5e565b611d7e81611d6a565b82525050565b6020810161112d8284611d75565b80611d7e565b6020810161112d8284611d92565b60008083601f840112611dbb57611dbb600080fd5b5081356001600160401b03811115611dd557611dd5600080fd5b602083019150836020820283011115611df057611df0600080fd5b9250929050565b60008060208385031215611e0d57611e0d600080fd5b82356001600160401b03811115611e2657611e26600080fd5b611e3285828601611da6565b92509250509250929050565b805b8114611d2657600080fd5b803561112d81611e3e565b600060208284031215611e6b57611e6b600080fd5b6000611e778484611e4b565b949350505050565b60005b83811015611e9a578181015183820152602001611e82565b83811115611ea9576000848401525b50505050565b6000611eb9825190565b808452602084019350611ed0818560208601611e7f565b601f01601f19169290920192915050565b60608082528101611ef28186611eaf565b9050611f016020830185611d75565b611e776040830184611d92565b600060608284031215611f2357611f23600080fd5b50919050565b600060208284031215611f3e57611f3e600080fd5b81356001600160401b03811115611f5757611f57600080fd5b611e7784828501611f0e565b8051606080845260009190840190611f7b8282611eaf565b9150506020830151611f906020860182611d75565b506040830151611fa36040860182611d92565b509392505050565b60408101611fb98285611d92565b8181036020830152611e778184611f63565b801515611e40565b803561112d81611fcb565b600060208284031215611ff357611ff3600080fd5b6000611e778484611fd3565b600061200b8383611f63565b9392505050565b600061201c825190565b808452602084019350836020820285016120368560200190565b8060005b8581101561206b57848403895281516120538582611fff565b94506020830160209a909a019992505060010161203a565b5091979650505050505050565b6020808252810161200b8184612012565b60008083601f84011261209e5761209e600080fd5b5081356001600160401b038111156120b8576120b8600080fd5b602083019150836001820283011115611df057611df0600080fd5b600080602083850312156120e9576120e9600080fd5b82356001600160401b0381111561210257612102600080fd5b611e3285828601612089565b6020808252810161200b8184611f63565b634e487b7160e01b600052602160045260246000fd5b60028110611d2657611d2661211f565b8061214f81612135565b919050565b600061112d82612145565b611d7e81612154565b6020810161112d828461215f565b801515611d7e565b6020810161112d8284612176565b600080604083850312156121a2576121a2600080fd5b82356001600160401b038111156121bb576121bb600080fd5b6121c785828601611f0e565b92505060206121d885828601611fd3565b9150509250929050565b602f81526000602082017f4f6e6c79207468652070726f6a656374206d616e616765722063616e2063616c81526e36103a3434b990333ab731ba34b7b760891b602082015291505b5060400190565b6020808252810161112d816121e2565b604481526000602082016000805160206130a483398151915281527f207768656e206173736573736d656e74206861736e27742066696e7369686564602082015263081e595d60e21b604082015291505b5060600190565b6020808252810161112d81612241565b634e487b7160e01b600052603260045260246000fd5b6000808335601e19368590030181126122da576122da600080fd5b8084019250823591506001600160401b038211156122fa576122fa600080fd5b60208301925060018202360383131561231557612315600080fd5b509250929050565b634e487b7160e01b600052602260045260246000fd5b60028104600182168061234757607f821691505b60208210811415611f2357611f2361231d565b634e487b7160e01b600052601160045260246000fd5b6000828210156123825761238261235a565b500390565b634e487b7160e01b600052603160045260246000fd5b60006123a7825190565b6123b5818560208601611e7f565b9290920192915050565b600061200b828461239d565b60006000198214156123df576123df61235a565b5060010190565b603381526000602082016000805160206130848339815191528152721031b0b636103a3434b990333ab731ba34b7b760691b6020820152915061222a565b6020808252810161112d816123e6565b603d81526000602082016000805160206130a483398151915281527f207768656e206173736573736d656e74206861732066696e73696865640000006020820152915061222a565b6020808252810161112d81612434565b611e4081611d6a565b803561112d8161248c565b6000602082840312156124b5576124b5600080fd5b6000611e778484612495565b603581526000602082017f4f6e6c79207468652070726f6a656374206d616e616765722063616e20757064815274185d19481d1a19481b585a5b88191bd8dd5b595b9d605a1b6020820152915061222a565b6020808252810161112d816124c1565b634e487b7160e01b600052600060045260246000fd5b634e487b7160e01b600052604160045260246000fd5b60009081526020902090565b600061112d6125678381565b90565b6125738361255b565b612591815b83546008860291821b60001990921b9182169119161790565b825550505050565b600061075781848461256a565b818110156125c1576125b9600082612599565b6001016125a6565b5050565b601f821115610757576125d78161254f565b6020601f850104810160208510156125ec5750805b6125fe6020601f8601048301826125a6565b5050505050565b6000196008929092029190911c191690565b60006126238383612605565b600290930290921792915050565b826001600160401b0381111561264957612649612539565b6126538254612333565b61265e8282856125c5565b6000601f83116001811461268c576000841561267a5750858201355b6126848582612617565b8655506126e7565b601f19841661269a8661254f565b60005b828110156126bd578885013582556020948501946001909201910161269d565b868310156126da57848901356126d6601f891682612605565b8355505b6001600288020188555050505b50505050505050565b610757838383612631565b6000813561112d8161248c565b60006001600160a01b03835b81169019929092169190911792915050565b600061112d61273761256784611d5e565b611d5e565b600061112d82612726565b600061112d8261273c565b61275b82612747565b612766818354612708565b8255505050565b6000813561112d81611e3e565b600060001983612714565b60008161112d565b61279682612785565b6127666127a282612785565b835461277a565b80826127b581806122bf565b6127c08183866126f0565b505050506001810160208301806127d6816126fb565b90506127e28184612752565b5050506002810160408301806127f78161276d565b90506125fe818461278d565b6125c182826127a9565b82818337506000910152565b600061282683858461280d565b50500190565b6000611e77828486612819565b604081016128478285611d92565b61200b6020830184611d92565b603581526000602082017f4d61696e20646f63756d656e74207570646174652064656d616e642068617320815274185b1c9958591e481899595b881c9958da595d9959605a1b6020820152915061222a565b6020808252810161112d81612854565b606081016128c48286611d92565b6128d16020830185611d75565b611e776040830184611d75565b60008235605e19368490030181126128f8576128f8600080fd5b9190910192915050565b603b815260006020820160008051602061308483398151915281527a20616464206173736573736d656e74206174746163686d656e747360281b6020820152915061222a565b6020808252810161112d81612902565b602981526000602082017f447565206461746520657874656e73696f6e20686173206e6f74206265656e208152681c995c5d595cdd195960ba1b6020820152915061222a565b6020808252810161112d81612958565b602581526000602082017f4174746163686d656e7420776974682070726f7669646564204944206e6f7420815264199bdd5b9960da1b6020820152915061222a565b6020808252810161112d816129ae565b602d81526000602082016000805160206130a483398151915281526c08199c9bdb481c1c9bda9958dd609a1b6020820152915061222a565b6020808252810161112d81612a00565b602c81526000602082017f4f6e6c79207468652070726f6a656374206d616e616765722063616e2061646481526b206174746163686d656e747360a01b6020820152915061222a565b6020808252810161112d81612a48565b604b815260006020820160008051602061308483398151915281527f2070726f7669646520746865206d61696e20646f63756d656e74206f6620616e60208201526a08185cdcd95cdcdb595b9d60aa1b60408201529150612292565b6020808252810161112d81612aa1565b6000808335601e1936859003018112612b2857612b28600080fd5b8084019250823591506001600160401b03821115612b4857612b48600080fd5b6020928301928202360383131561231557612315600080fd5b6045815260006020820160008051602061308483398151915281527f2070726f76696465206174746163686d656e7473206f6620616e2061737365736020820152641cdb595b9d60da1b60408201529150612292565b6020808252810161112d81612b61565b612bd08261255b565b612766816127a2565b6000816000190483118215151615612bf357612bf361235a565b500290565b8061112d816003612bd9565b612c15600019836020036008021c90565b815416905550565b612c268161254f565b612c31838254612617565b9091556000905550565b602084108015612c9257601f841160018114612c6257612c5b8685612617565b8355612c8c565b612c6b8361254f565b612c806020601f8801048201600183016125a6565b612c8a8785612c1d565b505b506125fe565b612c9b8261254f565b6020601f8701048101601f87168015612cbb57612cbb8160018403612c04565b612ccd6020601f8901048401836125a6565b6001886002021785555050505050505050565b600160401b841115612cf457612cf4612539565b602083108015612d3357602085108015612d1257612c5b8685612617565b60ff199093169283612d238461254f565b55600186600202018355506125fe565b6001856002020182555050505050565b8054612d4e81612333565b80841115612d6257612d6284828486612ce0565b80841015611ea957611ea984828486612c3b565b818110156125c157612d89600082612599565b600101612d76565b611d26600082612d43565b8115612daa57612daa612523565b6125c181612d91565b612dbc83612785565b61259161257882612785565b6000610757818484612db3565b612de0600082612d9c565b60006001820155611d26600060028301612dc8565b8115612e0357612e03612523565b6125c181612dd5565b818110156125c157612e1f600082612df5565b600301612e0c565b8183101561075757612e3882612bf8565b612e4184612bf8565b612e4a8361254f565b818101838201612e5a8183612e0c565b5050505050505050565b600160401b821115612e7857612e78612539565b8054828255610757838284612e27565b8115612e9657612e96612523565b61075783826127a9565b82612eab8183612e64565b82612eb58361254f565b6000805b84811015612e5a57612ecb84886128de565b612ed6818486612e88565b506020939093019260039290920191600101612eb9565b610757838383612ea0565b808280612f048161276d565b9050612f108184612bc7565b5050506001810160208301612f2581856128de565b612f2f8184612803565b5050506004810160408301612f448185612b0d565b612f4f818386612eed565b505050505050565b6125c18282612ef8565b60408101612f6f8285611d75565b61200b6020830184612176565b604681526000602082017f5265717565737465642064756520646174652068617320746f206265206c617481527f657220696e2074686520667574757265207468616e2063757272656e7420647560208201526565206461746560d01b60408201529150612292565b6020808252810161112d81612f7c565b600082198211156130085761300861235a565b500190565b604381526000602082017f5265717565737465642064756520646174652068617320746f20626520736f6f81527f6e6572207468616e2064617465206f66206372656174696f6e202b203630206460208201526261797360e81b60408201529150612292565b6020808252810161112d8161300d56fe4f6e6c7920746865206173736573736d656e742070726f76696465722063616e546869732066756e6374696f6e2063616e206f6e6c792062652063616c6c656488fcaa2da0bb0be0326a7077265e7b2dd02e3df809f1a687a72e2332f60804f8a2646970667358221220f9e6e5f0e12e4eee0ecbdf076b874c547cff1bce7182ed01febffc63ddb4a22e64736f6c63430008090033",
  "linkReferences": {},
  "deployedLinkReferences": {}
}