{
  "_format": "hh-sol-artifact-1",
  "contractName": "DocumentContract",
  "sourceName": "contracts/DocumentContract.sol",
  "abi": [
    {
      "inputs": [
        {
          "internalType": "address",
          "name": "_project",
          "type": "address"
        },
        {
          "internalType": "address",
          "name": "_projectManager",
          "type": "address"
        },
        {
          "internalType": "address",
          "name": "_assessmentProvider",
          "type": "address"
        },
        {
          "components": [
            {
              "internalType": "string",
              "name": "id",
              "type": "string"
            },
            {
              "internalType": "address",
              "name": "owner",
              "type": "address"
            },
            {
              "internalType": "bytes32",
              "name": "documentHash",
              "type": "bytes32"
            }
          ],
          "internalType": "struct Document[]",
          "name": "_attachments",
          "type": "tuple[]"
        },
        {
          "internalType": "enum DocumentContract.MainDocumentType",
          "name": "_mainDocumentType",
          "type": "uint8"
        }
      ],
      "stateMutability": "nonpayable",
      "type": "constructor"
    },
    {
      "anonymous": false,
      "inputs": [
        {
          "indexed": false,
          "internalType": "string",
          "name": "id",
          "type": "string"
        },
        {
          "indexed": false,
          "internalType": "uint256",
          "name": "timestamp",
          "type": "uint256"
        }
      ],
      "name": "AssessmentAttachmentAdded",
      "type": "event"
    },
    {
      "anonymous": false,
      "inputs": [
        {
          "indexed": false,
          "internalType": "string",
          "name": "id",
          "type": "string"
        },
        {
          "indexed": false,
          "internalType": "uint256",
          "name": "timestamp",
          "type": "uint256"
        }
      ],
      "name": "AssessmentAttachmentRemoved",
      "type": "event"
    },
    {
      "anonymous": false,
      "inputs": [
        {
          "indexed": false,
          "internalType": "bool",
          "name": "requestConfirmed",
          "type": "bool"
        },
        {
          "indexed": false,
          "internalType": "uint256",
          "name": "timestamp",
          "type": "uint256"
        }
      ],
      "name": "AssessmentDueDateExtensionEvaluated",
      "type": "event"
    },
    {
      "anonymous": false,
      "inputs": [
        {
          "indexed": false,
          "internalType": "uint256",
          "name": "requestedDueDate",
          "type": "uint256"
        },
        {
          "indexed": false,
          "internalType": "uint256",
          "name": "timestamp",
          "type": "uint256"
        }
      ],
      "name": "AssessmentDueDateExtensionRequested",
      "type": "event"
    },
    {
      "anonymous": false,
      "inputs": [
        {
          "indexed": true,
          "internalType": "string",
          "name": "id",
          "type": "string"
        },
        {
          "indexed": false,
          "internalType": "uint256",
          "name": "timestamp",
          "type": "uint256"
        }
      ],
      "name": "AssessmentMainDocumentUpdated",
      "type": "event"
    },
    {
      "anonymous": false,
      "inputs": [
        {
          "indexed": false,
          "internalType": "string",
          "name": "assessmentId",
          "type": "string"
        },
        {
          "indexed": false,
          "internalType": "uint256",
          "name": "timestamp",
          "type": "uint256"
        }
      ],
      "name": "AssessmentProvided",
      "type": "event"
    },
    {
      "anonymous": false,
      "inputs": [
        {
          "indexed": false,
          "internalType": "string",
          "name": "id",
          "type": "string"
        },
        {
          "indexed": false,
          "internalType": "uint256",
          "name": "timestamp",
          "type": "uint256"
        }
      ],
      "name": "AttachmentAdded",
      "type": "event"
    },
    {
      "anonymous": false,
      "inputs": [
        {
          "indexed": false,
          "internalType": "string",
          "name": "id",
          "type": "string"
        },
        {
          "indexed": false,
          "internalType": "uint256",
          "name": "timestamp",
          "type": "uint256"
        }
      ],
      "name": "AttachmentRemoved",
      "type": "event"
    },
    {
      "anonymous": false,
      "inputs": [
        {
          "indexed": false,
          "internalType": "uint256",
          "name": "timestamp",
          "type": "uint256"
        }
      ],
      "name": "DeadlineExceeded",
      "type": "event"
    },
    {
      "anonymous": false,
      "inputs": [
        {
          "indexed": false,
          "internalType": "uint256",
          "name": "timestamp",
          "type": "uint256"
        }
      ],
      "name": "DocumentContractCreated",
      "type": "event"
    },
    {
      "anonymous": false,
      "inputs": [
        {
          "indexed": false,
          "internalType": "uint256",
          "name": "timestamp",
          "type": "uint256"
        }
      ],
      "name": "MainDocumentUpdateRequested",
      "type": "event"
    },
    {
      "inputs": [
        {
          "components": [
            {
              "internalType": "string",
              "name": "id",
              "type": "string"
            },
            {
              "internalType": "address",
              "name": "owner",
              "type": "address"
            },
            {
              "internalType": "bytes32",
              "name": "documentHash",
              "type": "bytes32"
            }
          ],
          "internalType": "struct Document[]",
          "name": "_assessmentAttachments",
          "type": "tuple[]"
        }
      ],
      "name": "addAssessmentAttachments",
      "outputs": [],
      "stateMutability": "nonpayable",
      "type": "function"
    },
    {
      "inputs": [
        {
          "components": [
            {
              "internalType": "string",
              "name": "id",
              "type": "string"
            },
            {
              "internalType": "address",
              "name": "owner",
              "type": "address"
            },
            {
              "internalType": "bytes32",
              "name": "documentHash",
              "type": "bytes32"
            }
          ],
          "internalType": "struct Document[]",
          "name": "_attachments",
          "type": "tuple[]"
        }
      ],
      "name": "addAttachments",
      "outputs": [],
      "stateMutability": "nonpayable",
      "type": "function"
    },
    {
      "inputs": [],
      "name": "assessment",
      "outputs": [
        {
          "internalType": "uint256",
          "name": "dateProvided",
          "type": "uint256"
        },
        {
          "components": [
            {
              "internalType": "string",
              "name": "id",
              "type": "string"
            },
            {
              "internalType": "address",
              "name": "owner",
              "type": "address"
            },
            {
              "internalType": "bytes32",
              "name": "documentHash",
              "type": "bytes32"
            }
          ],
          "internalType": "struct Document",
          "name": "assessmentMainDocument",
          "type": "tuple"
        }
      ],
      "stateMutability": "view",
      "type": "function"
    },
    {
      "inputs": [],
      "name": "assessmentDueDate",
      "outputs": [
        {
          "internalType": "uint256",
          "name": "",
          "type": "uint256"
        }
      ],
      "stateMutability": "view",
      "type": "function"
    },
    {
      "inputs": [],
      "name": "assessmentProvider",
      "outputs": [
        {
          "internalType": "address",
          "name": "",
          "type": "address"
        }
      ],
      "stateMutability": "view",
      "type": "function"
    },
    {
      "inputs": [
        {
          "internalType": "uint256",
          "name": "",
          "type": "uint256"
        }
      ],
      "name": "attachments",
      "outputs": [
        {
          "internalType": "string",
          "name": "id",
          "type": "string"
        },
        {
          "internalType": "address",
          "name": "owner",
          "type": "address"
        },
        {
          "internalType": "bytes32",
          "name": "documentHash",
          "type": "bytes32"
        }
      ],
      "stateMutability": "view",
      "type": "function"
    },
    {
      "inputs": [],
      "name": "dateCreated",
      "outputs": [
        {
          "internalType": "uint256",
          "name": "",
          "type": "uint256"
        }
      ],
      "stateMutability": "view",
      "type": "function"
    },
    {
      "inputs": [
        {
          "internalType": "bool",
          "name": "confirm",
          "type": "bool"
        }
      ],
      "name": "evaluateAssessmentDueDateExtension",
      "outputs": [],
      "stateMutability": "nonpayable",
      "type": "function"
    },
    {
      "inputs": [
        {
          "internalType": "string",
          "name": "id",
          "type": "string"
        }
      ],
      "name": "getAssessmentAttachmentById",
      "outputs": [
        {
          "components": [
            {
              "internalType": "string",
              "name": "id",
              "type": "string"
            },
            {
              "internalType": "address",
              "name": "owner",
              "type": "address"
            },
            {
              "internalType": "bytes32",
              "name": "documentHash",
              "type": "bytes32"
            }
          ],
          "internalType": "struct Document",
          "name": "",
          "type": "tuple"
        }
      ],
      "stateMutability": "view",
      "type": "function"
    },
    {
      "inputs": [],
      "name": "getAssessmentAttachments",
      "outputs": [
        {
          "components": [
            {
              "internalType": "string",
              "name": "id",
              "type": "string"
            },
            {
              "internalType": "address",
              "name": "owner",
              "type": "address"
            },
            {
              "internalType": "bytes32",
              "name": "documentHash",
              "type": "bytes32"
            }
          ],
          "internalType": "struct Document[]",
          "name": "",
          "type": "tuple[]"
        }
      ],
      "stateMutability": "view",
      "type": "function"
    },
    {
      "inputs": [],
      "name": "getAssessmentAttachmentsLength",
      "outputs": [
        {
          "internalType": "uint256",
          "name": "",
          "type": "uint256"
        }
      ],
      "stateMutability": "view",
      "type": "function"
    },
    {
      "inputs": [
        {
          "internalType": "string",
          "name": "id",
          "type": "string"
        }
      ],
      "name": "getAttachmentById",
      "outputs": [
        {
          "components": [
            {
              "internalType": "string",
              "name": "id",
              "type": "string"
            },
            {
              "internalType": "address",
              "name": "owner",
              "type": "address"
            },
            {
              "internalType": "bytes32",
              "name": "documentHash",
              "type": "bytes32"
            }
          ],
          "internalType": "struct Document",
          "name": "",
          "type": "tuple"
        }
      ],
      "stateMutability": "view",
      "type": "function"
    },
    {
      "inputs": [],
      "name": "getAttachments",
      "outputs": [
        {
          "components": [
            {
              "internalType": "string",
              "name": "id",
              "type": "string"
            },
            {
              "internalType": "address",
              "name": "owner",
              "type": "address"
            },
            {
              "internalType": "bytes32",
              "name": "documentHash",
              "type": "bytes32"
            }
          ],
          "internalType": "struct Document[]",
          "name": "",
          "type": "tuple[]"
        }
      ],
      "stateMutability": "view",
      "type": "function"
    },
    {
      "inputs": [],
      "name": "getAttachmentsLength",
      "outputs": [
        {
          "internalType": "uint256",
          "name": "",
          "type": "uint256"
        }
      ],
      "stateMutability": "view",
      "type": "function"
    },
    {
      "inputs": [],
      "name": "isClosed",
      "outputs": [
        {
          "internalType": "bool",
          "name": "",
          "type": "bool"
        }
      ],
      "stateMutability": "view",
      "type": "function"
    },
    {
      "inputs": [],
      "name": "isDeadlineExceeded",
      "outputs": [
        {
          "internalType": "bool",
          "name": "",
          "type": "bool"
        }
      ],
      "stateMutability": "nonpayable",
      "type": "function"
    },
    {
      "inputs": [],
      "name": "mainDocumentType",
      "outputs": [
        {
          "internalType": "enum DocumentContract.MainDocumentType",
          "name": "",
          "type": "uint8"
        }
      ],
      "stateMutability": "view",
      "type": "function"
    },
    {
      "inputs": [],
      "name": "mainDocumentUpdateRequested",
      "outputs": [
        {
          "internalType": "bool",
          "name": "",
          "type": "bool"
        }
      ],
      "stateMutability": "view",
      "type": "function"
    },
    {
      "inputs": [],
      "name": "project",
      "outputs": [
        {
          "internalType": "address",
          "name": "",
          "type": "address"
        }
      ],
      "stateMutability": "view",
      "type": "function"
    },
    {
      "inputs": [],
      "name": "projectManager",
      "outputs": [
        {
          "internalType": "address",
          "name": "",
          "type": "address"
        }
      ],
      "stateMutability": "view",
      "type": "function"
    },
    {
      "inputs": [
        {
          "components": [
            {
              "internalType": "uint256",
              "name": "dateProvided",
              "type": "uint256"
            },
            {
              "components": [
                {
                  "internalType": "string",
                  "name": "id",
                  "type": "string"
                },
                {
                  "internalType": "address",
                  "name": "owner",
                  "type": "address"
                },
                {
                  "internalType": "bytes32",
                  "name": "documentHash",
                  "type": "bytes32"
                }
              ],
              "internalType": "struct Document",
              "name": "assessmentMainDocument",
              "type": "tuple"
            },
            {
              "components": [
                {
                  "internalType": "string",
                  "name": "id",
                  "type": "string"
                },
                {
                  "internalType": "address",
                  "name": "owner",
                  "type": "address"
                },
                {
                  "internalType": "bytes32",
                  "name": "documentHash",
                  "type": "bytes32"
                }
              ],
              "internalType": "struct Document[]",
              "name": "assessmentAttachments",
              "type": "tuple[]"
            }
          ],
          "internalType": "struct DocumentContract.Assessment",
          "name": "_assessment",
          "type": "tuple"
        },
        {
          "internalType": "bool",
          "name": "requiresAssessment",
          "type": "bool"
        }
      ],
      "name": "provideAssessment",
      "outputs": [],
      "stateMutability": "nonpayable",
      "type": "function"
    },
    {
      "inputs": [
        {
          "internalType": "string[]",
          "name": "_assessmentAttachmentIds",
          "type": "string[]"
        }
      ],
      "name": "removeAssessmentAttachments",
      "outputs": [],
      "stateMutability": "nonpayable",
      "type": "function"
    },
    {
      "inputs": [
        {
          "internalType": "string[]",
          "name": "_attachmentIds",
          "type": "string[]"
        }
      ],
      "name": "removeAttachments",
      "outputs": [],
      "stateMutability": "nonpayable",
      "type": "function"
    },
    {
      "inputs": [
        {
          "internalType": "uint256",
          "name": "_requestedAssessmentDueDate",
          "type": "uint256"
        }
      ],
      "name": "requestAssessmentDueDateExtension",
      "outputs": [],
      "stateMutability": "nonpayable",
      "type": "function"
    },
    {
      "inputs": [],
      "name": "requestMainDocumentUpdate",
      "outputs": [],
      "stateMutability": "nonpayable",
      "type": "function"
    },
    {
      "inputs": [],
      "name": "requestedAssessmentDueDate",
      "outputs": [
        {
          "internalType": "uint256",
          "name": "",
          "type": "uint256"
        }
      ],
      "stateMutability": "view",
      "type": "function"
    },
    {
      "inputs": [
        {
          "components": [
            {
              "internalType": "string",
              "name": "id",
              "type": "string"
            },
            {
              "internalType": "address",
              "name": "owner",
              "type": "address"
            },
            {
              "internalType": "bytes32",
              "name": "documentHash",
              "type": "bytes32"
            }
          ],
          "internalType": "struct Document",
          "name": "updatedAssessmentMainDocument",
          "type": "tuple"
        }
      ],
      "name": "updateAssessmentMainDocument",
      "outputs": [],
      "stateMutability": "nonpayable",
      "type": "function"
    },
    {
      "inputs": [],
      "name": "updateMainDocument",
      "outputs": [],
      "stateMutability": "nonpayable",
      "type": "function"
    }
  ],
  "bytecode": "0x60c06040523480156200001157600080fd5b50604051620037d2380380620037d2833981016040819052620000349162000539565b600080546001600160a01b0319166001600160a01b0387811691909117909155848116608052831660a0526002805482919060ff191660018381811115620000805762000080620005d9565b02179055504260038190556200009a906213c68062000605565b60045560005b825181101562000144576001838281518110620000c157620000c162000620565b602090810291909101810151825460018101845560009384529282902081518051929460030290910192620000fc9284929091019062000189565b5060208201516001820180546001600160a01b0319166001600160a01b03909216919091179055604090910151600290910155806200013b8162000636565b915050620000a0565b507f0a42774af8172f1bfdb5883c1631e4f3ac73489e62bed248dc4e3b718cafe9b74260405162000176919062000654565b60405180910390a15050505050620006a8565b828054620001979062000677565b90600052602060002090601f016020900481019282620001bb576000855562000206565b82601f10620001d657805160ff191683800117855562000206565b8280016001018555821562000206579182015b8281111562000206578251825591602001919060010190620001e9565b506200021492915062000218565b5090565b5b8082111562000214576000815560010162000219565b60006001600160a01b0382165b92915050565b6200024d816200022f565b81146200025957600080fd5b50565b80516200023c8162000242565b601f01601f191690565b634e487b7160e01b600052604160045260246000fd5b620002948262000269565b81018181106001600160401b0382111715620002b457620002b462000273565b6040525050565b6000620002c760405190565b9050620002d5828262000289565b919050565b60006001600160401b03821115620002f657620002f662000273565b5060209081020190565b60006001600160401b038211156200031c576200031c62000273565b620003278262000269565b60200192915050565b60005b838110156200034d57818101518382015260200162000333565b838111156200035d576000848401525b50505050565b60006200037a620003748462000300565b620002bb565b905082815260208101848484011115620003975762000397600080fd5b620003a484828562000330565b509392505050565b600082601f830112620003c257620003c2600080fd5b8151620003d484826020860162000363565b949350505050565b806200024d565b80516200023c81620003dc565b600060608284031215620004075762000407600080fd5b620004136060620002bb565b82519091506001600160401b03811115620004315762000431600080fd5b6200043f84828501620003ac565b825250602062000452848483016200025c565b60208301525060406200046884828501620003e3565b60408301525092915050565b6000620004856200037484620002da565b83815290506020808201908402830185811115620004a657620004a6600080fd5b835b81811015620004ec5780516001600160401b03811115620004cc57620004cc600080fd5b808601620004db8982620003f0565b8552505060209283019201620004a8565b5050509392505050565b600082601f8301126200050c576200050c600080fd5b8151620003d484826020860162000474565b600281106200025957600080fd5b80516200023c816200051e565b600080600080600060a08688031215620005565762000556600080fd5b60006200056488886200025c565b955050602062000577888289016200025c565b94505060406200058a888289016200025c565b93505060608601516001600160401b03811115620005ab57620005ab600080fd5b620005b988828901620004f6565b9250506080620005cc888289016200052c565b9150509295509295909350565b634e487b7160e01b600052602160045260246000fd5b634e487b7160e01b600052601160045260246000fd5b600082198211156200061b576200061b620005ef565b500190565b634e487b7160e01b600052603260045260246000fd5b60006000198214156200064d576200064d620005ef565b5060010190565b818152602081016200023c565b634e487b7160e01b600052602260045260246000fd5b6002810460018216806200068c57607f821691505b60208210811415620006a257620006a262000661565b50919050565b60805160a0516130946200073e600039600081816102bf01528181610820015281816108890152818161095401528181610a3001528181610a9c0152818161122401528181611787015281816117f10152818161187801528181611977015281816119fe0152611aba01526000818161015e0152818161038f01528181610cb50152818161157a01526115e701526130946000f3fe608060405234801561001057600080fd5b50600436106101545760003560e01c8063029eb76e1461015957806304afdded146101965780630c2a88bb146101a75780630d6a2033146101bc5780631e138f15146101de5780631f741c7a146101e757806326bbb2d1146101f05780632d91cca214610203578063301a370d1461020b578063304e2a061461021e57806333b4f36e146102345780634c3cf1c814610247578063646d72001461025c57806375999f2d1461027c5780638c935a6714610296578063970169771461029f5780639f623cf4146102a7578063ab2aba14146102ba578063ad755dc5146102e1578063bc3d4d33146102f4578063c2b6b58c146102fc578063c682360714610316578063cf1977d01461031e578063e655805b14610331578063eaabf66c14610339578063f0ea7e941461034b578063f60ca60d1461035e578063fc07b0a614610371575b600080fd5b6101807f000000000000000000000000000000000000000000000000000000000000000081565b60405161018d9190611cdb565b60405180910390f35b600a545b60405161018d9190611cef565b6101ba6101b5366004611d4e565b610384565b005b6101cf6101ca366004611dad565b610749565b60405161018d93929190611e44565b61019a60045481565b61019a60035481565b6101ba6101fe366004611e8c565b610815565b6101ba610949565b6101ba610219366004611d4e565b610a25565b610226610be2565b60405161018d929190611f0e565b6101ba610242366004611f41565b610caa565b61024f610d82565b60405161018d9190611fdb565b61026f61026a366004612036565b610e96565b60405161018d9190612071565b6002546102899060ff1681565b60405161018d91906120cb565b61019a60055481565b61024f6110b2565b61026f6102b5366004612036565b6111c0565b6101807f000000000000000000000000000000000000000000000000000000000000000081565b6101ba6102ef366004611d4e565b611219565b6101ba611538565b600b546103099060ff1681565b60405161018d91906120e1565b60015461019a565b6101ba61032c366004611d4e565b61156f565b61030961172d565b60025461030990610100900460ff1681565b6101ba6103593660046120ef565b61177c565b600054610180906001600160a01b031681565b6101ba61037f366004611dad565b611aaf565b336001600160a01b037f000000000000000000000000000000000000000000000000000000000000000016146103d55760405162461bcd60e51b81526004016103cc90612194565b60405180910390fd5b600b5460ff16156103f85760405162461bcd60e51b81526004016103cc906121fc565b60005b818110156107445760005b600154811015610731576105208484848181106104255761042561220c565b90506020028101906104379190612222565b8080601f016020809104026020016040519081016040528093929190818152602001838380828437600092019190915250506001805490925085915081106104815761048161220c565b9060005260206000209060030201600001805461049d90612296565b80601f01602080910402602001604051908101604052809291908181526020018280546104c990612296565b80156105165780601f106104eb57610100808354040283529160200191610516565b820191906000526020600020905b8154815290600101906020018083116104f957829003601f168201915b5050505050611ba2565b1561071f5760006001828154811061053a5761053a61220c565b9060005260206000209060030201600001805461055690612296565b80601f016020809104026020016040519081016040528092919081815260200182805461058290612296565b80156105cf5780601f106105a4576101008083540402835291602001916105cf565b820191906000526020600020905b8154815290600101906020018083116105b257829003601f168201915b505050505090506000600183815481106105eb576105eb61220c565b9060005260206000209060030201600201549050600180808054905061061191906122d3565b815481106106215761062161220c565b9060005260206000209060030201600184815481106106425761064261220c565b9060005260206000209060030201600082018160000190805461066490612296565b61066f929190611bb8565b5060018281015482820180546001600160a01b0319166001600160a01b0390921691909117905560029283015492909101919091558054806106b3576106b36122ea565b600082815260208120600019909201916003830201906106d38282611c43565b506001810180546001600160a01b03191690556000600290910155905560405160008051602061303f833981519152906107109084904290612300565b60405180910390a15050610731565b8061072981612320565b915050610406565b508061073c81612320565b9150506103fb565b505050565b6001818154811061075957600080fd5b906000526020600020906003020160009150905080600001805461077c90612296565b80601f01602080910402602001604051908101604052809291908181526020018280546107a890612296565b80156107f55780601f106107ca576101008083540402835291602001916107f5565b820191906000526020600020905b8154815290600101906020018083116107d857829003601f168201915b50505050600183015460029093015491926001600160a01b031691905083565b336001600160a01b037f0000000000000000000000000000000000000000000000000000000000000000161461085d5760405162461bcd60e51b81526004016103cc90612379565b600b5460ff1661087f5760405162461bcd60e51b81526004016103cc906123d1565b6001600160a01b037f0000000000000000000000000000000000000000000000000000000000000000166108b960408301602084016123f5565b6001600160a01b0316146108df5760405162461bcd60e51b81526004016103cc90612468565b8060076108ec8282612758565b506108f990508180612222565b604051610907929190612781565b60405180910390207fbd645c38518d9dbd0ff7c276fb1980290586bfdabe71a977a378a9a38c3886354260405161093e9190611cef565b60405180910390a250565b336001600160a01b037f000000000000000000000000000000000000000000000000000000000000000016146109915760405162461bcd60e51b81526004016103cc90612379565b600b5460ff16156109b45760405162461bcd60e51b81526004016103cc906121fc565b600254610100900460ff16156109dc5760405162461bcd60e51b81526004016103cc906127e0565b6002805461ff0019166101001790556040517f30a645864802fd37e5309659c8158196beab10384e11a79759958e918f57cd0990610a1b904290611cef565b60405180910390a1565b336001600160a01b037f00000000000000000000000000000000000000000000000000000000000000001614610a6d5760405162461bcd60e51b81526004016103cc90612379565b600b5460ff16610a8f5760405162461bcd60e51b81526004016103cc906123d1565b60005b81811015610744577f00000000000000000000000000000000000000000000000000000000000000006001600160a01b0316838383818110610ad657610ad661220c565b9050602002810190610ae891906127f0565b610af99060408101906020016123f5565b6001600160a01b031614610b1f5760405162461bcd60e51b81526004016103cc9061285a565b600a838383818110610b3357610b3361220c565b9050602002810190610b4591906127f0565b815460018101835560009283526020909220909160030201610b678282612758565b50507fe647898d33c06a0cd3c952bd040a0228849eb960d381b055e7c66dd2f136f142838383818110610b9c57610b9c61220c565b9050602002810190610bae91906127f0565b610bb89080612222565b42604051610bc893929190612889565b60405180910390a180610bda81612320565b915050610a92565b6006805460408051606081019091526007805492939282908290610c0590612296565b80601f0160208091040260200160405190810160405280929190818152602001828054610c3190612296565b8015610c7e5780601f10610c5357610100808354040283529160200191610c7e565b820191906000526020600020905b815481529060010190602001808311610c6157829003601f168201915b505050918352505060018201546001600160a01b03166020820152600290910154604090910152905082565b336001600160a01b037f00000000000000000000000000000000000000000000000000000000000000001614610cf25760405162461bcd60e51b81526004016103cc90612194565b600b5460ff1615610d155760405162461bcd60e51b81526004016103cc906121fc565b600554610d345760405162461bcd60e51b81526004016103cc906128f0565b8015610d465760058054600455600090555b7fedb2afa2cb6908ad551e4813020dfbde0ceec29862ad2bbdcad05b776f69f6848142604051610d77929190612900565b60405180910390a150565b60606001805480602002602001604051908101604052809291908181526020016000905b82821015610e8d5783829060005260206000209060030201604051806060016040529081600082018054610dd990612296565b80601f0160208091040260200160405190810160405280929190818152602001828054610e0590612296565b8015610e525780601f10610e2757610100808354040283529160200191610e52565b820191906000526020600020905b815481529060010190602001808311610e3557829003601f168201915b50505091835250506001828101546001600160a01b031660208084019190915260029093015460409092019190915291835292019101610da6565b50505050905090565b610e9e611c80565b60005b60015481101561109357610f9760018281548110610ec157610ec161220c565b90600052602060002090600302016000018054610edd90612296565b80601f0160208091040260200160405190810160405280929190818152602001828054610f0990612296565b8015610f565780601f10610f2b57610100808354040283529160200191610f56565b820191906000526020600020905b815481529060010190602001808311610f3957829003601f168201915b505050505085858080601f016020809104026020016040519081016040528093929190818152602001838380828437600092019190915250611ba292505050565b156110815760018181548110610faf57610faf61220c565b9060005260206000209060030201604051806060016040529081600082018054610fd890612296565b80601f016020809104026020016040519081016040528092919081815260200182805461100490612296565b80156110515780601f1061102657610100808354040283529160200191611051565b820191906000526020600020905b81548152906001019060200180831161103457829003601f168201915b505050918352505060018201546001600160a01b0316602082015260029091015460409091015291506110ac9050565b8061108b81612320565b915050610ea1565b5060405162461bcd60e51b81526004016103cc9061295d565b92915050565b60606006600401805480602002602001604051908101604052809291908181526020016000905b82821015610e8d578382906000526020600020906003020160405180606001604052908160008201805461110c90612296565b80601f016020809104026020016040519081016040528092919081815260200182805461113890612296565b80156111855780601f1061115a57610100808354040283529160200191611185565b820191906000526020600020905b81548152906001019060200180831161116857829003601f168201915b50505091835250506001828101546001600160a01b0316602080840191909152600290930154604090920191909152918352920191016110d9565b6111c8611c80565b60005b600a54811015611093576111ee60066004018281548110610ec157610ec161220c565b1561120757600a805482908110610faf57610faf61220c565b8061121181612320565b9150506111cb565b336001600160a01b037f000000000000000000000000000000000000000000000000000000000000000016146112615760405162461bcd60e51b81526004016103cc90612379565b600b5460ff166112835760405162461bcd60e51b81526004016103cc906123d1565b60005b818110156107445760005b600a548110156115255761130c8484848181106112b0576112b061220c565b90506020028101906112c29190612222565b8080601f01602080910402602001604051908101604052809392919081815260200183838082843760009201919091525050600a805490925085915081106104815761048161220c565b15611513576000600660040182815481106113295761132961220c565b9060005260206000209060030201600001805461134590612296565b80601f016020809104026020016040519081016040528092919081815260200182805461137190612296565b80156113be5780601f10611393576101008083540402835291602001916113be565b820191906000526020600020905b8154815290600101906020018083116113a157829003601f168201915b505050505090506000600660040183815481106113dd576113dd61220c565b6000918252602090912060026003909202010154600a805491925090611405906001906122d3565b815481106114155761141561220c565b9060005260206000209060030201600660040184815481106114395761143961220c565b9060005260206000209060030201600082018160000190805461145b90612296565b611466929190611bb8565b5060018281015490820180546001600160a01b0319166001600160a01b03909216919091179055600291820154910155600a8054806114a7576114a76122ea565b600082815260208120600019909201916003830201906114c78282611c43565b506001810180546001600160a01b03191690556000600290910155905560405160008051602061303f833981519152906115049084904290612300565b60405180910390a15050611525565b8061151d81612320565b915050611291565b508061153081612320565b915050611286565b6000546001600160a01b031633146115625760405162461bcd60e51b81526004016103cc906129a5565b6002805461ff0019169055565b336001600160a01b037f000000000000000000000000000000000000000000000000000000000000000016146115b75760405162461bcd60e51b81526004016103cc90612194565b600b5460ff16156115da5760405162461bcd60e51b81526004016103cc906121fc565b60005b81811015610744577f00000000000000000000000000000000000000000000000000000000000000006001600160a01b03168383838181106116215761162161220c565b905060200281019061163391906127f0565b6116449060408101906020016123f5565b6001600160a01b03161461166a5760405162461bcd60e51b81526004016103cc906129fe565b600183838381811061167e5761167e61220c565b905060200281019061169091906127f0565b8154600181018355600092835260209092209091600302016116b28282612758565b50507f701ba5028eb50d43b96f8c5fe59070c7f7eaca9966c214c10f9971c503d983848383838181106116e7576116e761220c565b90506020028101906116f991906127f0565b6117039080612222565b4260405161171393929190612889565b60405180910390a18061172581612320565b9150506115dd565b6000600454421115611776577f149f4e6f33dd9d8e01e7de869eb261f2e7aa57033be8e900565d2a76df6ab8b2426040516117689190611cef565b60405180910390a150600190565b50600090565b336001600160a01b037f000000000000000000000000000000000000000000000000000000000000000016146117c45760405162461bcd60e51b81526004016103cc90612379565b600b5460ff16156117e75760405162461bcd60e51b81526004016103cc906121fc565b6001600160a01b037f00000000000000000000000000000000000000000000000000000000000000001661181e60208401846127f0565b61182f9060408101906020016123f5565b6001600160a01b0316146118555760405162461bcd60e51b81526004016103cc90612a6a565b60005b6118656040840184612a7a565b9050811015611910576001600160a01b037f0000000000000000000000000000000000000000000000000000000000000000166118a56040850185612a7a565b838181106118b5576118b561220c565b90506020028101906118c791906127f0565b6118d89060408101906020016123f5565b6001600160a01b0316146118fe5760405162461bcd60e51b81526004016103cc90612b24565b8061190881612320565b915050611858565b5081600661191e8282612ec4565b505042600655600b805460ff19166001179055600060025460ff16600181111561194a5761194a612082565b146119d65760005460405163cc5b255b60e01b81526001600160a01b039091169063cc5b255b9061199f907f000000000000000000000000000000000000000000000000000000000000000090600401611cdb565b600060405180830381600087803b1580156119b957600080fd5b505af11580156119cd573d6000803e3d6000fd5b50505050611a5b565b600054604051630436e27b60e21b81526001600160a01b03909116906310db89ec90611a28907f0000000000000000000000000000000000000000000000000000000000000000908590600401612ece565b600060405180830381600087803b158015611a4257600080fd5b505af1158015611a56573d6000803e3d6000fd5b505050505b7f0ca29d4db1abbb1a72b6a95850391d05b6cefeb784a5e82d03cdcf5d0f58ebc4611a8960208401846127f0565b611a939080612222565b42604051611aa393929190612889565b60405180910390a15050565b336001600160a01b037f00000000000000000000000000000000000000000000000000000000000000001614611af75760405162461bcd60e51b81526004016103cc90612379565b600b5460ff1615611b1a5760405162461bcd60e51b81526004016103cc906121fc565b600454811015611b3c5760405162461bcd60e51b81526004016103cc90612f52565b600354611b4c90624f1a00612f62565b811115611b6b5760405162461bcd60e51b81526004016103cc90612fe0565b60058190556040517f9dffe71b2f41db9fb2e51c496974d7da184e8691b61780ae7801b6cb4757799390610d779083904290612ff0565b8051602091820120825192909101919091201490565b828054611bc490612296565b90600052602060002090601f016020900481019282611be65760008555611c33565b82601f10611bf75780548555611c33565b82800160010185558215611c3357600052602060002091601f016020900482015b82811115611c33578254825591600101919060010190611c18565b50611c3f929150611ca0565b5090565b508054611c4f90612296565b6000825580601f10611c5f575050565b601f016020900490600052602060002090810190611c7d9190611ca0565b50565b604080516060808201835281526000602082018190529181019190915290565b5b80821115611c3f5760008155600101611ca1565b6001600160a01b031690565b60006110ac82611cb5565b611cd581611cc1565b82525050565b602081016110ac8284611ccc565b80611cd5565b602081016110ac8284611ce9565b60008083601f840112611d1257611d12600080fd5b5081356001600160401b03811115611d2c57611d2c600080fd5b602083019150836020820283011115611d4757611d47600080fd5b9250929050565b60008060208385031215611d6457611d64600080fd5b82356001600160401b03811115611d7d57611d7d600080fd5b611d8985828601611cfd565b92509250509250929050565b805b8114611c7d57600080fd5b80356110ac81611d95565b600060208284031215611dc257611dc2600080fd5b6000611dce8484611da2565b949350505050565b60005b83811015611df1578181015183820152602001611dd9565b83811115611e00576000848401525b50505050565b601f01601f191690565b6000611e1a825190565b808452602084019350611e31818560208601611dd6565b611e3a81611e06565b9093019392505050565b60608082528101611e558186611e10565b9050611e646020830185611ccc565b611dce6040830184611ce9565b600060608284031215611e8657611e86600080fd5b50919050565b600060208284031215611ea157611ea1600080fd5b81356001600160401b03811115611eba57611eba600080fd5b611dce84828501611e71565b8051606080845260009190840190611ede8282611e10565b9150506020830151611ef36020860182611ccc565b506040830151611f066040860182611ce9565b509392505050565b60408101611f1c8285611ce9565b8181036020830152611dce8184611ec6565b801515611d97565b80356110ac81611f2e565b600060208284031215611f5657611f56600080fd5b6000611dce8484611f36565b6000611f6e8383611ec6565b9392505050565b6000611f7f825190565b80845260208401935083602082028501611f998560200190565b8060005b85811015611fce5784840389528151611fb68582611f62565b94506020830160209a909a0199925050600101611f9d565b5091979650505050505050565b60208082528101611f6e8184611f75565b60008083601f84011261200157612001600080fd5b5081356001600160401b0381111561201b5761201b600080fd5b602083019150836001820283011115611d4757611d47600080fd5b6000806020838503121561204c5761204c600080fd5b82356001600160401b0381111561206557612065600080fd5b611d8985828601611fec565b60208082528101611f6e8184611ec6565b634e487b7160e01b600052602160045260246000fd5b60028110611c7d57611c7d612082565b806120b281612098565b919050565b60006110ac826120a8565b611cd5816120b7565b602081016110ac82846120c2565b801515611cd5565b602081016110ac82846120d9565b6000806040838503121561210557612105600080fd5b82356001600160401b0381111561211e5761211e600080fd5b61212a85828601611e71565b925050602061213b85828601611f36565b9150509250929050565b602f81526000602082017f4f6e6c79207468652070726f6a656374206d616e616765722063616e2063616c81526e36103a3434b990333ab731ba34b7b760891b602082015291505b5060400190565b602080825281016110ac81612145565b6044815260006020820160008051602061301f83398151915281527f207768656e206173736573736d656e74206861736e27742066696e7369686564602082015263081e595d60e21b604082015291505b5060600190565b602080825281016110ac816121a4565b634e487b7160e01b600052603260045260246000fd5b6000808335601e193685900301811261223d5761223d600080fd5b8084019250823591506001600160401b0382111561225d5761225d600080fd5b60208301925060018202360383131561227857612278600080fd5b509250929050565b634e487b7160e01b600052602260045260246000fd5b6002810460018216806122aa57607f821691505b60208210811415611e8657611e86612280565b634e487b7160e01b600052601160045260246000fd5b6000828210156122e5576122e56122bd565b500390565b634e487b7160e01b600052603160045260246000fd5b604080825281016123118185611e10565b9050611f6e6020830184611ce9565b6000600019821415612334576123346122bd565b5060010190565b60338152600060208201600080516020612fff8339815191528152721031b0b636103a3434b990333ab731ba34b7b760691b6020820152915061218d565b602080825281016110ac8161233b565b603d815260006020820160008051602061301f83398151915281527f207768656e206173736573736d656e74206861732066696e73696865640000006020820152915061218d565b602080825281016110ac81612389565b611d9781611cc1565b80356110ac816123e1565b60006020828403121561240a5761240a600080fd5b6000611dce84846123ea565b603581526000602082017f4f6e6c79207468652070726f6a656374206d616e616765722063616e20757064815274185d19481d1a19481b585a5b88191bd8dd5b595b9d605a1b6020820152915061218d565b602080825281016110ac81612416565b634e487b7160e01b600052600060045260246000fd5b634e487b7160e01b600052604160045260246000fd5b60009081526020902090565b60006110ac6124bc8381565b90565b6124c8836124b0565b6124e6815b83546008860291821b60001990921b9182169119161790565b825550505050565b60006107448184846124bf565b818110156125165761250e6000826124ee565b6001016124fb565b5050565b601f8211156107445761252c816124a4565b6020601f850104810160208510156125415750805b6125536020601f8601048301826124fb565b5050505050565b6000196008929092029190911c191690565b6000612578838361255a565b600290930290921792915050565b826001600160401b0381111561259e5761259e61248e565b6125a88254612296565b6125b382828561251a565b6000601f8311600181146125e157600084156125cf5750858201355b6125d9858261256c565b86555061263c565b601f1984166125ef866124a4565b60005b8281101561261257888501358255602094850194600190920191016125f2565b8683101561262f578489013561262b601f89168261255a565b8355505b6001600288020188555050505b50505050505050565b610744838383612586565b600081356110ac816123e1565b60006001600160a01b03835b81169019929092169190911792915050565b60006110ac61268c6124bc84611cb5565b611cb5565b60006110ac8261267b565b60006110ac82612691565b6126b08261269c565b6126bb81835461265d565b8255505050565b600081356110ac81611d95565b600060001983612669565b6000816110ac565b6126eb826126da565b6126bb6126f7826126da565b83546126cf565b808261270a8180612222565b612715818386612645565b5050505060018101602083018061272b81612650565b905061273781846126a7565b50505060028101604083018061274c816126c2565b905061255381846126e2565b61251682826126fe565b82818337506000910152565b600061277b838584612762565b50500190565b6000611dce82848661276e565b603581526000602082017f4d61696e20646f63756d656e74207570646174652064656d616e642068617320815274185b1c9958591e481899595b881c9958da595d9959605a1b6020820152915061218d565b602080825281016110ac8161278e565b60008235605e193684900301811261280a5761280a600080fd5b9190910192915050565b603b8152600060208201600080516020612fff83398151915281527a20616464206173736573736d656e74206174746163686d656e747360281b6020820152915061218d565b602080825281016110ac81612814565b8183526000602084019350612880838584612762565b611e3a83611e06565b6040808252810161289b81858761286a565b9050611dce6020830184611ce9565b602981526000602082017f447565206461746520657874656e73696f6e20686173206e6f74206265656e208152681c995c5d595cdd195960ba1b6020820152915061218d565b602080825281016110ac816128aa565b6040810161290e82856120d9565b611f6e6020830184611ce9565b602581526000602082017f4174746163686d656e7420776974682070726f7669646564204944206e6f7420815264199bdd5b9960da1b6020820152915061218d565b602080825281016110ac8161291b565b602d815260006020820160008051602061301f83398151915281526c08199c9bdb481c1c9bda9958dd609a1b6020820152915061218d565b602080825281016110ac8161296d565b602c81526000602082017f4f6e6c79207468652070726f6a656374206d616e616765722063616e2061646481526b206174746163686d656e747360a01b6020820152915061218d565b602080825281016110ac816129b5565b604b8152600060208201600080516020612fff83398151915281527f2070726f7669646520746865206d61696e20646f63756d656e74206f6620616e60208201526a08185cdcd95cdcdb595b9d60aa1b604082015291506121f5565b602080825281016110ac81612a0e565b6000808335601e1936859003018112612a9557612a95600080fd5b8084019250823591506001600160401b03821115612ab557612ab5600080fd5b6020928301928202360383131561227857612278600080fd5b60458152600060208201600080516020612fff83398151915281527f2070726f76696465206174746163686d656e7473206f6620616e2061737365736020820152641cdb595b9d60da1b604082015291506121f5565b602080825281016110ac81612ace565b612b3d826124b0565b6126bb816126f7565b6000816000190483118215151615612b6057612b606122bd565b500290565b806110ac816003612b46565b612b82600019836020036008021c90565b815416905550565b612b93816124a4565b612b9e83825461256c565b9091556000905550565b602084108015612bff57601f841160018114612bcf57612bc8868561256c565b8355612bf9565b612bd8836124a4565b612bed6020601f8801048201600183016124fb565b612bf78785612b8a565b505b50612553565b612c08826124a4565b6020601f8701048101601f87168015612c2857612c288160018403612b71565b612c3a6020601f8901048401836124fb565b6001886002021785555050505050505050565b600160401b841115612c6157612c6161248e565b602083108015612ca057602085108015612c7f57612bc8868561256c565b60ff199093169283612c90846124a4565b5560018660020201835550612553565b6001856002020182555050505050565b8054612cbb81612296565b80841115612ccf57612ccf84828486612c4d565b80841015611e0057611e0084828486612ba8565b8181101561251657612cf66000826124ee565b600101612ce3565b611c7d600082612cb0565b8115612d1757612d17612478565b61251681612cfe565b612d29836126da565b6124e66124cd826126da565b6000610744818484612d20565b612d4d600082612d09565b60006001820155611c7d600060028301612d35565b8115612d7057612d70612478565b61251681612d42565b8181101561251657612d8c600082612d62565b600301612d79565b8183101561074457612da582612b65565b612dae84612b65565b612db7836124a4565b818101838201612dc78183612d79565b5050505050505050565b600160401b821115612de557612de561248e565b8054828255610744838284612d94565b8115612e0357612e03612478565b61074483826126fe565b82612e188183612dd1565b82612e22836124a4565b6000805b84811015612dc757612e3884886127f0565b612e43818486612df5565b506020939093019260039290920191600101612e26565b610744838383612e0d565b808280612e71816126c2565b9050612e7d8184612b34565b5050506001810160208301612e9281856127f0565b612e9c8184612758565b5050506004810160408301612eb18185612a7a565b612ebc818386612e5a565b505050505050565b6125168282612e65565b60408101612edc8285611ccc565b611f6e60208301846120d9565b604681526000602082017f5265717565737465642064756520646174652068617320746f206265206c617481527f657220696e2074686520667574757265207468616e2063757272656e7420647560208201526565206461746560d01b604082015291506121f5565b602080825281016110ac81612ee9565b60008219821115612f7557612f756122bd565b500190565b604381526000602082017f5265717565737465642064756520646174652068617320746f20626520736f6f81527f6e6572207468616e2064617465206f66206372656174696f6e202b203630206460208201526261797360e81b604082015291506121f5565b602080825281016110ac81612f7a565b6040810161290e8285611ce956fe4f6e6c7920746865206173736573736d656e742070726f76696465722063616e546869732066756e6374696f6e2063616e206f6e6c792062652063616c6c65645013cb14fd8cc8745beb9bbf4d104d7cbab0afe81b0073a58ce6b82e1a2ed9e8a2646970667358221220a59689a51dc3d59ca104c66029b2e60914901114edac5dedb16f985e695da94064736f6c63430008090033",
  "linkReferences": {},
  "deployedLinkReferences": {}
}