{
  "_format": "hh-sol-artifact-1",
  "contractName": "OwnerContract",
  "sourceName": "contracts/OwnerContract.sol",
  "abi": [
    {
      "inputs": [],
      "stateMutability": "nonpayable",
      "type": "constructor"
    },
    {
      "inputs": [
        {
          "internalType": "address[]",
          "name": "_owners",
          "type": "address[]"
        }
      ],
      "name": "addOwners",
      "outputs": [],
      "stateMutability": "nonpayable",
      "type": "function"
    },
    {
      "inputs": [
        {
          "internalType": "address[]",
          "name": "users",
          "type": "address[]"
        }
      ],
      "name": "authorizeUsers",
      "outputs": [],
      "stateMutability": "nonpayable",
      "type": "function"
    },
    {
      "inputs": [
        {
          "internalType": "address",
          "name": "",
          "type": "address"
        }
      ],
      "name": "authorizedUsers",
      "outputs": [
        {
          "internalType": "bool",
          "name": "",
          "type": "bool"
        }
      ],
      "stateMutability": "view",
      "type": "function"
    },
    {
      "inputs": [
        {
          "internalType": "address",
          "name": "",
          "type": "address"
        }
      ],
      "name": "owners",
      "outputs": [
        {
          "internalType": "bool",
          "name": "",
          "type": "bool"
        }
      ],
      "stateMutability": "view",
      "type": "function"
    },
    {
      "inputs": [
        {
          "internalType": "address[]",
          "name": "_owners",
          "type": "address[]"
        }
      ],
      "name": "removeOwners",
      "outputs": [],
      "stateMutability": "nonpayable",
      "type": "function"
    },
    {
      "inputs": [
        {
          "internalType": "address[]",
          "name": "users",
          "type": "address[]"
        }
      ],
      "name": "unauthorizeUsers",
      "outputs": [],
      "stateMutability": "nonpayable",
      "type": "function"
    }
  ],
  "bytecode": "0x608060405234801561001057600080fd5b50336000908152602081905260409020805460ff1916600117905561057e8061003a6000396000f3fe608060405234801561001057600080fd5b50600436106100625760003560e01c8063022914a7146100675780631828983a146100a05780636c46a2c5146100c3578063a9a5e3af146100d8578063b1770991146100eb578063f271aab7146100fe575b600080fd5b61008a6100753660046103d5565b60006020819052908152604090205460ff1681565b60405161009791906103fe565b60405180910390f35b61008a6100ae3660046103d5565b60016020526000908152604090205460ff1681565b6100d66100d136600461045d565b610111565b005b6100d66100e636600461045d565b6101bf565b6100d66100f936600461045d565b61025f565b6100d661010c36600461045d565b6102ff565b3360009081526020819052604090205460ff166101495760405162461bcd60e51b8152600401610140906104a4565b60405180910390fd5b60005b818110156101ba57600160008085858581811061016b5761016b610501565b905060200201602081019061018091906103d5565b6001600160a01b031681526020810191909152604001600020805460ff1916911515919091179055806101b28161052d565b91505061014c565b505050565b3360009081526020819052604090205460ff166101ee5760405162461bcd60e51b8152600401610140906104a4565b60005b818110156101ba57600080600085858581811061021057610210610501565b905060200201602081019061022591906103d5565b6001600160a01b031681526020810191909152604001600020805460ff1916911515919091179055806102578161052d565b9150506101f1565b3360009081526020819052604090205460ff1661028e5760405162461bcd60e51b8152600401610140906104a4565b60005b818110156101ba5760018060008585858181106102b0576102b0610501565b90506020020160208101906102c591906103d5565b6001600160a01b031681526020810191909152604001600020805460ff1916911515919091179055806102f78161052d565b915050610291565b3360009081526020819052604090205460ff1661032e5760405162461bcd60e51b8152600401610140906104a4565b60005b818110156101ba5760006001600085858581811061035157610351610501565b905060200201602081019061036691906103d5565b6001600160a01b031681526020810191909152604001600020805460ff1916911515919091179055806103988161052d565b915050610331565b60006001600160a01b0382165b92915050565b6103bc816103a0565b81146103c757600080fd5b50565b80356103ad816103b3565b6000602082840312156103ea576103ea600080fd5b60006103f684846103ca565b949350505050565b8115158152602081016103ad565b60008083601f84011261042157610421600080fd5b5081356001600160401b0381111561043b5761043b600080fd5b60208301915083602082028301111561045657610456600080fd5b9250929050565b6000806020838503121561047357610473600080fd5b82356001600160401b0381111561048c5761048c600080fd5b6104988582860161040c565b92509250509250929050565b602080825281016103ad81603981527f4f6e6c7920616e20617574686f72697a656420636f6e7472616374206f776e65602082015278391031b0b7103832b93337b936903a3434b99030b1ba34b7b760391b604082015260600190565b634e487b7160e01b600052603260045260246000fd5b634e487b7160e01b600052601160045260246000fd5b600060001982141561054157610541610517565b506001019056fea26469706673582212202b3878013843c4a0f3ee0853011b3d3b44b2cd1e93d361b0577db147f77c7b5b64736f6c63430008090033",
  "linkReferences": {},
  "deployedLinkReferences": {}
}