{
  "_format": "hh-sol-artifact-1",
  "contractName": "Project",
  "sourceName": "contracts/Project.sol",
  "abi": [
    {
      "inputs": [],
      "stateMutability": "nonpayable",
      "type": "constructor"
    },
    {
      "anonymous": false,
      "inputs": [
        {
          "indexed": false,
          "internalType": "address",
          "name": "_administrativeAuthority",
          "type": "address"
        },
        {
          "indexed": false,
          "internalType": "uint256",
          "name": "timestamp",
          "type": "uint256"
        }
      ],
      "name": "AdministrativeAuthorityRemoved",
      "type": "event"
    },
    {
      "anonymous": false,
      "inputs": [
        {
          "indexed": false,
          "internalType": "address",
          "name": "_administrativeAuthority",
          "type": "address"
        },
        {
          "indexed": false,
          "internalType": "uint256",
          "name": "timestamp",
          "type": "uint256"
        }
      ],
      "name": "AdministrativeAuthoritySet",
      "type": "event"
    },
    {
      "anonymous": false,
      "inputs": [
        {
          "indexed": false,
          "internalType": "address",
          "name": "_address",
          "type": "address"
        },
        {
          "indexed": false,
          "internalType": "uint256",
          "name": "timestamp",
          "type": "uint256"
        }
      ],
      "name": "AssessmentProviderAdded",
      "type": "event"
    },
    {
      "anonymous": false,
      "inputs": [
        {
          "indexed": false,
          "internalType": "address",
          "name": "_address",
          "type": "address"
        },
        {
          "indexed": false,
          "internalType": "uint256",
          "name": "timestamp",
          "type": "uint256"
        }
      ],
      "name": "AssessmentProviderRemoved",
      "type": "event"
    },
    {
      "anonymous": false,
      "inputs": [
        {
          "indexed": false,
          "internalType": "address",
          "name": "_address",
          "type": "address"
        },
        {
          "indexed": false,
          "internalType": "uint256",
          "name": "timestamp",
          "type": "uint256"
        }
      ],
      "name": "BuildingPermitContractCreated",
      "type": "event"
    },
    {
      "anonymous": false,
      "inputs": [
        {
          "indexed": false,
          "internalType": "address",
          "name": "_address",
          "type": "address"
        },
        {
          "indexed": false,
          "internalType": "uint256",
          "name": "timestamp",
          "type": "uint256"
        }
      ],
      "name": "DGDsent",
      "type": "event"
    },
    {
      "anonymous": false,
      "inputs": [
        {
          "indexed": false,
          "internalType": "string",
          "name": "documentId",
          "type": "string"
        },
        {
          "indexed": false,
          "internalType": "uint256",
          "name": "timestamp",
          "type": "uint256"
        }
      ],
      "name": "DGDset",
      "type": "event"
    },
    {
      "anonymous": false,
      "inputs": [
        {
          "indexed": false,
          "internalType": "address",
          "name": "_address",
          "type": "address"
        },
        {
          "indexed": false,
          "internalType": "uint256",
          "name": "timestamp",
          "type": "uint256"
        }
      ],
      "name": "DPPsent",
      "type": "event"
    },
    {
      "anonymous": false,
      "inputs": [
        {
          "indexed": false,
          "internalType": "string",
          "name": "documentId",
          "type": "string"
        },
        {
          "indexed": false,
          "internalType": "uint256",
          "name": "timestamp",
          "type": "uint256"
        }
      ],
      "name": "DPPset",
      "type": "event"
    },
    {
      "anonymous": false,
      "inputs": [
        {
          "indexed": false,
          "internalType": "uint256",
          "name": "timestamp",
          "type": "uint256"
        }
      ],
      "name": "ProjectCreated",
      "type": "event"
    },
    {
      "anonymous": false,
      "inputs": [
        {
          "indexed": false,
          "internalType": "uint256",
          "name": "timestamp",
          "type": "uint256"
        }
      ],
      "name": "allDGDsAssessed",
      "type": "event"
    },
    {
      "anonymous": false,
      "inputs": [
        {
          "indexed": false,
          "internalType": "uint256",
          "name": "timestamp",
          "type": "uint256"
        }
      ],
      "name": "allDPPsAssessed",
      "type": "event"
    },
    {
      "inputs": [],
      "name": "DGD",
      "outputs": [
        {
          "internalType": "string",
          "name": "id",
          "type": "string"
        },
        {
          "internalType": "address",
          "name": "owner",
          "type": "address"
        },
        {
          "internalType": "bytes32",
          "name": "documentHash",
          "type": "bytes32"
        }
      ],
      "stateMutability": "view",
      "type": "function"
    },
    {
      "inputs": [],
      "name": "DPP",
      "outputs": [
        {
          "internalType": "string",
          "name": "id",
          "type": "string"
        },
        {
          "internalType": "address",
          "name": "owner",
          "type": "address"
        },
        {
          "internalType": "bytes32",
          "name": "documentHash",
          "type": "bytes32"
        }
      ],
      "stateMutability": "view",
      "type": "function"
    },
    {
      "inputs": [
        {
          "internalType": "address[]",
          "name": "_assessmentProviders",
          "type": "address[]"
        }
      ],
      "name": "addAssessmentProviders",
      "outputs": [],
      "stateMutability": "nonpayable",
      "type": "function"
    },
    {
      "inputs": [],
      "name": "administrativeAuthority",
      "outputs": [
        {
          "internalType": "address",
          "name": "",
          "type": "address"
        }
      ],
      "stateMutability": "view",
      "type": "function"
    },
    {
      "inputs": [
        {
          "internalType": "address",
          "name": "assessmentProvider",
          "type": "address"
        }
      ],
      "name": "assessDGD",
      "outputs": [],
      "stateMutability": "nonpayable",
      "type": "function"
    },
    {
      "inputs": [
        {
          "internalType": "address",
          "name": "assessmentProvider",
          "type": "address"
        },
        {
          "internalType": "bool",
          "name": "requiresAssessment",
          "type": "bool"
        }
      ],
      "name": "assessDPP",
      "outputs": [],
      "stateMutability": "nonpayable",
      "type": "function"
    },
    {
      "inputs": [
        {
          "internalType": "address",
          "name": "",
          "type": "address"
        }
      ],
      "name": "assessmentProviders",
      "outputs": [
        {
          "internalType": "bool",
          "name": "exists",
          "type": "bool"
        },
        {
          "internalType": "bool",
          "name": "hasReceivedDPP",
          "type": "bool"
        },
        {
          "internalType": "address",
          "name": "receivedDPPAddress",
          "type": "address"
        },
        {
          "internalType": "bool",
          "name": "hasAssessedDPP",
          "type": "bool"
        },
        {
          "internalType": "bool",
          "name": "hasReceivedDGD",
          "type": "bool"
        },
        {
          "internalType": "address",
          "name": "receivedDGDAddress",
          "type": "address"
        },
        {
          "internalType": "bool",
          "name": "hasAssessedDGD",
          "type": "bool"
        }
      ],
      "stateMutability": "view",
      "type": "function"
    },
    {
      "inputs": [
        {
          "internalType": "uint256",
          "name": "",
          "type": "uint256"
        }
      ],
      "name": "assessmentProvidersAddresses",
      "outputs": [
        {
          "internalType": "address",
          "name": "",
          "type": "address"
        }
      ],
      "stateMutability": "view",
      "type": "function"
    },
    {
      "inputs": [],
      "name": "buildingPermitContract",
      "outputs": [
        {
          "internalType": "contract BuildingPermitContract",
          "name": "",
          "type": "address"
        }
      ],
      "stateMutability": "view",
      "type": "function"
    },
    {
      "inputs": [
        {
          "internalType": "address",
          "name": "_administrativeAuthority",
          "type": "address"
        }
      ],
      "name": "changeAdministrativeAuthority",
      "outputs": [],
      "stateMutability": "nonpayable",
      "type": "function"
    },
    {
      "inputs": [],
      "name": "dateCreated",
      "outputs": [
        {
          "internalType": "uint256",
          "name": "",
          "type": "uint256"
        }
      ],
      "stateMutability": "view",
      "type": "function"
    },
    {
      "inputs": [],
      "name": "getAssessmentProvidersAddresses",
      "outputs": [
        {
          "internalType": "address[]",
          "name": "",
          "type": "address[]"
        }
      ],
      "stateMutability": "view",
      "type": "function"
    },
    {
      "inputs": [],
      "name": "getSentDGDsAddresses",
      "outputs": [
        {
          "internalType": "contract DocumentContract[]",
          "name": "",
          "type": "address[]"
        }
      ],
      "stateMutability": "view",
      "type": "function"
    },
    {
      "inputs": [],
      "name": "getSentDGDsLength",
      "outputs": [
        {
          "internalType": "uint256",
          "name": "",
          "type": "uint256"
        }
      ],
      "stateMutability": "view",
      "type": "function"
    },
    {
      "inputs": [],
      "name": "getSentDPPs",
      "outputs": [
        {
          "internalType": "contract DocumentContract[]",
          "name": "",
          "type": "address[]"
        }
      ],
      "stateMutability": "view",
      "type": "function"
    },
    {
      "inputs": [],
      "name": "getSentDPPsAddresses",
      "outputs": [
        {
          "internalType": "contract DocumentContract[]",
          "name": "",
          "type": "address[]"
        }
      ],
      "stateMutability": "view",
      "type": "function"
    },
    {
      "inputs": [],
      "name": "getSentDPPsLength",
      "outputs": [
        {
          "internalType": "uint256",
          "name": "",
          "type": "uint256"
        }
      ],
      "stateMutability": "view",
      "type": "function"
    },
    {
      "inputs": [],
      "name": "isClosed",
      "outputs": [
        {
          "internalType": "bool",
          "name": "",
          "type": "bool"
        }
      ],
      "stateMutability": "view",
      "type": "function"
    },
    {
      "inputs": [],
      "name": "numOfAssessedDGDs",
      "outputs": [
        {
          "internalType": "uint256",
          "name": "",
          "type": "uint256"
        }
      ],
      "stateMutability": "view",
      "type": "function"
    },
    {
      "inputs": [],
      "name": "numOfAssessedDPPs",
      "outputs": [
        {
          "internalType": "uint256",
          "name": "",
          "type": "uint256"
        }
      ],
      "stateMutability": "view",
      "type": "function"
    },
    {
      "inputs": [],
      "name": "numOfAssessmentProviders",
      "outputs": [
        {
          "internalType": "uint256",
          "name": "",
          "type": "uint256"
        }
      ],
      "stateMutability": "view",
      "type": "function"
    },
    {
      "inputs": [],
      "name": "projectManager",
      "outputs": [
        {
          "internalType": "address",
          "name": "",
          "type": "address"
        }
      ],
      "stateMutability": "view",
      "type": "function"
    },
    {
      "inputs": [],
      "name": "removeAdministrativeAuthority",
      "outputs": [],
      "stateMutability": "nonpayable",
      "type": "function"
    },
    {
      "inputs": [
        {
          "internalType": "address[]",
          "name": "_assessmentProviders",
          "type": "address[]"
        }
      ],
      "name": "removeAssessmentProviders",
      "outputs": [],
      "stateMutability": "nonpayable",
      "type": "function"
    },
    {
      "inputs": [
        {
          "components": [
            {
              "internalType": "address",
              "name": "assessmentProvider",
              "type": "address"
            },
            {
              "components": [
                {
                  "internalType": "string",
                  "name": "id",
                  "type": "string"
                },
                {
                  "internalType": "address",
                  "name": "owner",
                  "type": "address"
                },
                {
                  "internalType": "bytes32",
                  "name": "documentHash",
                  "type": "bytes32"
                }
              ],
              "internalType": "struct Document[]",
              "name": "attachments",
              "type": "tuple[]"
            }
          ],
          "internalType": "struct Project.DocumentContractStruct[]",
          "name": "_sentDGDs",
          "type": "tuple[]"
        }
      ],
      "name": "sendDGD",
      "outputs": [],
      "stateMutability": "nonpayable",
      "type": "function"
    },
    {
      "inputs": [
        {
          "components": [
            {
              "internalType": "address",
              "name": "assessmentProvider",
              "type": "address"
            },
            {
              "components": [
                {
                  "internalType": "string",
                  "name": "id",
                  "type": "string"
                },
                {
                  "internalType": "address",
                  "name": "owner",
                  "type": "address"
                },
                {
                  "internalType": "bytes32",
                  "name": "documentHash",
                  "type": "bytes32"
                }
              ],
              "internalType": "struct Document[]",
              "name": "attachments",
              "type": "tuple[]"
            }
          ],
          "internalType": "struct Project.DocumentContractStruct[]",
          "name": "_sentDPPs",
          "type": "tuple[]"
        }
      ],
      "name": "sendDPP",
      "outputs": [],
      "stateMutability": "nonpayable",
      "type": "function"
    },
    {
      "inputs": [
        {
          "internalType": "uint256",
          "name": "",
          "type": "uint256"
        }
      ],
      "name": "sentDGDs",
      "outputs": [
        {
          "internalType": "contract DocumentContract",
          "name": "",
          "type": "address"
        }
      ],
      "stateMutability": "view",
      "type": "function"
    },
    {
      "inputs": [
        {
          "internalType": "uint256",
          "name": "",
          "type": "uint256"
        }
      ],
      "name": "sentDPPs",
      "outputs": [
        {
          "internalType": "contract DocumentContract",
          "name": "",
          "type": "address"
        }
      ],
      "stateMutability": "view",
      "type": "function"
    },
    {
      "inputs": [
        {
          "internalType": "address",
          "name": "_administrativeAuthority",
          "type": "address"
        }
      ],
      "name": "setAdministrativeAuthority",
      "outputs": [],
      "stateMutability": "nonpayable",
      "type": "function"
    },
    {
      "inputs": [
        {
          "components": [
            {
              "internalType": "string",
              "name": "id",
              "type": "string"
            },
            {
              "internalType": "address",
              "name": "owner",
              "type": "address"
            },
            {
              "internalType": "bytes32",
              "name": "documentHash",
              "type": "bytes32"
            }
          ],
          "internalType": "struct Document",
          "name": "_DGD",
          "type": "tuple"
        }
      ],
      "name": "setDGD",
      "outputs": [],
      "stateMutability": "nonpayable",
      "type": "function"
    },
    {
      "inputs": [
        {
          "components": [
            {
              "internalType": "string",
              "name": "id",
              "type": "string"
            },
            {
              "internalType": "address",
              "name": "owner",
              "type": "address"
            },
            {
              "internalType": "bytes32",
              "name": "documentHash",
              "type": "bytes32"
            }
          ],
          "internalType": "struct Document",
          "name": "_DPP",
          "type": "tuple"
        }
      ],
      "name": "setDPP",
      "outputs": [],
      "stateMutability": "nonpayable",
      "type": "function"
    }
  ],
  "bytecode": "0x60a060405234801561001057600080fd5b503360805242600f8190556040519081527f1ac2092e16e28eef29d1832f3dc69da1b21284a1f3159d3b26cb238b22fe4f8a9060200160405180910390a1608051616b706100c4600039600081816101a10152818161070c015281816107ad0152818161094e01528181610bbe01528181610ce601528181610dc0015281816110d5015281816113bc015281816114520152818161173c015281816117b5015281816118ff0152611abf0152616b706000f3fe60806040523480156200001157600080fd5b5060043610620001965760003560e01c8063029eb76e146200019b57806310db89ec14620001db57806313d6d68514620001f457806314b7c684146200020d5780631532d3a714620002285780631e931600146200023c5780631f741c7a1462000253578063441f99b7146200026c5780634dc3b41f14620001f45780635033565c14620002835780635a408ff5146200029a57806361031cdc14620002bd57806372e5d57014620002d45780637f272da414620003525780637f7ad9a0146200035c57806380f7f29d146200037357806382fa96ed146200037d57806397a70d3e146200039457806398964a6714620003ab578063ac6ac51414620003c4578063aec3ee8014620003cd578063af2341e014620003e4578063c2b6b58c14620003ee578063cc5b255b1462000412578063cd9b8fec1462000429578063d2e303391462000432578063dd6149c41462000449578063e112b2401462000453578063e327f4f9146200045d578063e461cadb1462000474578063f2c944c2146200047e575b600080fd5b620001c37f000000000000000000000000000000000000000000000000000000000000000081565b604051620001d2919062001fdd565b60405180910390f35b620001f2620001ec36600462002027565b62000495565b005b620001fe620005ed565b604051620001d2919062002111565b6200021762000651565b604051620001d293929190620021a8565b600354620001c3906001600160a01b031681565b620001f26200024d366004620021e3565b62000701565b6200025d600f5481565b604051620001d2919062002208565b620001f26200027d3660046200226f565b620007a2565b620001f262000294366004620021e3565b62000bb3565b600e54620002ae906001600160a01b031681565b604051620001d29190620022bc565b620002ae620002ce366004620022e0565b62000cb0565b6200033d620002e5366004620021e3565b6000602081905290815260409020805460019091015460ff8083169261010081048216926001600160a01b03620100008304811693600160b01b8404811693600160b81b900481169291821691600160a01b90041687565b604051620001d297969594939291906200230e565b620001f262000cdb565b620002ae6200036d366004620022e0565b62000da4565b6200025d60025481565b620001f26200038e3660046200226f565b62000db5565b620001f2620003a53660046200226f565b620010ca565b620003b56200134f565b604051620001d29190620023d5565b600c546200025d565b620001f2620003de36600462002405565b620013b1565b6200025d600d5481565b600e546200040390600160a01b900460ff1681565b604051620001d2919062002445565b620001f262000423366004620021e3565b62001591565b6007546200025d565b620001c362000443366004620022e0565b620016ad565b620001fe620016be565b6200021762001720565b620001f26200046e36600462002405565b62001731565b6200025d60085481565b620001f26200048f3660046200226f565b620018f4565b60025415620004cd5760025460085410620004cd5760405162461bcd60e51b8152600401620004c490620024ae565b60405180910390fd5b6001600160a01b0382166000908152602081905260409020805460ff191660011790819055600160b01b900460ff16156200051c5760405162461bcd60e51b8152600401620004c49062002507565b6001600160a01b0382166000908152602081905260408120805460ff60b01b1916600160b01b179055600880549162000555836200252f565b919050555080620005a2576001600160a01b0382166000908152602081905260408120600101805460ff60a01b1916600160a01b179055600d8054916200059c836200252f565b91905055505b6002546008541415620005e9577f9ca565660d7e2220b0acf5dcdf85e7d5e9387e40d224bce333576cd294ba480842604051620005e0919062002208565b60405180910390a15b5050565b606060078054806020026020016040519081016040528092919081815260200182805480156200064757602002820191906000526020600020905b81546001600160a01b0316815260019091019060200180831162000628575b5050505050905090565b600980548190620006629062002563565b80601f0160208091040260200160405190810160405280929190818152602001828054620006909062002563565b8015620006e15780601f10620006b557610100808354040283529160200191620006e1565b820191906000526020600020905b815481529060010190602001808311620006c357829003601f168201915b50505050600183015460029093015491926001600160a01b031691905083565b336001600160a01b037f000000000000000000000000000000000000000000000000000000000000000016146200074c5760405162461bcd60e51b8152600401620004c490620025db565b600e546001600160a01b031615620007785760405162461bcd60e51b8152600401620004c4906200264b565b6003546001600160a01b03161562000794576200079462000cdb565b6200079f8162000bb3565b50565b336001600160a01b037f00000000000000000000000000000000000000000000000000000000000000001614620007ed5760405162461bcd60e51b8152600401620004c490620025db565b600254156200081c57600254600854106200081c5760405162461bcd60e51b8152600401620004c490620024ae565b6005546001600160a01b0316620008475760405162461bcd60e51b8152600401620004c490620026ab565b60005b8181101562000bae576000808484848181106200086b576200086b620026bd565b90506020028101906200087f9190620026d3565b6200088f906020810190620021e3565b6001600160a01b0316815260208101919091526040016000205460ff16620008cb5760405162461bcd60e51b8152600401620004c4906200273e565b600080848484818110620008e357620008e3620026bd565b9050602002810190620008f79190620026d3565b62000907906020810190620021e3565b6001600160a01b03168152602081019190915260400160002054610100900460ff1615620009495760405162461bcd60e51b8152600401620004c49062002795565b6000307f0000000000000000000000000000000000000000000000000000000000000000858585818110620009825762000982620026bd565b9050602002810190620009969190620026d3565b620009a6906020810190620021e3565b868686818110620009bb57620009bb620026bd565b9050602002810190620009cf9190620026d3565b620009df906020810190620027a7565b6000604051620009ef9062001f9f565b62000a009695949392919062002a06565b604051809103906000f08015801562000a1d573d6000803e3d6000fd5b50600780546001808201835560009283527fa66cc928b5edb82af9bd49922954155ab7b0942694bea4ce44661d9a8736c68890910180546001600160a01b0319166001600160a01b0385161790559192508086868681811062000a845762000a84620026bd565b905060200281019062000a989190620026d3565b62000aa8906020810190620021e3565b6001600160a01b031681526020810191909152604001600090812080549215156101000261ff00199093169290921790915581908086868681811062000af25762000af2620026bd565b905060200281019062000b069190620026d3565b62000b16906020810190620021e3565b6001600160a01b03166001600160a01b0316815260200190815260200160002060000160026101000a8154816001600160a01b0302191690836001600160a01b031602179055507f6caf21665b34d731fa6d137a3fdad339e3765f78a30515ecf0812bebc10723fe814260405162000b9092919062002a65565b60405180910390a1508062000ba5816200252f565b9150506200084a565b505050565b336001600160a01b037f0000000000000000000000000000000000000000000000000000000000000000161462000bfe5760405162461bcd60e51b8152600401620004c490620025db565b600e546001600160a01b03161562000c2a5760405162461bcd60e51b8152600401620004c4906200264b565b6003546001600160a01b03161562000c565760405162461bcd60e51b8152600401620004c49062002acf565b600380546001600160a01b0319166001600160a01b0383161790556040517f4a6f313eb6d61d41bf100625037c6b2236b863e059433630fc9c7aae1712dc939062000ca5908390429062002a65565b60405180910390a150565b6007818154811062000cc157600080fd5b6000918252602090912001546001600160a01b0316905081565b336001600160a01b037f0000000000000000000000000000000000000000000000000000000000000000161462000d265760405162461bcd60e51b8152600401620004c490620025db565b600e546001600160a01b03161562000d525760405162461bcd60e51b8152600401620004c4906200264b565b600380546001600160a01b031981169091556040516001600160a01b03909116907fc1ec6b1119581992547435e21f50ad87c3e65c7cadfac67a4ad27a1a72d3f1d79062000ca5908390429062002a65565b600c818154811062000cc157600080fd5b336001600160a01b037f0000000000000000000000000000000000000000000000000000000000000000161462000e005760405162461bcd60e51b8152600401620004c490620025db565b6002541562000e2f576002546008541062000e2f5760405162461bcd60e51b8152600401620004c490620024ae565b60005b8181101562000bae5760008084848481811062000e535762000e53620026bd565b905060200201602081019062000e6a9190620021e3565b6001600160a01b0316815260208101919091526040016000205460ff161562000ea75760405162461bcd60e51b8152600401620004c49062002b48565b6040805160e08101825260018152600060208201819052918101829052606081018290526080810182905260a0810182905260c08101829052908085858581811062000ef75762000ef7620026bd565b905060200201602081019062000f0e9190620021e3565b6001600160a01b0390811682526020808301939093526040918201600020845181549486015193860151606087015160808801511515600160b81b0260ff60b81b19911515600160b01b0260ff60b01b1993871662010000029390931662010000600160b81b03199715156101000261ff00199515159590951661ffff1990991698909817939093179590951695909517949094179290921692909217815560a08301516001918201805460c0909501511515600160a01b026001600160a81b0319909516919093161792909217905583838381811062000ff35762000ff3620026bd565b90506020020160208101906200100a9190620021e3565b81546001810183556000928352602083200180546001600160a01b0319166001600160a01b039290921691909117905560028054916200104a836200252f565b91905055507f88cf711075170bc5a1348a4bfb66d22a6503ea2f0b7f80e6aa9b35c3ef316839838383818110620010855762001085620026bd565b90506020020160208101906200109c9190620021e3565b42604051620010ad92919062002a65565b60405180910390a180620010c1816200252f565b91505062000e32565b336001600160a01b037f00000000000000000000000000000000000000000000000000000000000000001614620011155760405162461bcd60e51b8152600401620004c490620025db565b60025415620011445760025460085410620011445760405162461bcd60e51b8152600401620004c490620024ae565b60005b8181101562000bae57600080848484818110620011685762001168620026bd565b90506020020160208101906200117f9190620021e3565b6001600160a01b0316815260208101919091526040016000205460ff16620011bb5760405162461bcd60e51b8152600401620004c49062002ba5565b600080848484818110620011d357620011d3620026bd565b9050602002016020810190620011ea9190620021e3565b6001600160a01b03168152602081019190915260400160002054600160b01b900460ff16156200122e5760405162461bcd60e51b8152600401620004c49062002c1e565b6000806000858585818110620012485762001248620026bd565b90506020020160208101906200125f9190620021e3565b6001600160a01b031681526020810191909152604001600020805460ff1916911515919091179055620012bd838383818110620012a057620012a0620026bd565b9050602002016020810190620012b79190620021e3565b62001d23565b60028054906000620012cf8362002c30565b91905055507fb53f1a8530fa5b93df4b395e4fe5a9ba1b50a935ac91af46e2522e21763ddd148383838181106200130a576200130a620026bd565b9050602002016020810190620013219190620021e3565b426040516200133292919062002a65565b60405180910390a18062001346816200252f565b91505062001147565b6060600180548060200260200160405190810160405280929190818152602001828054801562000647576020028201919060005260206000209081546001600160a01b0316815260019091019060200180831162000628575050505050905090565b336001600160a01b037f00000000000000000000000000000000000000000000000000000000000000001614620013fc5760405162461bcd60e51b8152600401620004c490620025db565b60025460085414620014225760405162461bcd60e51b8152600401620004c49062002caf565b600254600d5410620014485760405162461bcd60e51b8152600401620004c49062002d18565b6001600160a01b037f000000000000000000000000000000000000000000000000000000000000000016620014846040830160208401620021e3565b6001600160a01b031614620014ad5760405162461bcd60e51b8152600401620004c49062002d74565b806009620014bc8282620030a5565b90505060005b600c548110156200155b57600c8181548110620014e357620014e3620026bd565b60009182526020822001546040805163bc3d4d3360e01b815290516001600160a01b039092169263bc3d4d339260048084019382900301818387803b1580156200152c57600080fd5b505af115801562001541573d6000803e3d6000fd5b50505050808062001552906200252f565b915050620014c2565b506040517f5a77cfaa00943caf9f8183d49c03c2fbf55097fdafe7f15f96351e14a66f19b79062000ca59060099042906200312f565b60025460085414620015b75760405162461bcd60e51b8152600401620004c49062002caf565b600254600d5410620015dd5760405162461bcd60e51b8152600401620004c49062002d18565b6001600160a01b0381166000908152602081905260409020805460ff1916600190811782550154600160a01b900460ff16156200162e5760405162461bcd60e51b8152600401620004c49062003193565b6001600160a01b0381166000908152602081905260408120600101805460ff60a01b1916600160a01b179055600d8054916200166a836200252f565b9190505550600254600d5414156200079f577f2b42cd39e5c02652cbf02054f931c5d06974ba14b7678efe854cd284f24e69f04260405162000ca5919062002208565b6001818154811062000cc157600080fd5b6060600c80548060200260200160405190810160405280929190818152602001828054801562000647576020028201919060005260206000209081546001600160a01b0316815260019091019060200180831162000628575050505050905090565b600480548190620006629062002563565b336001600160a01b037f000000000000000000000000000000000000000000000000000000000000000016146200177c5760405162461bcd60e51b8152600401620004c490620025db565b60025415620017ab5760025460085410620017ab5760405162461bcd60e51b8152600401620004c490620024ae565b6001600160a01b037f000000000000000000000000000000000000000000000000000000000000000016620017e76040830160208401620021e3565b6001600160a01b031614620018105760405162461bcd60e51b8152600401620004c490620031ef565b8060046200181f8282620030a5565b90505060005b600754811015620018be5760078181548110620018465762001846620026bd565b60009182526020822001546040805163bc3d4d3360e01b815290516001600160a01b039092169263bc3d4d339260048084019382900301818387803b1580156200188f57600080fd5b505af1158015620018a4573d6000803e3d6000fd5b505050508080620018b5906200252f565b91505062001825565b506040517fa6f4768cfd6b5ccf02bf592a15d59ca4f9710bb353eb7f58fc0c6833bb0022fd9062000ca59060049042906200312f565b336001600160a01b037f000000000000000000000000000000000000000000000000000000000000000016146200193f5760405162461bcd60e51b8152600401620004c490620025db565b60025460085414620019655760405162461bcd60e51b8152600401620004c49062002caf565b600254600d54106200198b5760405162461bcd60e51b8152600401620004c49062002d18565b600a546001600160a01b0316620019b65760405162461bcd60e51b8152600401620004c4906200324f565b60005b8181101562000bae57600080848484818110620019da57620019da620026bd565b9050602002810190620019ee9190620026d3565b620019fe906020810190620021e3565b6001600160a01b0316815260208101919091526040016000205460ff1662001a3a5760405162461bcd60e51b8152600401620004c4906200273e565b60008084848481811062001a525762001a52620026bd565b905060200281019062001a669190620026d3565b62001a76906020810190620021e3565b6001600160a01b03168152602081019190915260400160002054600160b81b900460ff161562001aba5760405162461bcd60e51b8152600401620004c490620032a6565b6000307f000000000000000000000000000000000000000000000000000000000000000085858581811062001af35762001af3620026bd565b905060200281019062001b079190620026d3565b62001b17906020810190620021e3565b86868681811062001b2c5762001b2c620026bd565b905060200281019062001b409190620026d3565b62001b50906020810190620027a7565b600160405162001b609062001f9f565b62001b719695949392919062002a06565b604051809103906000f08015801562001b8e573d6000803e3d6000fd5b50600c80546001808201835560009283527fdf6966c971051c3d54ec59162606531493a51404a002842f56009d7e5cf4a8c790910180546001600160a01b0319166001600160a01b0385161790559192508086868681811062001bf55762001bf5620026bd565b905060200281019062001c099190620026d3565b62001c19906020810190620021e3565b6001600160a01b03168152602081019190915260400160009081208054921515600160b81b0260ff60b81b199093169290921790915581908086868681811062001c675762001c67620026bd565b905060200281019062001c7b9190620026d3565b62001c8b906020810190620021e3565b6001600160a01b03166001600160a01b0316815260200190815260200160002060010160006101000a8154816001600160a01b0302191690836001600160a01b031602179055507fc66ebdd4e588d6a2f8765ba102915c8f478d547b77e8ce606de2db44147d77b9814260405162001d0592919062002a65565b60405180910390a1508062001d1a816200252f565b915050620019b9565b60005b60015481101562001e3f57816001600160a01b03166001828154811062001d515762001d51620026bd565b6000918252602090912001546001600160a01b0316141562001e2a576001805462001d7e908290620032b8565b8154811062001d915762001d91620026bd565b600091825260209091200154600180546001600160a01b03909216918390811062001dc05762001dc0620026bd565b9060005260206000200160006101000a8154816001600160a01b0302191690836001600160a01b03160217905550600180548062001e025762001e02620032d2565b600082815260209020810160001990810180546001600160a01b031916905501905562001e3f565b8062001e36816200252f565b91505062001d26565b506001600160a01b038116600090815260208190526040902054610100900460ff16156200079f5760005b600754811015620005e9576001600160a01b03808316600090815260208190526040902054600780546201000090920490921691908390811062001eb25762001eb2620026bd565b6000918252602090912001546001600160a01b0316141562001f8a576007805462001ee090600190620032b8565b8154811062001ef35762001ef3620026bd565b600091825260209091200154600780546001600160a01b03909216918390811062001f225762001f22620026bd565b9060005260206000200160006101000a8154816001600160a01b0302191690836001600160a01b03160217905550600780548062001f645762001f64620032d2565b600082815260209020810160001990810180546001600160a01b03191690550190555050565b8062001f96816200252f565b91505062001e6a565b6137d280620032e983390190565b6001600160a01b031690565b600062001fc68262001fad565b92915050565b62001fd78162001fb9565b82525050565b6020810162001fc6828462001fcc565b62001ff88162001fb9565b81146200079f57600080fd5b803562001fc68162001fed565b80151562001ff8565b803562001fc68162002011565b600080604083850312156200203f576200203f600080fd5b60006200204d858562002004565b925050602062002060858286016200201a565b9150509250929050565b600062001fc6620020826200207f8462001fad565b90565b62001fad565b600062001fc6826200206a565b600062001fc68262002088565b62001fd78162002095565b6000620020bb8383620020a2565b505060200190565b6000620020ce825190565b80845260209384019383018060005b8381101562002106578151620020f48882620020ad565b975060208301925050600101620020dd565b509495945050505050565b60208082528101620021248184620020c3565b9392505050565b60005b83811015620021485781810151838201526020016200212e565b8381111562002158576000848401525b50505050565b601f01601f191690565b600062002173825190565b8084526020840193506200218c8185602086016200212b565b62002197816200215e565b9093019392505050565b8062001fd7565b60608082528101620021bb818662002168565b9050620021cc602083018562001fcc565b620021db6040830184620021a1565b949350505050565b600060208284031215620021fa57620021fa600080fd5b6000620021db848462002004565b6020810162001fc68284620021a1565b60008083601f8401126200222f576200222f600080fd5b5081356001600160401b038111156200224b576200224b600080fd5b602083019150836020820283011115620022685762002268600080fd5b9250929050565b60008060208385031215620022875762002287600080fd5b82356001600160401b03811115620022a257620022a2600080fd5b620022b08582860162002218565b92509250509250929050565b6020810162001fc68284620020a2565b8062001ff8565b803562001fc681620022cc565b600060208284031215620022f757620022f7600080fd5b6000620021db8484620022d3565b80151562001fd7565b60e081016200231e828a62002305565b6200232d602083018962002305565b6200233c604083018862001fcc565b6200234b606083018762002305565b6200235a608083018662002305565b6200236960a083018562001fcc565b6200237860c083018462002305565b98975050505050505050565b6000620020bb838362001fcc565b60006200239d825190565b80845260209384019383018060005b8381101562002106578151620023c3888262002384565b975060208301925050600101620023ac565b6020808252810162002124818462002392565b600060608284031215620023ff57620023ff600080fd5b50919050565b6000602082840312156200241c576200241c600080fd5b81356001600160401b03811115620024375762002437600080fd5b620021db84828501620023e8565b6020810162001fc6828462002305565b6044815260006020820160008051602062006abb83398151915281527f6674657220616c6c2074686520445050732068617665206265656e20617373656020820152631cdcd95960e21b604082015291505b5060600190565b6020808252810162001fc68162002455565b5060400190565b6033815260006020820160008051602062006b1b83398151915281527206561647920617373657373656420612044505606c1b60208201529150620024c0565b6020808252810162001fc681620024c7565b634e487b7160e01b600052601160045260246000fd5b600060001982141562002546576200254662002519565b5060010190565b634e487b7160e01b600052602260045260246000fd5b6002810460018216806200257857607f821691505b60208210811415620023ff57620023ff6200254d565b602f81526000602082017f4f6e6c79207468652070726f6a656374206d616e616765722063616e2063616c81526e36103a3434b990333ab731ba34b7b760891b60208201529150620024c0565b6020808252810162001fc6816200258e565b604b815260006020820160008051602062006abb83398151915281527f66746572206275696c64696e67207065726d697420636f6e747261637420686160208201526a1cc81899595b881cd95b9d60aa1b60408201529150620024a7565b6020808252810162001fc681620025ed565b603081526000602082017f445050206d75737420626520616464656420696e206f7264657220746f20636181526f3636103a3434b990333ab731ba34b7b760811b60208201529150620024c0565b6020808252810162001fc6816200265d565b634e487b7160e01b600052603260045260246000fd5b60008235603e1936849003018112620026ef57620026ef600080fd5b9190910192915050565b6038815260006020820160008051602062006afb8339815191528152771cc81d1bc8195e1cda5cdd081bdb8818481c1c9bda9958dd60421b60208201529150620024c0565b6020808252810162001fc681620026f9565b6038815260006020820160008051602062006afb83398151915281527707320616c72656164792072656365697665642061204450560441b60208201529150620024c0565b6020808252810162001fc68162002750565b6000808335601e1936859003018112620027c457620027c4600080fd5b8084019250823591506001600160401b03821115620027e657620027e6600080fd5b60209283019282023603831315620028015762002801600080fd5b509250929050565b6000808335601e1936859003018112620028265762002826600080fd5b8381016020810193503591506001600160401b038211156200284b576200284b600080fd5b36829003841315620028015762002801600080fd5b82818337506000910152565b81835260006020840193506200288483858462002860565b62002197836200215e565b600062002124602084018462002004565b6000620021246020840184620022d3565b600060608301620028c3838062002809565b8583038652620028d58382846200286c565b92505050620028e860208401846200288f565b620028f7602086018262001fcc565b50620029076040840184620028a0565b620029166040860182620021a1565b509392505050565b6000620021248383620028b1565b60008235605e1936849003018112620029485762002948600080fd5b90910192915050565b818352600060208401935083602084028101838060005b87811015620029a75784840389526200298282846200292c565b6200298e85826200291e565b94506020830160209a909a019992505060010162002968565b5091979650505050505050565b634e487b7160e01b600052602160045260246000fd5b600281106200079f576200079f620029b4565b80620029e981620029ca565b919050565b600062001fc682620029dd565b62001fd781620029ee565b60a0810162002a16828962001fcc565b62002a25602083018862001fcc565b62002a34604083018762001fcc565b818103606083015262002a4981858762002951565b905062002a5a6080830184620029fb565b979650505050505050565b6040810162002a75828562001fcc565b620021246020830184620021a1565b602d81526000602082017f41646d696e69737472617469766520617574686f726974792068617320616c7281526c1958591e481899595b881cd95d609a1b60208201529150620024c0565b6020808252810162001fc68162002a84565b604381526000602082017f596f752063616e277420616464206173736573736d656e742070726f7669646581527f72207468617420616c72656164792065787369737473206f6e20612070726f6a6020820152621958dd60ea1b60408201529150620024a7565b6020808252810162001fc68162002ae1565b602d81526000602082017f4173736573736d656e742070726f76696465722068617320746f20657869737481526c081bdb8818481c1c9bda9958dd609a1b60208201529150620024c0565b6020808252810162001fc68162002b5a565b604381526000602082017f596f752063616e27742072656d6f7665206173736573736d656e7450726f766981527f64657220746861742068617320616c726561647920617373657373656420612060208201526204450560ec1b60408201529150620024a7565b6020808252810162001fc68162002bb7565b60008162002c425762002c4262002519565b506000190190565b604181526000602082017f546869732066756e6374696f6e2063616e6e6f742062652063616c6c6564206281527f65666f726520616c6c20445050732068617665206265656e20617373657373656020820152601960fa1b60408201529150620024a7565b6020808252810162001fc68162002c4a565b6044815260006020820160008051602062006abb83398151915281527f6674657220616c6c2074686520444744732068617665206265656e20617373656020820152631cdcd95960e21b60408201529150620024a7565b6020808252810162001fc68162002cc1565b603e81526000602082017f50726f7669646564204447442773206f776e6572206d75737420626520612070815260008051602062006adb83398151915260208201529150620024c0565b6020808252810162001fc68162002d2a565b6000808335601e193685900301811262002da35762002da3600080fd5b8084019250823591506001600160401b0382111562002dc55762002dc5600080fd5b602083019250600182023603831315620028015762002801600080fd5b634e487b7160e01b600052604160045260246000fd5b600062001fc66200207f8381565b62002e118362002df8565b81546008840282811b60001990911b908116901990911617825550505050565b600062000bae81848462002e06565b81811015620005e95762002e5660008262002e31565b60010162002e40565b601f82111562000bae576000818152602090206020601f8501048101602085101562002e885750805b62002e9c6020601f86010483018262002e40565b5050505050565b6000196008929092029190911c191690565b600062002ec3838362002ea3565b600290930290921792915050565b826001600160401b0381111562002eec5762002eec62002de2565b62002ef8825462002563565b62002f0582828562002e5f565b6000601f83116001811462002f38576000841562002f235750858201355b62002f2f858262002eb5565b86555062002f97565b600085815260208120601f198616915b8281101562002f6a578885013582556020948501946001909201910162002f48565b8683101562002f8a578489013562002f86601f89168262002ea3565b8355505b6001600288020188555050505b50505050505050565b62000bae83838362002ed1565b6000813562001fc68162001fed565b60006001600160a01b03835b81169019929092169190911792915050565b62002fe58262002095565b62002ff281835462002fbc565b8255505050565b6000813562001fc681620022cc565b60006000198362002fc8565b60008162001fc6565b620030288262003014565b62002ff2620030378262003014565b835462003008565b80826200304d818062002d86565b6200305a81838662002fa0565b50505050600181016020830180620030728162002fad565b905062003080818462002fda565b505050600281016040830180620030978162002ff9565b905062002e9c81846200301d565b620005e982826200303f565b60008154620030c08162002563565b808552602085019450600182168015620030e35760018114620030f65762003126565b60ff198316865260208601935062003126565b60008581526020902060005b83811015620031205781548882015260019091019060200162003102565b87019450505b50505092915050565b60408082528101620031428185620030b1565b9050620021246020830184620021a1565b6033815260006020820160008051602062006b1b8339815191528152721958591e48185cdcd95cdcd9590818481111d1606a1b60208201529150620024c0565b6020808252810162001fc68162003153565b603e81526000602082017f50726f7669646564204450502773206f776e6572206d75737420626520612070815260008051602062006adb83398151915260208201529150620024c0565b6020808252810162001fc681620031a5565b603081526000602082017f444744206d75737420626520616464656420696e206f7264657220746f20636181526f3636103a3434b990333ab731ba34b7b760811b60208201529150620024c0565b6020808252810162001fc68162003201565b6038815260006020820160008051602062006afb8339815191528152771cc8185b1c9958591e481c9958d95a5d99590818481111d160421b60208201529150620024c0565b6020808252810162001fc68162003261565b600082821015620032cd57620032cd62002519565b500390565b634e487b7160e01b600052603160045260246000fdfe60c06040523480156200001157600080fd5b50604051620037d2380380620037d2833981016040819052620000349162000539565b600080546001600160a01b0319166001600160a01b0387811691909117909155848116608052831660a0526002805482919060ff191660018381811115620000805762000080620005d9565b02179055504260038190556200009a906213c68062000605565b60045560005b825181101562000144576001838281518110620000c157620000c162000620565b602090810291909101810151825460018101845560009384529282902081518051929460030290910192620000fc9284929091019062000189565b5060208201516001820180546001600160a01b0319166001600160a01b03909216919091179055604090910151600290910155806200013b8162000636565b915050620000a0565b507f0a42774af8172f1bfdb5883c1631e4f3ac73489e62bed248dc4e3b718cafe9b74260405162000176919062000654565b60405180910390a15050505050620006a8565b828054620001979062000677565b90600052602060002090601f016020900481019282620001bb576000855562000206565b82601f10620001d657805160ff191683800117855562000206565b8280016001018555821562000206579182015b8281111562000206578251825591602001919060010190620001e9565b506200021492915062000218565b5090565b5b8082111562000214576000815560010162000219565b60006001600160a01b0382165b92915050565b6200024d816200022f565b81146200025957600080fd5b50565b80516200023c8162000242565b601f01601f191690565b634e487b7160e01b600052604160045260246000fd5b620002948262000269565b81018181106001600160401b0382111715620002b457620002b462000273565b6040525050565b6000620002c760405190565b9050620002d5828262000289565b919050565b60006001600160401b03821115620002f657620002f662000273565b5060209081020190565b60006001600160401b038211156200031c576200031c62000273565b620003278262000269565b60200192915050565b60005b838110156200034d57818101518382015260200162000333565b838111156200035d576000848401525b50505050565b60006200037a620003748462000300565b620002bb565b905082815260208101848484011115620003975762000397600080fd5b620003a484828562000330565b509392505050565b600082601f830112620003c257620003c2600080fd5b8151620003d484826020860162000363565b949350505050565b806200024d565b80516200023c81620003dc565b600060608284031215620004075762000407600080fd5b620004136060620002bb565b82519091506001600160401b03811115620004315762000431600080fd5b6200043f84828501620003ac565b825250602062000452848483016200025c565b60208301525060406200046884828501620003e3565b60408301525092915050565b6000620004856200037484620002da565b83815290506020808201908402830185811115620004a657620004a6600080fd5b835b81811015620004ec5780516001600160401b03811115620004cc57620004cc600080fd5b808601620004db8982620003f0565b8552505060209283019201620004a8565b5050509392505050565b600082601f8301126200050c576200050c600080fd5b8151620003d484826020860162000474565b600281106200025957600080fd5b80516200023c816200051e565b600080600080600060a08688031215620005565762000556600080fd5b60006200056488886200025c565b955050602062000577888289016200025c565b94505060406200058a888289016200025c565b93505060608601516001600160401b03811115620005ab57620005ab600080fd5b620005b988828901620004f6565b9250506080620005cc888289016200052c565b9150509295509295909350565b634e487b7160e01b600052602160045260246000fd5b634e487b7160e01b600052601160045260246000fd5b600082198211156200061b576200061b620005ef565b500190565b634e487b7160e01b600052603260045260246000fd5b60006000198214156200064d576200064d620005ef565b5060010190565b818152602081016200023c565b634e487b7160e01b600052602260045260246000fd5b6002810460018216806200068c57607f821691505b60208210811415620006a257620006a262000661565b50919050565b60805160a0516130946200073e600039600081816102bf01528181610820015281816108890152818161095401528181610a3001528181610a9c0152818161122401528181611787015281816117f10152818161187801528181611977015281816119fe0152611aba01526000818161015e0152818161038f01528181610cb50152818161157a01526115e701526130946000f3fe608060405234801561001057600080fd5b50600436106101545760003560e01c8063029eb76e1461015957806304afdded146101965780630c2a88bb146101a75780630d6a2033146101bc5780631e138f15146101de5780631f741c7a146101e757806326bbb2d1146101f05780632d91cca214610203578063301a370d1461020b578063304e2a061461021e57806333b4f36e146102345780634c3cf1c814610247578063646d72001461025c57806375999f2d1461027c5780638c935a6714610296578063970169771461029f5780639f623cf4146102a7578063ab2aba14146102ba578063ad755dc5146102e1578063bc3d4d33146102f4578063c2b6b58c146102fc578063c682360714610316578063cf1977d01461031e578063e655805b14610331578063eaabf66c14610339578063f0ea7e941461034b578063f60ca60d1461035e578063fc07b0a614610371575b600080fd5b6101807f000000000000000000000000000000000000000000000000000000000000000081565b60405161018d9190611cdb565b60405180910390f35b600a545b60405161018d9190611cef565b6101ba6101b5366004611d4e565b610384565b005b6101cf6101ca366004611dad565b610749565b60405161018d93929190611e44565b61019a60045481565b61019a60035481565b6101ba6101fe366004611e8c565b610815565b6101ba610949565b6101ba610219366004611d4e565b610a25565b610226610be2565b60405161018d929190611f0e565b6101ba610242366004611f41565b610caa565b61024f610d82565b60405161018d9190611fdb565b61026f61026a366004612036565b610e96565b60405161018d9190612071565b6002546102899060ff1681565b60405161018d91906120cb565b61019a60055481565b61024f6110b2565b61026f6102b5366004612036565b6111c0565b6101807f000000000000000000000000000000000000000000000000000000000000000081565b6101ba6102ef366004611d4e565b611219565b6101ba611538565b600b546103099060ff1681565b60405161018d91906120e1565b60015461019a565b6101ba61032c366004611d4e565b61156f565b61030961172d565b60025461030990610100900460ff1681565b6101ba6103593660046120ef565b61177c565b600054610180906001600160a01b031681565b6101ba61037f366004611dad565b611aaf565b336001600160a01b037f000000000000000000000000000000000000000000000000000000000000000016146103d55760405162461bcd60e51b81526004016103cc90612194565b60405180910390fd5b600b5460ff16156103f85760405162461bcd60e51b81526004016103cc906121fc565b60005b818110156107445760005b600154811015610731576105208484848181106104255761042561220c565b90506020028101906104379190612222565b8080601f016020809104026020016040519081016040528093929190818152602001838380828437600092019190915250506001805490925085915081106104815761048161220c565b9060005260206000209060030201600001805461049d90612296565b80601f01602080910402602001604051908101604052809291908181526020018280546104c990612296565b80156105165780601f106104eb57610100808354040283529160200191610516565b820191906000526020600020905b8154815290600101906020018083116104f957829003601f168201915b5050505050611ba2565b1561071f5760006001828154811061053a5761053a61220c565b9060005260206000209060030201600001805461055690612296565b80601f016020809104026020016040519081016040528092919081815260200182805461058290612296565b80156105cf5780601f106105a4576101008083540402835291602001916105cf565b820191906000526020600020905b8154815290600101906020018083116105b257829003601f168201915b505050505090506000600183815481106105eb576105eb61220c565b9060005260206000209060030201600201549050600180808054905061061191906122d3565b815481106106215761062161220c565b9060005260206000209060030201600184815481106106425761064261220c565b9060005260206000209060030201600082018160000190805461066490612296565b61066f929190611bb8565b5060018281015482820180546001600160a01b0319166001600160a01b0390921691909117905560029283015492909101919091558054806106b3576106b36122ea565b600082815260208120600019909201916003830201906106d38282611c43565b506001810180546001600160a01b03191690556000600290910155905560405160008051602061303f833981519152906107109084904290612300565b60405180910390a15050610731565b8061072981612320565b915050610406565b508061073c81612320565b9150506103fb565b505050565b6001818154811061075957600080fd5b906000526020600020906003020160009150905080600001805461077c90612296565b80601f01602080910402602001604051908101604052809291908181526020018280546107a890612296565b80156107f55780601f106107ca576101008083540402835291602001916107f5565b820191906000526020600020905b8154815290600101906020018083116107d857829003601f168201915b50505050600183015460029093015491926001600160a01b031691905083565b336001600160a01b037f0000000000000000000000000000000000000000000000000000000000000000161461085d5760405162461bcd60e51b81526004016103cc90612379565b600b5460ff1661087f5760405162461bcd60e51b81526004016103cc906123d1565b6001600160a01b037f0000000000000000000000000000000000000000000000000000000000000000166108b960408301602084016123f5565b6001600160a01b0316146108df5760405162461bcd60e51b81526004016103cc90612468565b8060076108ec8282612758565b506108f990508180612222565b604051610907929190612781565b60405180910390207fbd645c38518d9dbd0ff7c276fb1980290586bfdabe71a977a378a9a38c3886354260405161093e9190611cef565b60405180910390a250565b336001600160a01b037f000000000000000000000000000000000000000000000000000000000000000016146109915760405162461bcd60e51b81526004016103cc90612379565b600b5460ff16156109b45760405162461bcd60e51b81526004016103cc906121fc565b600254610100900460ff16156109dc5760405162461bcd60e51b81526004016103cc906127e0565b6002805461ff0019166101001790556040517f30a645864802fd37e5309659c8158196beab10384e11a79759958e918f57cd0990610a1b904290611cef565b60405180910390a1565b336001600160a01b037f00000000000000000000000000000000000000000000000000000000000000001614610a6d5760405162461bcd60e51b81526004016103cc90612379565b600b5460ff16610a8f5760405162461bcd60e51b81526004016103cc906123d1565b60005b81811015610744577f00000000000000000000000000000000000000000000000000000000000000006001600160a01b0316838383818110610ad657610ad661220c565b9050602002810190610ae891906127f0565b610af99060408101906020016123f5565b6001600160a01b031614610b1f5760405162461bcd60e51b81526004016103cc9061285a565b600a838383818110610b3357610b3361220c565b9050602002810190610b4591906127f0565b815460018101835560009283526020909220909160030201610b678282612758565b50507fe647898d33c06a0cd3c952bd040a0228849eb960d381b055e7c66dd2f136f142838383818110610b9c57610b9c61220c565b9050602002810190610bae91906127f0565b610bb89080612222565b42604051610bc893929190612889565b60405180910390a180610bda81612320565b915050610a92565b6006805460408051606081019091526007805492939282908290610c0590612296565b80601f0160208091040260200160405190810160405280929190818152602001828054610c3190612296565b8015610c7e5780601f10610c5357610100808354040283529160200191610c7e565b820191906000526020600020905b815481529060010190602001808311610c6157829003601f168201915b505050918352505060018201546001600160a01b03166020820152600290910154604090910152905082565b336001600160a01b037f00000000000000000000000000000000000000000000000000000000000000001614610cf25760405162461bcd60e51b81526004016103cc90612194565b600b5460ff1615610d155760405162461bcd60e51b81526004016103cc906121fc565b600554610d345760405162461bcd60e51b81526004016103cc906128f0565b8015610d465760058054600455600090555b7fedb2afa2cb6908ad551e4813020dfbde0ceec29862ad2bbdcad05b776f69f6848142604051610d77929190612900565b60405180910390a150565b60606001805480602002602001604051908101604052809291908181526020016000905b82821015610e8d5783829060005260206000209060030201604051806060016040529081600082018054610dd990612296565b80601f0160208091040260200160405190810160405280929190818152602001828054610e0590612296565b8015610e525780601f10610e2757610100808354040283529160200191610e52565b820191906000526020600020905b815481529060010190602001808311610e3557829003601f168201915b50505091835250506001828101546001600160a01b031660208084019190915260029093015460409092019190915291835292019101610da6565b50505050905090565b610e9e611c80565b60005b60015481101561109357610f9760018281548110610ec157610ec161220c565b90600052602060002090600302016000018054610edd90612296565b80601f0160208091040260200160405190810160405280929190818152602001828054610f0990612296565b8015610f565780601f10610f2b57610100808354040283529160200191610f56565b820191906000526020600020905b815481529060010190602001808311610f3957829003601f168201915b505050505085858080601f016020809104026020016040519081016040528093929190818152602001838380828437600092019190915250611ba292505050565b156110815760018181548110610faf57610faf61220c565b9060005260206000209060030201604051806060016040529081600082018054610fd890612296565b80601f016020809104026020016040519081016040528092919081815260200182805461100490612296565b80156110515780601f1061102657610100808354040283529160200191611051565b820191906000526020600020905b81548152906001019060200180831161103457829003601f168201915b505050918352505060018201546001600160a01b0316602082015260029091015460409091015291506110ac9050565b8061108b81612320565b915050610ea1565b5060405162461bcd60e51b81526004016103cc9061295d565b92915050565b60606006600401805480602002602001604051908101604052809291908181526020016000905b82821015610e8d578382906000526020600020906003020160405180606001604052908160008201805461110c90612296565b80601f016020809104026020016040519081016040528092919081815260200182805461113890612296565b80156111855780601f1061115a57610100808354040283529160200191611185565b820191906000526020600020905b81548152906001019060200180831161116857829003601f168201915b50505091835250506001828101546001600160a01b0316602080840191909152600290930154604090920191909152918352920191016110d9565b6111c8611c80565b60005b600a54811015611093576111ee60066004018281548110610ec157610ec161220c565b1561120757600a805482908110610faf57610faf61220c565b8061121181612320565b9150506111cb565b336001600160a01b037f000000000000000000000000000000000000000000000000000000000000000016146112615760405162461bcd60e51b81526004016103cc90612379565b600b5460ff166112835760405162461bcd60e51b81526004016103cc906123d1565b60005b818110156107445760005b600a548110156115255761130c8484848181106112b0576112b061220c565b90506020028101906112c29190612222565b8080601f01602080910402602001604051908101604052809392919081815260200183838082843760009201919091525050600a805490925085915081106104815761048161220c565b15611513576000600660040182815481106113295761132961220c565b9060005260206000209060030201600001805461134590612296565b80601f016020809104026020016040519081016040528092919081815260200182805461137190612296565b80156113be5780601f10611393576101008083540402835291602001916113be565b820191906000526020600020905b8154815290600101906020018083116113a157829003601f168201915b505050505090506000600660040183815481106113dd576113dd61220c565b6000918252602090912060026003909202010154600a805491925090611405906001906122d3565b815481106114155761141561220c565b9060005260206000209060030201600660040184815481106114395761143961220c565b9060005260206000209060030201600082018160000190805461145b90612296565b611466929190611bb8565b5060018281015490820180546001600160a01b0319166001600160a01b03909216919091179055600291820154910155600a8054806114a7576114a76122ea565b600082815260208120600019909201916003830201906114c78282611c43565b506001810180546001600160a01b03191690556000600290910155905560405160008051602061303f833981519152906115049084904290612300565b60405180910390a15050611525565b8061151d81612320565b915050611291565b508061153081612320565b915050611286565b6000546001600160a01b031633146115625760405162461bcd60e51b81526004016103cc906129a5565b6002805461ff0019169055565b336001600160a01b037f000000000000000000000000000000000000000000000000000000000000000016146115b75760405162461bcd60e51b81526004016103cc90612194565b600b5460ff16156115da5760405162461bcd60e51b81526004016103cc906121fc565b60005b81811015610744577f00000000000000000000000000000000000000000000000000000000000000006001600160a01b03168383838181106116215761162161220c565b905060200281019061163391906127f0565b6116449060408101906020016123f5565b6001600160a01b03161461166a5760405162461bcd60e51b81526004016103cc906129fe565b600183838381811061167e5761167e61220c565b905060200281019061169091906127f0565b8154600181018355600092835260209092209091600302016116b28282612758565b50507f701ba5028eb50d43b96f8c5fe59070c7f7eaca9966c214c10f9971c503d983848383838181106116e7576116e761220c565b90506020028101906116f991906127f0565b6117039080612222565b4260405161171393929190612889565b60405180910390a18061172581612320565b9150506115dd565b6000600454421115611776577f149f4e6f33dd9d8e01e7de869eb261f2e7aa57033be8e900565d2a76df6ab8b2426040516117689190611cef565b60405180910390a150600190565b50600090565b336001600160a01b037f000000000000000000000000000000000000000000000000000000000000000016146117c45760405162461bcd60e51b81526004016103cc90612379565b600b5460ff16156117e75760405162461bcd60e51b81526004016103cc906121fc565b6001600160a01b037f00000000000000000000000000000000000000000000000000000000000000001661181e60208401846127f0565b61182f9060408101906020016123f5565b6001600160a01b0316146118555760405162461bcd60e51b81526004016103cc90612a6a565b60005b6118656040840184612a7a565b9050811015611910576001600160a01b037f0000000000000000000000000000000000000000000000000000000000000000166118a56040850185612a7a565b838181106118b5576118b561220c565b90506020028101906118c791906127f0565b6118d89060408101906020016123f5565b6001600160a01b0316146118fe5760405162461bcd60e51b81526004016103cc90612b24565b8061190881612320565b915050611858565b5081600661191e8282612ec4565b505042600655600b805460ff19166001179055600060025460ff16600181111561194a5761194a612082565b146119d65760005460405163cc5b255b60e01b81526001600160a01b039091169063cc5b255b9061199f907f000000000000000000000000000000000000000000000000000000000000000090600401611cdb565b600060405180830381600087803b1580156119b957600080fd5b505af11580156119cd573d6000803e3d6000fd5b50505050611a5b565b600054604051630436e27b60e21b81526001600160a01b03909116906310db89ec90611a28907f0000000000000000000000000000000000000000000000000000000000000000908590600401612ece565b600060405180830381600087803b158015611a4257600080fd5b505af1158015611a56573d6000803e3d6000fd5b505050505b7f0ca29d4db1abbb1a72b6a95850391d05b6cefeb784a5e82d03cdcf5d0f58ebc4611a8960208401846127f0565b611a939080612222565b42604051611aa393929190612889565b60405180910390a15050565b336001600160a01b037f00000000000000000000000000000000000000000000000000000000000000001614611af75760405162461bcd60e51b81526004016103cc90612379565b600b5460ff1615611b1a5760405162461bcd60e51b81526004016103cc906121fc565b600454811015611b3c5760405162461bcd60e51b81526004016103cc90612f52565b600354611b4c90624f1a00612f62565b811115611b6b5760405162461bcd60e51b81526004016103cc90612fe0565b60058190556040517f9dffe71b2f41db9fb2e51c496974d7da184e8691b61780ae7801b6cb4757799390610d779083904290612ff0565b8051602091820120825192909101919091201490565b828054611bc490612296565b90600052602060002090601f016020900481019282611be65760008555611c33565b82601f10611bf75780548555611c33565b82800160010185558215611c3357600052602060002091601f016020900482015b82811115611c33578254825591600101919060010190611c18565b50611c3f929150611ca0565b5090565b508054611c4f90612296565b6000825580601f10611c5f575050565b601f016020900490600052602060002090810190611c7d9190611ca0565b50565b604080516060808201835281526000602082018190529181019190915290565b5b80821115611c3f5760008155600101611ca1565b6001600160a01b031690565b60006110ac82611cb5565b611cd581611cc1565b82525050565b602081016110ac8284611ccc565b80611cd5565b602081016110ac8284611ce9565b60008083601f840112611d1257611d12600080fd5b5081356001600160401b03811115611d2c57611d2c600080fd5b602083019150836020820283011115611d4757611d47600080fd5b9250929050565b60008060208385031215611d6457611d64600080fd5b82356001600160401b03811115611d7d57611d7d600080fd5b611d8985828601611cfd565b92509250509250929050565b805b8114611c7d57600080fd5b80356110ac81611d95565b600060208284031215611dc257611dc2600080fd5b6000611dce8484611da2565b949350505050565b60005b83811015611df1578181015183820152602001611dd9565b83811115611e00576000848401525b50505050565b601f01601f191690565b6000611e1a825190565b808452602084019350611e31818560208601611dd6565b611e3a81611e06565b9093019392505050565b60608082528101611e558186611e10565b9050611e646020830185611ccc565b611dce6040830184611ce9565b600060608284031215611e8657611e86600080fd5b50919050565b600060208284031215611ea157611ea1600080fd5b81356001600160401b03811115611eba57611eba600080fd5b611dce84828501611e71565b8051606080845260009190840190611ede8282611e10565b9150506020830151611ef36020860182611ccc565b506040830151611f066040860182611ce9565b509392505050565b60408101611f1c8285611ce9565b8181036020830152611dce8184611ec6565b801515611d97565b80356110ac81611f2e565b600060208284031215611f5657611f56600080fd5b6000611dce8484611f36565b6000611f6e8383611ec6565b9392505050565b6000611f7f825190565b80845260208401935083602082028501611f998560200190565b8060005b85811015611fce5784840389528151611fb68582611f62565b94506020830160209a909a0199925050600101611f9d565b5091979650505050505050565b60208082528101611f6e8184611f75565b60008083601f84011261200157612001600080fd5b5081356001600160401b0381111561201b5761201b600080fd5b602083019150836001820283011115611d4757611d47600080fd5b6000806020838503121561204c5761204c600080fd5b82356001600160401b0381111561206557612065600080fd5b611d8985828601611fec565b60208082528101611f6e8184611ec6565b634e487b7160e01b600052602160045260246000fd5b60028110611c7d57611c7d612082565b806120b281612098565b919050565b60006110ac826120a8565b611cd5816120b7565b602081016110ac82846120c2565b801515611cd5565b602081016110ac82846120d9565b6000806040838503121561210557612105600080fd5b82356001600160401b0381111561211e5761211e600080fd5b61212a85828601611e71565b925050602061213b85828601611f36565b9150509250929050565b602f81526000602082017f4f6e6c79207468652070726f6a656374206d616e616765722063616e2063616c81526e36103a3434b990333ab731ba34b7b760891b602082015291505b5060400190565b602080825281016110ac81612145565b6044815260006020820160008051602061301f83398151915281527f207768656e206173736573736d656e74206861736e27742066696e7369686564602082015263081e595d60e21b604082015291505b5060600190565b602080825281016110ac816121a4565b634e487b7160e01b600052603260045260246000fd5b6000808335601e193685900301811261223d5761223d600080fd5b8084019250823591506001600160401b0382111561225d5761225d600080fd5b60208301925060018202360383131561227857612278600080fd5b509250929050565b634e487b7160e01b600052602260045260246000fd5b6002810460018216806122aa57607f821691505b60208210811415611e8657611e86612280565b634e487b7160e01b600052601160045260246000fd5b6000828210156122e5576122e56122bd565b500390565b634e487b7160e01b600052603160045260246000fd5b604080825281016123118185611e10565b9050611f6e6020830184611ce9565b6000600019821415612334576123346122bd565b5060010190565b60338152600060208201600080516020612fff8339815191528152721031b0b636103a3434b990333ab731ba34b7b760691b6020820152915061218d565b602080825281016110ac8161233b565b603d815260006020820160008051602061301f83398151915281527f207768656e206173736573736d656e74206861732066696e73696865640000006020820152915061218d565b602080825281016110ac81612389565b611d9781611cc1565b80356110ac816123e1565b60006020828403121561240a5761240a600080fd5b6000611dce84846123ea565b603581526000602082017f4f6e6c79207468652070726f6a656374206d616e616765722063616e20757064815274185d19481d1a19481b585a5b88191bd8dd5b595b9d605a1b6020820152915061218d565b602080825281016110ac81612416565b634e487b7160e01b600052600060045260246000fd5b634e487b7160e01b600052604160045260246000fd5b60009081526020902090565b60006110ac6124bc8381565b90565b6124c8836124b0565b6124e6815b83546008860291821b60001990921b9182169119161790565b825550505050565b60006107448184846124bf565b818110156125165761250e6000826124ee565b6001016124fb565b5050565b601f8211156107445761252c816124a4565b6020601f850104810160208510156125415750805b6125536020601f8601048301826124fb565b5050505050565b6000196008929092029190911c191690565b6000612578838361255a565b600290930290921792915050565b826001600160401b0381111561259e5761259e61248e565b6125a88254612296565b6125b382828561251a565b6000601f8311600181146125e157600084156125cf5750858201355b6125d9858261256c565b86555061263c565b601f1984166125ef866124a4565b60005b8281101561261257888501358255602094850194600190920191016125f2565b8683101561262f578489013561262b601f89168261255a565b8355505b6001600288020188555050505b50505050505050565b610744838383612586565b600081356110ac816123e1565b60006001600160a01b03835b81169019929092169190911792915050565b60006110ac61268c6124bc84611cb5565b611cb5565b60006110ac8261267b565b60006110ac82612691565b6126b08261269c565b6126bb81835461265d565b8255505050565b600081356110ac81611d95565b600060001983612669565b6000816110ac565b6126eb826126da565b6126bb6126f7826126da565b83546126cf565b808261270a8180612222565b612715818386612645565b5050505060018101602083018061272b81612650565b905061273781846126a7565b50505060028101604083018061274c816126c2565b905061255381846126e2565b61251682826126fe565b82818337506000910152565b600061277b838584612762565b50500190565b6000611dce82848661276e565b603581526000602082017f4d61696e20646f63756d656e74207570646174652064656d616e642068617320815274185b1c9958591e481899595b881c9958da595d9959605a1b6020820152915061218d565b602080825281016110ac8161278e565b60008235605e193684900301811261280a5761280a600080fd5b9190910192915050565b603b8152600060208201600080516020612fff83398151915281527a20616464206173736573736d656e74206174746163686d656e747360281b6020820152915061218d565b602080825281016110ac81612814565b8183526000602084019350612880838584612762565b611e3a83611e06565b6040808252810161289b81858761286a565b9050611dce6020830184611ce9565b602981526000602082017f447565206461746520657874656e73696f6e20686173206e6f74206265656e208152681c995c5d595cdd195960ba1b6020820152915061218d565b602080825281016110ac816128aa565b6040810161290e82856120d9565b611f6e6020830184611ce9565b602581526000602082017f4174746163686d656e7420776974682070726f7669646564204944206e6f7420815264199bdd5b9960da1b6020820152915061218d565b602080825281016110ac8161291b565b602d815260006020820160008051602061301f83398151915281526c08199c9bdb481c1c9bda9958dd609a1b6020820152915061218d565b602080825281016110ac8161296d565b602c81526000602082017f4f6e6c79207468652070726f6a656374206d616e616765722063616e2061646481526b206174746163686d656e747360a01b6020820152915061218d565b602080825281016110ac816129b5565b604b8152600060208201600080516020612fff83398151915281527f2070726f7669646520746865206d61696e20646f63756d656e74206f6620616e60208201526a08185cdcd95cdcdb595b9d60aa1b604082015291506121f5565b602080825281016110ac81612a0e565b6000808335601e1936859003018112612a9557612a95600080fd5b8084019250823591506001600160401b03821115612ab557612ab5600080fd5b6020928301928202360383131561227857612278600080fd5b60458152600060208201600080516020612fff83398151915281527f2070726f76696465206174746163686d656e7473206f6620616e2061737365736020820152641cdb595b9d60da1b604082015291506121f5565b602080825281016110ac81612ace565b612b3d826124b0565b6126bb816126f7565b6000816000190483118215151615612b6057612b606122bd565b500290565b806110ac816003612b46565b612b82600019836020036008021c90565b815416905550565b612b93816124a4565b612b9e83825461256c565b9091556000905550565b602084108015612bff57601f841160018114612bcf57612bc8868561256c565b8355612bf9565b612bd8836124a4565b612bed6020601f8801048201600183016124fb565b612bf78785612b8a565b505b50612553565b612c08826124a4565b6020601f8701048101601f87168015612c2857612c288160018403612b71565b612c3a6020601f8901048401836124fb565b6001886002021785555050505050505050565b600160401b841115612c6157612c6161248e565b602083108015612ca057602085108015612c7f57612bc8868561256c565b60ff199093169283612c90846124a4565b5560018660020201835550612553565b6001856002020182555050505050565b8054612cbb81612296565b80841115612ccf57612ccf84828486612c4d565b80841015611e0057611e0084828486612ba8565b8181101561251657612cf66000826124ee565b600101612ce3565b611c7d600082612cb0565b8115612d1757612d17612478565b61251681612cfe565b612d29836126da565b6124e66124cd826126da565b6000610744818484612d20565b612d4d600082612d09565b60006001820155611c7d600060028301612d35565b8115612d7057612d70612478565b61251681612d42565b8181101561251657612d8c600082612d62565b600301612d79565b8183101561074457612da582612b65565b612dae84612b65565b612db7836124a4565b818101838201612dc78183612d79565b5050505050505050565b600160401b821115612de557612de561248e565b8054828255610744838284612d94565b8115612e0357612e03612478565b61074483826126fe565b82612e188183612dd1565b82612e22836124a4565b6000805b84811015612dc757612e3884886127f0565b612e43818486612df5565b506020939093019260039290920191600101612e26565b610744838383612e0d565b808280612e71816126c2565b9050612e7d8184612b34565b5050506001810160208301612e9281856127f0565b612e9c8184612758565b5050506004810160408301612eb18185612a7a565b612ebc818386612e5a565b505050505050565b6125168282612e65565b60408101612edc8285611ccc565b611f6e60208301846120d9565b604681526000602082017f5265717565737465642064756520646174652068617320746f206265206c617481527f657220696e2074686520667574757265207468616e2063757272656e7420647560208201526565206461746560d01b604082015291506121f5565b602080825281016110ac81612ee9565b60008219821115612f7557612f756122bd565b500190565b604381526000602082017f5265717565737465642064756520646174652068617320746f20626520736f6f81527f6e6572207468616e2064617465206f66206372656174696f6e202b203630206460208201526261797360e81b604082015291506121f5565b602080825281016110ac81612f7a565b6040810161290e8285611ce956fe4f6e6c7920746865206173736573736d656e742070726f76696465722063616e546869732066756e6374696f6e2063616e206f6e6c792062652063616c6c65645013cb14fd8cc8745beb9bbf4d104d7cbab0afe81b0073a58ce6b82e1a2ed9e8a2646970667358221220877c67b5bfefef202810e49c4483050e35b959f1bccc6b3017765890dfd7a7c664736f6c63430008090033546869732066756e6374696f6e2063616e6e6f742062652063616c6c65642061726f6a656374206d616e61676572206f6620746869732070726f6a6563740000416464726573736564206173736573736d656e742070726f766964657220686154686973206173736573736d656e742070726f76696465722068617320616c72a2646970667358221220f26c20ade5b05633e99fff57893fe2fa778b185db108103db6f20190c0c42c1b64736f6c63430008090033",
  "linkReferences": {},
  "deployedLinkReferences": {}
}