{
  "_format": "hh-sol-artifact-1",
  "contractName": "Project",
  "sourceName": "contracts/Project.sol",
  "abi": [
    {
      "inputs": [],
      "stateMutability": "nonpayable",
      "type": "constructor"
    },
    {
      "anonymous": false,
      "inputs": [
        {
          "indexed": false,
          "internalType": "address",
          "name": "_administrativeAuthority",
          "type": "address"
        }
      ],
      "name": "AdministrativeAuthorityRemoved",
      "type": "event"
    },
    {
      "anonymous": false,
      "inputs": [
        {
          "indexed": false,
          "internalType": "address",
          "name": "_administrativeAuthority",
          "type": "address"
        }
      ],
      "name": "AdministrativeAuthoritySet",
      "type": "event"
    },
    {
      "anonymous": false,
      "inputs": [
        {
          "indexed": true,
          "internalType": "address",
          "name": "_address",
          "type": "address"
        }
      ],
      "name": "AssessmentProviderAdded",
      "type": "event"
    },
    {
      "anonymous": false,
      "inputs": [
        {
          "indexed": true,
          "internalType": "address",
          "name": "_address",
          "type": "address"
        }
      ],
      "name": "AssessmentProviderRemoved",
      "type": "event"
    },
    {
      "anonymous": false,
      "inputs": [
        {
          "indexed": false,
          "internalType": "address",
          "name": "_address",
          "type": "address"
        }
      ],
      "name": "BuildingPermitContractCreated",
      "type": "event"
    },
    {
      "anonymous": false,
      "inputs": [
        {
          "indexed": false,
          "internalType": "address",
          "name": "_address",
          "type": "address"
        }
      ],
      "name": "DGDsent",
      "type": "event"
    },
    {
      "anonymous": false,
      "inputs": [
        {
          "indexed": false,
          "internalType": "uint256",
          "name": "timestamp",
          "type": "uint256"
        },
        {
          "indexed": false,
          "internalType": "bytes32",
          "name": "documentHash",
          "type": "bytes32"
        }
      ],
      "name": "DGDset",
      "type": "event"
    },
    {
      "anonymous": false,
      "inputs": [
        {
          "indexed": false,
          "internalType": "address",
          "name": "_address",
          "type": "address"
        }
      ],
      "name": "DPPsent",
      "type": "event"
    },
    {
      "anonymous": false,
      "inputs": [
        {
          "indexed": false,
          "internalType": "uint256",
          "name": "timestamp",
          "type": "uint256"
        },
        {
          "indexed": false,
          "internalType": "bytes32",
          "name": "documentHash",
          "type": "bytes32"
        }
      ],
      "name": "DPPset",
      "type": "event"
    },
    {
      "anonymous": false,
      "inputs": [],
      "name": "allDGDsAssessed",
      "type": "event"
    },
    {
      "anonymous": false,
      "inputs": [],
      "name": "allDPPsAssessed",
      "type": "event"
    },
    {
      "inputs": [],
      "name": "DGD",
      "outputs": [
        {
          "internalType": "string",
          "name": "id",
          "type": "string"
        },
        {
          "internalType": "address",
          "name": "owner",
          "type": "address"
        },
        {
          "internalType": "bytes32",
          "name": "documentHash",
          "type": "bytes32"
        }
      ],
      "stateMutability": "view",
      "type": "function"
    },
    {
      "inputs": [],
      "name": "DPP",
      "outputs": [
        {
          "internalType": "string",
          "name": "id",
          "type": "string"
        },
        {
          "internalType": "address",
          "name": "owner",
          "type": "address"
        },
        {
          "internalType": "bytes32",
          "name": "documentHash",
          "type": "bytes32"
        }
      ],
      "stateMutability": "view",
      "type": "function"
    },
    {
      "inputs": [
        {
          "internalType": "address[]",
          "name": "_assessmentProviders",
          "type": "address[]"
        }
      ],
      "name": "addAssessmentProviders",
      "outputs": [],
      "stateMutability": "nonpayable",
      "type": "function"
    },
    {
      "inputs": [],
      "name": "administrativeAuthority",
      "outputs": [
        {
          "internalType": "address",
          "name": "",
          "type": "address"
        }
      ],
      "stateMutability": "view",
      "type": "function"
    },
    {
      "inputs": [
        {
          "internalType": "address",
          "name": "assessmentProvider",
          "type": "address"
        }
      ],
      "name": "assessDGD",
      "outputs": [],
      "stateMutability": "nonpayable",
      "type": "function"
    },
    {
      "inputs": [
        {
          "internalType": "address",
          "name": "assessmentProvider",
          "type": "address"
        },
        {
          "internalType": "bool",
          "name": "requiresAssessment",
          "type": "bool"
        }
      ],
      "name": "assessDPP",
      "outputs": [],
      "stateMutability": "nonpayable",
      "type": "function"
    },
    {
      "inputs": [
        {
          "internalType": "address",
          "name": "",
          "type": "address"
        }
      ],
      "name": "assessmentProviders",
      "outputs": [
        {
          "internalType": "bool",
          "name": "exists",
          "type": "bool"
        },
        {
          "internalType": "bool",
          "name": "hasReceivedDPP",
          "type": "bool"
        },
        {
          "internalType": "address",
          "name": "receivedDPPAddress",
          "type": "address"
        },
        {
          "internalType": "bool",
          "name": "hasAssessedDPP",
          "type": "bool"
        },
        {
          "internalType": "bool",
          "name": "hasReceivedDGD",
          "type": "bool"
        },
        {
          "internalType": "address",
          "name": "receivedDGDAddress",
          "type": "address"
        },
        {
          "internalType": "bool",
          "name": "hasAssessedDGD",
          "type": "bool"
        }
      ],
      "stateMutability": "view",
      "type": "function"
    },
    {
      "inputs": [
        {
          "internalType": "uint256",
          "name": "",
          "type": "uint256"
        }
      ],
      "name": "assessmentProvidersAddresses",
      "outputs": [
        {
          "internalType": "address",
          "name": "",
          "type": "address"
        }
      ],
      "stateMutability": "view",
      "type": "function"
    },
    {
      "inputs": [],
      "name": "buildingPermitContract",
      "outputs": [
        {
          "internalType": "contract BuildingPermitContract",
          "name": "",
          "type": "address"
        }
      ],
      "stateMutability": "view",
      "type": "function"
    },
    {
      "inputs": [
        {
          "internalType": "address",
          "name": "_administrativeAuthority",
          "type": "address"
        }
      ],
      "name": "changeAdministrativeAuthority",
      "outputs": [],
      "stateMutability": "nonpayable",
      "type": "function"
    },
    {
      "inputs": [],
      "name": "getAssessmentProvidersAddresses",
      "outputs": [
        {
          "internalType": "address[]",
          "name": "",
          "type": "address[]"
        }
      ],
      "stateMutability": "view",
      "type": "function"
    },
    {
      "inputs": [],
      "name": "getSentDGDsAddresses",
      "outputs": [
        {
          "internalType": "contract DocumentContract[]",
          "name": "",
          "type": "address[]"
        }
      ],
      "stateMutability": "view",
      "type": "function"
    },
    {
      "inputs": [],
      "name": "getSentDGDsLength",
      "outputs": [
        {
          "internalType": "uint256",
          "name": "",
          "type": "uint256"
        }
      ],
      "stateMutability": "view",
      "type": "function"
    },
    {
      "inputs": [],
      "name": "getSentDPPs",
      "outputs": [
        {
          "internalType": "contract DocumentContract[]",
          "name": "",
          "type": "address[]"
        }
      ],
      "stateMutability": "view",
      "type": "function"
    },
    {
      "inputs": [],
      "name": "getSentDPPsAddresses",
      "outputs": [
        {
          "internalType": "contract DocumentContract[]",
          "name": "",
          "type": "address[]"
        }
      ],
      "stateMutability": "view",
      "type": "function"
    },
    {
      "inputs": [],
      "name": "getSentDPPsLength",
      "outputs": [
        {
          "internalType": "uint256",
          "name": "",
          "type": "uint256"
        }
      ],
      "stateMutability": "view",
      "type": "function"
    },
    {
      "inputs": [],
      "name": "isClosed",
      "outputs": [
        {
          "internalType": "bool",
          "name": "",
          "type": "bool"
        }
      ],
      "stateMutability": "view",
      "type": "function"
    },
    {
      "inputs": [],
      "name": "numOfAssessedDGDs",
      "outputs": [
        {
          "internalType": "uint256",
          "name": "",
          "type": "uint256"
        }
      ],
      "stateMutability": "view",
      "type": "function"
    },
    {
      "inputs": [],
      "name": "numOfAssessedDPPs",
      "outputs": [
        {
          "internalType": "uint256",
          "name": "",
          "type": "uint256"
        }
      ],
      "stateMutability": "view",
      "type": "function"
    },
    {
      "inputs": [],
      "name": "numOfAssessmentProviders",
      "outputs": [
        {
          "internalType": "uint256",
          "name": "",
          "type": "uint256"
        }
      ],
      "stateMutability": "view",
      "type": "function"
    },
    {
      "inputs": [],
      "name": "projectManager",
      "outputs": [
        {
          "internalType": "address",
          "name": "",
          "type": "address"
        }
      ],
      "stateMutability": "view",
      "type": "function"
    },
    {
      "inputs": [],
      "name": "removeAdministrativeAuthority",
      "outputs": [],
      "stateMutability": "nonpayable",
      "type": "function"
    },
    {
      "inputs": [
        {
          "internalType": "address[]",
          "name": "_assessmentProviders",
          "type": "address[]"
        }
      ],
      "name": "removeAssessmentProviders",
      "outputs": [],
      "stateMutability": "nonpayable",
      "type": "function"
    },
    {
      "inputs": [
        {
          "components": [
            {
              "internalType": "address",
              "name": "assessmentProvider",
              "type": "address"
            },
            {
              "components": [
                {
                  "internalType": "string",
                  "name": "id",
                  "type": "string"
                },
                {
                  "internalType": "address",
                  "name": "owner",
                  "type": "address"
                },
                {
                  "internalType": "bytes32",
                  "name": "documentHash",
                  "type": "bytes32"
                }
              ],
              "internalType": "struct Document[]",
              "name": "attachments",
              "type": "tuple[]"
            }
          ],
          "internalType": "struct Project.DocumentContractStruct[]",
          "name": "_sentDGDs",
          "type": "tuple[]"
        }
      ],
      "name": "sendDGD",
      "outputs": [],
      "stateMutability": "nonpayable",
      "type": "function"
    },
    {
      "inputs": [
        {
          "components": [
            {
              "internalType": "address",
              "name": "assessmentProvider",
              "type": "address"
            },
            {
              "components": [
                {
                  "internalType": "string",
                  "name": "id",
                  "type": "string"
                },
                {
                  "internalType": "address",
                  "name": "owner",
                  "type": "address"
                },
                {
                  "internalType": "bytes32",
                  "name": "documentHash",
                  "type": "bytes32"
                }
              ],
              "internalType": "struct Document[]",
              "name": "attachments",
              "type": "tuple[]"
            }
          ],
          "internalType": "struct Project.DocumentContractStruct[]",
          "name": "_sentDPPs",
          "type": "tuple[]"
        }
      ],
      "name": "sendDPP",
      "outputs": [],
      "stateMutability": "nonpayable",
      "type": "function"
    },
    {
      "inputs": [
        {
          "internalType": "uint256",
          "name": "",
          "type": "uint256"
        }
      ],
      "name": "sentDGDs",
      "outputs": [
        {
          "internalType": "contract DocumentContract",
          "name": "",
          "type": "address"
        }
      ],
      "stateMutability": "view",
      "type": "function"
    },
    {
      "inputs": [
        {
          "internalType": "uint256",
          "name": "",
          "type": "uint256"
        }
      ],
      "name": "sentDPPs",
      "outputs": [
        {
          "internalType": "contract DocumentContract",
          "name": "",
          "type": "address"
        }
      ],
      "stateMutability": "view",
      "type": "function"
    },
    {
      "inputs": [
        {
          "internalType": "address",
          "name": "_administrativeAuthority",
          "type": "address"
        }
      ],
      "name": "setAdministrativeAuthority",
      "outputs": [],
      "stateMutability": "nonpayable",
      "type": "function"
    },
    {
      "inputs": [
        {
          "components": [
            {
              "internalType": "string",
              "name": "id",
              "type": "string"
            },
            {
              "internalType": "address",
              "name": "owner",
              "type": "address"
            },
            {
              "internalType": "bytes32",
              "name": "documentHash",
              "type": "bytes32"
            }
          ],
          "internalType": "struct Document",
          "name": "_DGD",
          "type": "tuple"
        }
      ],
      "name": "setDGD",
      "outputs": [],
      "stateMutability": "nonpayable",
      "type": "function"
    },
    {
      "inputs": [
        {
          "components": [
            {
              "internalType": "string",
              "name": "id",
              "type": "string"
            },
            {
              "internalType": "address",
              "name": "owner",
              "type": "address"
            },
            {
              "internalType": "bytes32",
              "name": "documentHash",
              "type": "bytes32"
            }
          ],
          "internalType": "struct Document",
          "name": "_DPP",
          "type": "tuple"
        }
      ],
      "name": "setDPP",
      "outputs": [],
      "stateMutability": "nonpayable",
      "type": "function"
    }
  ],
  "bytecode": "0x60a060405234801561001057600080fd5b5033608052608051616ac561008b60003960008181610195015281816106e6015281816107750152818161091601528181610b8401528181610caa01528181610d8201528181611092015281816113740152818161140a015281816116df01528181611758015281816118920152611a520152616ac56000f3fe60806040523480156200001157600080fd5b50600436106200018a5760003560e01c8063029eb76e146200018f57806310db89ec14620001cf57806313d6d68514620001e857806314b7c68414620002015780631532d3a7146200021c5780631e9316001462000230578063441f99b714620002475780634dc3b41f14620001e85780635033565c146200025e5780635a408ff5146200027557806361031cdc146200029857806372e5d57014620002af5780637f272da4146200032d5780637f7ad9a0146200033757806380f7f29d146200034e57806382fa96ed146200036757806397a70d3e146200037e57806398964a671462000395578063ac6ac51414620003ae578063aec3ee8014620003b7578063af2341e014620003ce578063c2b6b58c14620003d8578063cc5b255b14620003fc578063cd9b8fec1462000413578063d2e30339146200041c578063dd6149c41462000433578063e112b240146200043d578063e327f4f91462000447578063e461cadb146200045e578063f2c944c21462000468575b600080fd5b620001b77f000000000000000000000000000000000000000000000000000000000000000081565b604051620001c6919062001f6e565b60405180910390f35b620001e6620001e036600462001fb8565b6200047f565b005b620001f2620005c7565b604051620001c69190620020a2565b6200020b6200062b565b604051620001c69392919062002139565b600354620001b7906001600160a01b031681565b620001e66200024136600462002174565b620006db565b620001e662000258366004620021f0565b6200076a565b620001e66200026f36600462002174565b62000b79565b600e5462000289906001600160a01b031681565b604051620001c691906200223d565b62000289620002a936600462002261565b62000c74565b62000318620002c036600462002174565b6000602081905290815260409020805460019091015460ff8083169261010081048216926001600160a01b03620100008304811693600160b01b8404811693600160b81b900481169291821691600160a01b90041687565b604051620001c697969594939291906200228f565b620001e662000c9f565b620002896200034836600462002261565b62000d66565b6200035860025481565b604051620001c6919062002305565b620001e662000378366004620021f0565b62000d77565b620001e66200038f366004620021f0565b62001087565b6200039f62001307565b604051620001c6919062002366565b600c5462000358565b620001e6620003c836600462002396565b62001369565b62000358600d5481565b600e54620003ed90600160a01b900460ff1681565b604051620001c69190620023d6565b620001e66200040d36600462002174565b62001539565b60075462000358565b620001b76200042d36600462002261565b62001650565b620001f262001661565b6200020b620016c3565b620001e66200045836600462002396565b620016d4565b6200035860085481565b620001e662000479366004620021f0565b62001887565b60025415620004b75760025460085410620004b75760405162461bcd60e51b8152600401620004ae906200243f565b60405180910390fd5b6001600160a01b0382166000908152602081905260409020805460ff191660011790819055600160b01b900460ff1615620005065760405162461bcd60e51b8152600401620004ae9062002498565b6001600160a01b0382166000908152602081905260408120805460ff60b01b1916600160b01b17905560088054916200053f83620024c0565b9190505550806200058c576001600160a01b0382166000908152602081905260408120600101805460ff60a01b1916600160a01b179055600d8054916200058683620024c0565b91905055505b6002546008541415620005c3576040517f3e563f24c9644b9dc23d61e5f4c86b61c57b6f1f96567636840a73d86df3c9e990600090a15b5050565b606060078054806020026020016040519081016040528092919081815260200182805480156200062157602002820191906000526020600020905b81546001600160a01b0316815260019091019060200180831162000602575b5050505050905090565b6009805481906200063c90620024f4565b80601f01602080910402602001604051908101604052809291908181526020018280546200066a90620024f4565b8015620006bb5780601f106200068f57610100808354040283529160200191620006bb565b820191906000526020600020905b8154815290600101906020018083116200069d57829003601f168201915b50505050600183015460029093015491926001600160a01b031691905083565b336001600160a01b037f00000000000000000000000000000000000000000000000000000000000000001614620007265760405162461bcd60e51b8152600401620004ae906200256c565b600e546001600160a01b031615620007525760405162461bcd60e51b8152600401620004ae90620025dc565b6200075c62000c9f565b620007678162000b79565b50565b336001600160a01b037f00000000000000000000000000000000000000000000000000000000000000001614620007b55760405162461bcd60e51b8152600401620004ae906200256c565b60025415620007e45760025460085410620007e45760405162461bcd60e51b8152600401620004ae906200243f565b6005546001600160a01b03166200080f5760405162461bcd60e51b8152600401620004ae906200263c565b60005b8181101562000b74576000808484848181106200083357620008336200264e565b905060200281019062000847919062002664565b6200085790602081019062002174565b6001600160a01b0316815260208101919091526040016000205460ff16620008935760405162461bcd60e51b8152600401620004ae90620026cf565b600080848484818110620008ab57620008ab6200264e565b9050602002810190620008bf919062002664565b620008cf90602081019062002174565b6001600160a01b03168152602081019190915260400160002054610100900460ff1615620009115760405162461bcd60e51b8152600401620004ae9062002726565b6000307f00000000000000000000000000000000000000000000000000000000000000008585858181106200094a576200094a6200264e565b90506020028101906200095e919062002664565b6200096e90602081019062002174565b8686868181106200098357620009836200264e565b905060200281019062000997919062002664565b620009a790602081019062002738565b6000604051620009b79062001f30565b620009c89695949392919062002997565b604051809103906000f080158015620009e5573d6000803e3d6000fd5b50600780546001808201835560009283527fa66cc928b5edb82af9bd49922954155ab7b0942694bea4ce44661d9a8736c68890910180546001600160a01b0319166001600160a01b0385161790559192508086868681811062000a4c5762000a4c6200264e565b905060200281019062000a60919062002664565b62000a7090602081019062002174565b6001600160a01b031681526020810191909152604001600090812080549215156101000261ff00199093169290921790915581908086868681811062000aba5762000aba6200264e565b905060200281019062000ace919062002664565b62000ade90602081019062002174565b6001600160a01b03166001600160a01b0316815260200190815260200160002060000160026101000a8154816001600160a01b0302191690836001600160a01b031602179055507f15e4602932bb285f36c8f3fc18bf650580e22f231038acd697790c8cf8d4c2a58160405162000b56919062001f6e565b60405180910390a1508062000b6b81620024c0565b91505062000812565b505050565b336001600160a01b037f0000000000000000000000000000000000000000000000000000000000000000161462000bc45760405162461bcd60e51b8152600401620004ae906200256c565b600e546001600160a01b03161562000bf05760405162461bcd60e51b8152600401620004ae90620025dc565b6003546001600160a01b03161562000c1c5760405162461bcd60e51b8152600401620004ae9062002a41565b600380546001600160a01b0319166001600160a01b0383161790556040517f03e590bcaa37b2a0a9412daf1f86b3f9df78091debbf6aab01cbc6af3cdf24bd9062000c6990839062001f6e565b60405180910390a150565b6007818154811062000c8557600080fd5b6000918252602090912001546001600160a01b0316905081565b336001600160a01b037f0000000000000000000000000000000000000000000000000000000000000000161462000cea5760405162461bcd60e51b8152600401620004ae906200256c565b600e546001600160a01b03161562000d165760405162461bcd60e51b8152600401620004ae90620025dc565b600380546001600160a01b031981169091556040516001600160a01b03909116907f3e34e9e0c2c685d61c6debedd4f955a5c3cbbd81b783083cf14a0a53c5af68549062000c6990839062001f6e565b600c818154811062000c8557600080fd5b336001600160a01b037f0000000000000000000000000000000000000000000000000000000000000000161462000dc25760405162461bcd60e51b8152600401620004ae906200256c565b6002541562000df1576002546008541062000df15760405162461bcd60e51b8152600401620004ae906200243f565b60005b8181101562000b745760008084848481811062000e155762000e156200264e565b905060200201602081019062000e2c919062002174565b6001600160a01b0316815260208101919091526040016000205460ff161562000e695760405162461bcd60e51b8152600401620004ae9062002aba565b6040805160e08101825260018152600060208201819052918101829052606081018290526080810182905260a0810182905260c08101829052908085858581811062000eb95762000eb96200264e565b905060200201602081019062000ed0919062002174565b6001600160a01b0390811682526020808301939093526040918201600020845181549486015193860151606087015160808801511515600160b81b0260ff60b81b19911515600160b01b0260ff60b01b1993871662010000029390931662010000600160b81b03199715156101000261ff00199515159590951661ffff1990991698909817939093179590951695909517949094179290921692909217815560a08301516001918201805460c0909501511515600160a01b026001600160a81b0319909516919093161792909217905583838381811062000fb55762000fb56200264e565b905060200201602081019062000fcc919062002174565b81546001810183556000928352602083200180546001600160a01b0319166001600160a01b039290921691909117905560028054916200100c83620024c0565b91905055508282828181106200102657620010266200264e565b90506020020160208101906200103d919062002174565b6001600160a01b03167f44dda8c828dbe700dbd6ac7c735b8cf1dc6f757064ae14ba0beda514b216664f60405160405180910390a2806200107e81620024c0565b91505062000df4565b336001600160a01b037f00000000000000000000000000000000000000000000000000000000000000001614620010d25760405162461bcd60e51b8152600401620004ae906200256c565b60025415620011015760025460085410620011015760405162461bcd60e51b8152600401620004ae906200243f565b60005b8181101562000b74576000808484848181106200112557620011256200264e565b90506020020160208101906200113c919062002174565b6001600160a01b0316815260208101919091526040016000205460ff16620011785760405162461bcd60e51b8152600401620004ae9062002b17565b6000808484848181106200119057620011906200264e565b9050602002016020810190620011a7919062002174565b6001600160a01b03168152602081019190915260400160002054600160b01b900460ff1615620011eb5760405162461bcd60e51b8152600401620004ae9062002b90565b60008060008585858181106200120557620012056200264e565b90506020020160208101906200121c919062002174565b6001600160a01b031681526020810191909152604001600020805460ff19169115159190911790556200127a8383838181106200125d576200125d6200264e565b905060200201602081019062001274919062002174565b62001cb4565b600280549060006200128c8362002ba2565b9190505550828282818110620012a657620012a66200264e565b9050602002016020810190620012bd919062002174565b6001600160a01b03167f1486deecfc68453ad9bdc19e222197aa447ff3a4f2866951adbd7b593be8347b60405160405180910390a280620012fe81620024c0565b91505062001104565b6060600180548060200260200160405190810160405280929190818152602001828054801562000621576020028201919060005260206000209081546001600160a01b0316815260019091019060200180831162000602575050505050905090565b336001600160a01b037f00000000000000000000000000000000000000000000000000000000000000001614620013b45760405162461bcd60e51b8152600401620004ae906200256c565b60025460085414620013da5760405162461bcd60e51b8152600401620004ae9062002c21565b600254600d5410620014005760405162461bcd60e51b8152600401620004ae9062002c8a565b6001600160a01b037f0000000000000000000000000000000000000000000000000000000000000000166200143c604083016020840162002174565b6001600160a01b031614620014655760405162461bcd60e51b8152600401620004ae9062002ce6565b80600962001474828262003017565b90505060005b600c548110156200151357600c81815481106200149b576200149b6200264e565b60009182526020822001546040805163bc3d4d3360e01b815290516001600160a01b039092169263bc3d4d339260048084019382900301818387803b158015620014e457600080fd5b505af1158015620014f9573d6000803e3d6000fd5b5050505080806200150a90620024c0565b9150506200147a565b50600b5460405160008051602062006a108339815191529162000c699142919062003023565b600254600854146200155f5760405162461bcd60e51b8152600401620004ae9062002c21565b600254600d5410620015855760405162461bcd60e51b8152600401620004ae9062002c8a565b6001600160a01b0381166000908152602081905260409020805460ff1916600190811782550154600160a01b900460ff1615620015d65760405162461bcd60e51b8152600401620004ae9062003082565b6001600160a01b0381166000908152602081905260408120600101805460ff60a01b1916600160a01b179055600d8054916200161283620024c0565b9190505550600254600d54141562000767576040517f0a8965bda0750e790743628e8fe70e8e04800687e0a3e051e81d1bc2efab84f590600090a150565b6001818154811062000c8557600080fd5b6060600c80548060200260200160405190810160405280929190818152602001828054801562000621576020028201919060005260206000209081546001600160a01b0316815260019091019060200180831162000602575050505050905090565b6004805481906200063c90620024f4565b336001600160a01b037f000000000000000000000000000000000000000000000000000000000000000016146200171f5760405162461bcd60e51b8152600401620004ae906200256c565b600254156200174e57600254600854106200174e5760405162461bcd60e51b8152600401620004ae906200243f565b6001600160a01b037f0000000000000000000000000000000000000000000000000000000000000000166200178a604083016020840162002174565b6001600160a01b031614620017b35760405162461bcd60e51b8152600401620004ae90620030de565b806004620017c2828262003017565b90505060005b600754811015620018615760078181548110620017e957620017e96200264e565b60009182526020822001546040805163bc3d4d3360e01b815290516001600160a01b039092169263bc3d4d339260048084019382900301818387803b1580156200183257600080fd5b505af115801562001847573d6000803e3d6000fd5b5050505080806200185890620024c0565b915050620017c8565b5060065460405160008051602062006a108339815191529162000c699142919062003023565b336001600160a01b037f00000000000000000000000000000000000000000000000000000000000000001614620018d25760405162461bcd60e51b8152600401620004ae906200256c565b60025460085414620018f85760405162461bcd60e51b8152600401620004ae9062002c21565b600254600d54106200191e5760405162461bcd60e51b8152600401620004ae9062002c8a565b600a546001600160a01b0316620019495760405162461bcd60e51b8152600401620004ae906200313e565b60005b8181101562000b74576000808484848181106200196d576200196d6200264e565b905060200281019062001981919062002664565b6200199190602081019062002174565b6001600160a01b0316815260208101919091526040016000205460ff16620019cd5760405162461bcd60e51b8152600401620004ae90620026cf565b600080848484818110620019e557620019e56200264e565b9050602002810190620019f9919062002664565b62001a0990602081019062002174565b6001600160a01b03168152602081019190915260400160002054600160b81b900460ff161562001a4d5760405162461bcd60e51b8152600401620004ae9062003195565b6000307f000000000000000000000000000000000000000000000000000000000000000085858581811062001a865762001a866200264e565b905060200281019062001a9a919062002664565b62001aaa90602081019062002174565b86868681811062001abf5762001abf6200264e565b905060200281019062001ad3919062002664565b62001ae390602081019062002738565b600160405162001af39062001f30565b62001b049695949392919062002997565b604051809103906000f08015801562001b21573d6000803e3d6000fd5b50600c80546001808201835560009283527fdf6966c971051c3d54ec59162606531493a51404a002842f56009d7e5cf4a8c790910180546001600160a01b0319166001600160a01b0385161790559192508086868681811062001b885762001b886200264e565b905060200281019062001b9c919062002664565b62001bac90602081019062002174565b6001600160a01b03168152602081019190915260400160009081208054921515600160b81b0260ff60b81b199093169290921790915581908086868681811062001bfa5762001bfa6200264e565b905060200281019062001c0e919062002664565b62001c1e90602081019062002174565b6001600160a01b03166001600160a01b0316815260200190815260200160002060010160006101000a8154816001600160a01b0302191690836001600160a01b031602179055507f783000c1a351892d6622211d732ed7246dacad6b21bbe6b7196c122cb48ae4858160405162001c96919062001f6e565b60405180910390a1508062001cab81620024c0565b9150506200194c565b60005b60015481101562001dd057816001600160a01b03166001828154811062001ce25762001ce26200264e565b6000918252602090912001546001600160a01b0316141562001dbb576001805462001d0f908290620031a7565b8154811062001d225762001d226200264e565b600091825260209091200154600180546001600160a01b03909216918390811062001d515762001d516200264e565b9060005260206000200160006101000a8154816001600160a01b0302191690836001600160a01b03160217905550600180548062001d935762001d93620031c1565b600082815260209020810160001990810180546001600160a01b031916905501905562001dd0565b8062001dc781620024c0565b91505062001cb7565b506001600160a01b038116600090815260208190526040902054610100900460ff1615620007675760005b600754811015620005c3576001600160a01b03808316600090815260208190526040902054600780546201000090920490921691908390811062001e435762001e436200264e565b6000918252602090912001546001600160a01b0316141562001f1b576007805462001e7190600190620031a7565b8154811062001e845762001e846200264e565b600091825260209091200154600780546001600160a01b03909216918390811062001eb35762001eb36200264e565b9060005260206000200160006101000a8154816001600160a01b0302191690836001600160a01b03160217905550600780548062001ef55762001ef5620031c1565b600082815260209020810160001990810180546001600160a01b03191690550190555050565b8062001f2781620024c0565b91505062001dfb565b61381880620031d883390190565b6001600160a01b031690565b600062001f578262001f3e565b92915050565b62001f688162001f4a565b82525050565b6020810162001f57828462001f5d565b62001f898162001f4a565b81146200076757600080fd5b803562001f578162001f7e565b80151562001f89565b803562001f578162001fa2565b6000806040838503121562001fd05762001fd0600080fd5b600062001fde858562001f95565b925050602062001ff18582860162001fab565b9150509250929050565b600062001f5762002013620020108462001f3e565b90565b62001f3e565b600062001f578262001ffb565b600062001f578262002019565b62001f688162002026565b60006200204c838362002033565b505060200190565b60006200205f825190565b80845260209384019383018060005b83811015620020975781516200208588826200203e565b9750602083019250506001016200206e565b509495945050505050565b60208082528101620020b5818462002054565b9392505050565b60005b83811015620020d9578181015183820152602001620020bf565b83811115620020e9576000848401525b50505050565b601f01601f191690565b600062002104825190565b8084526020840193506200211d818560208601620020bc565b6200212881620020ef565b9093019392505050565b8062001f68565b606080825281016200214c8186620020f9565b90506200215d602083018562001f5d565b6200216c604083018462002132565b949350505050565b6000602082840312156200218b576200218b600080fd5b60006200216c848462001f95565b60008083601f840112620021b057620021b0600080fd5b5081356001600160401b03811115620021cc57620021cc600080fd5b602083019150836020820283011115620021e957620021e9600080fd5b9250929050565b60008060208385031215620022085762002208600080fd5b82356001600160401b03811115620022235762002223600080fd5b620022318582860162002199565b92509250509250929050565b6020810162001f57828462002033565b8062001f89565b803562001f57816200224d565b600060208284031215620022785762002278600080fd5b60006200216c848462002254565b80151562001f68565b60e081016200229f828a62002286565b620022ae602083018962002286565b620022bd604083018862001f5d565b620022cc606083018762002286565b620022db608083018662002286565b620022ea60a083018562001f5d565b620022f960c083018462002286565b98975050505050505050565b6020810162001f57828462002132565b60006200204c838362001f5d565b60006200232e825190565b80845260209384019383018060005b838110156200209757815162002354888262002315565b9750602083019250506001016200233d565b60208082528101620020b5818462002323565b600060608284031215620023905762002390600080fd5b50919050565b600060208284031215620023ad57620023ad600080fd5b81356001600160401b03811115620023c857620023c8600080fd5b6200216c8482850162002379565b6020810162001f57828462002286565b60448152600060208201600080516020620069f083398151915281527f6674657220616c6c2074686520445050732068617665206265656e20617373656020820152631cdcd95960e21b604082015291505b5060600190565b6020808252810162001f5781620023e6565b5060400190565b6033815260006020820160008051602062006a7083398151915281527206561647920617373657373656420612044505606c1b6020820152915062002451565b6020808252810162001f578162002458565b634e487b7160e01b600052601160045260246000fd5b6000600019821415620024d757620024d7620024aa565b5060010190565b634e487b7160e01b600052602260045260246000fd5b6002810460018216806200250957607f821691505b60208210811415620023905762002390620024de565b602f81526000602082017f4f6e6c79207468652070726f6a656374206d616e616765722063616e2063616c81526e36103a3434b990333ab731ba34b7b760891b6020820152915062002451565b6020808252810162001f57816200251f565b604b8152600060208201600080516020620069f083398151915281527f66746572206275696c64696e67207065726d697420636f6e747261637420686160208201526a1cc81899595b881cd95b9d60aa1b6040820152915062002438565b6020808252810162001f57816200257e565b603081526000602082017f445050206d75737420626520616464656420696e206f7264657220746f20636181526f3636103a3434b990333ab731ba34b7b760811b6020820152915062002451565b6020808252810162001f5781620025ee565b634e487b7160e01b600052603260045260246000fd5b60008235603e1936849003018112620026805762002680600080fd5b9190910192915050565b6038815260006020820160008051602062006a508339815191528152771cc81d1bc8195e1cda5cdd081bdb8818481c1c9bda9958dd60421b6020820152915062002451565b6020808252810162001f57816200268a565b6038815260006020820160008051602062006a5083398151915281527707320616c72656164792072656365697665642061204450560441b6020820152915062002451565b6020808252810162001f5781620026e1565b6000808335601e1936859003018112620027555762002755600080fd5b8084019250823591506001600160401b03821115620027775762002777600080fd5b60209283019282023603831315620027925762002792600080fd5b509250929050565b6000808335601e1936859003018112620027b757620027b7600080fd5b8381016020810193503591506001600160401b03821115620027dc57620027dc600080fd5b36829003841315620027925762002792600080fd5b82818337506000910152565b818352600060208401935062002815838584620027f1565b6200212883620020ef565b6000620020b5602084018462001f95565b6000620020b5602084018462002254565b6000606083016200285483806200279a565b858303865262002866838284620027fd565b9250505062002879602084018462002820565b62002888602086018262001f5d565b5062002898604084018462002831565b620028a7604086018262002132565b509392505050565b6000620020b5838362002842565b60008235605e1936849003018112620028d957620028d9600080fd5b90910192915050565b818352600060208401935083602084028101838060005b8781101562002938578484038952620029138284620028bd565b6200291f8582620028af565b94506020830160209a909a0199925050600101620028f9565b5091979650505050505050565b634e487b7160e01b600052602160045260246000fd5b6002811062000767576200076762002945565b806200297a816200295b565b919050565b600062001f57826200296e565b62001f68816200297f565b60a08101620029a7828962001f5d565b620029b6602083018862001f5d565b620029c5604083018762001f5d565b8181036060830152620029da818587620028e2565b9050620029eb60808301846200298c565b979650505050505050565b602d81526000602082017f41646d696e69737472617469766520617574686f726974792068617320616c7281526c1958591e481899595b881cd95d609a1b6020820152915062002451565b6020808252810162001f5781620029f6565b604381526000602082017f596f752063616e277420616464206173736573736d656e742070726f7669646581527f72207468617420616c72656164792065787369737473206f6e20612070726f6a6020820152621958dd60ea1b6040820152915062002438565b6020808252810162001f578162002a53565b602d81526000602082017f4173736573736d656e742070726f76696465722068617320746f20657869737481526c081bdb8818481c1c9bda9958dd609a1b6020820152915062002451565b6020808252810162001f578162002acc565b604381526000602082017f596f752063616e27742072656d6f7665206173736573736d656e7450726f766981527f64657220746861742068617320616c726561647920617373657373656420612060208201526204450560ec1b6040820152915062002438565b6020808252810162001f578162002b29565b60008162002bb45762002bb4620024aa565b506000190190565b604181526000602082017f546869732066756e6374696f6e2063616e6e6f742062652063616c6c6564206281527f65666f726520616c6c20445050732068617665206265656e20617373657373656020820152601960fa1b6040820152915062002438565b6020808252810162001f578162002bbc565b60448152600060208201600080516020620069f083398151915281527f6674657220616c6c2074686520444744732068617665206265656e20617373656020820152631cdcd95960e21b6040820152915062002438565b6020808252810162001f578162002c33565b603e81526000602082017f50726f7669646564204447442773206f776e6572206d75737420626520612070815260008051602062006a308339815191526020820152915062002451565b6020808252810162001f578162002c9c565b6000808335601e193685900301811262002d155762002d15600080fd5b8084019250823591506001600160401b0382111562002d375762002d37600080fd5b602083019250600182023603831315620027925762002792600080fd5b634e487b7160e01b600052604160045260246000fd5b600062001f57620020108381565b62002d838362002d6a565b81546008840282811b60001990911b908116901990911617825550505050565b600062000b7481848462002d78565b81811015620005c35762002dc860008262002da3565b60010162002db2565b601f82111562000b74576000818152602090206020601f8501048101602085101562002dfa5750805b62002e0e6020601f86010483018262002db2565b5050505050565b6000196008929092029190911c191690565b600062002e35838362002e15565b600290930290921792915050565b826001600160401b0381111562002e5e5762002e5e62002d54565b62002e6a8254620024f4565b62002e7782828562002dd1565b6000601f83116001811462002eaa576000841562002e955750858201355b62002ea1858262002e27565b86555062002f09565b600085815260208120601f198616915b8281101562002edc578885013582556020948501946001909201910162002eba565b8683101562002efc578489013562002ef8601f89168262002e15565b8355505b6001600288020188555050505b50505050505050565b62000b7483838362002e43565b6000813562001f578162001f7e565b60006001600160a01b03835b81169019929092169190911792915050565b62002f578262002026565b62002f6481835462002f2e565b8255505050565b6000813562001f57816200224d565b60006000198362002f3a565b60008162001f57565b62002f9a8262002f86565b62002f6462002fa98262002f86565b835462002f7a565b808262002fbf818062002cf8565b62002fcc81838662002f12565b5050505060018101602083018062002fe48162002f1f565b905062002ff2818462002f4c565b505050600281016040830180620030098162002f6b565b905062002e0e818462002f8f565b620005c3828262002fb1565b6040810162003033828562002132565b620020b5602083018462002132565b6033815260006020820160008051602062006a708339815191528152721958591e48185cdcd95cdcd9590818481111d1606a1b6020820152915062002451565b6020808252810162001f578162003042565b603e81526000602082017f50726f7669646564204450502773206f776e6572206d75737420626520612070815260008051602062006a308339815191526020820152915062002451565b6020808252810162001f578162003094565b603081526000602082017f444744206d75737420626520616464656420696e206f7264657220746f20636181526f3636103a3434b990333ab731ba34b7b760811b6020820152915062002451565b6020808252810162001f5781620030f0565b6038815260006020820160008051602062006a508339815191528152771cc8185b1c9958591e481c9958d95a5d99590818481111d160421b6020820152915062002451565b6020808252810162001f578162003150565b600082821015620031bc57620031bc620024aa565b500390565b634e487b7160e01b600052603160045260246000fdfe60c06040523480156200001157600080fd5b506040516200381838038062003818833981016040819052620000349162000500565b600080546001600160a01b0319166001600160a01b0387811691909117909155848116608052831660a0526002805482919060ff191660018381811115620000805762000080620005a0565b02179055504260038190556200009a906213c680620005cc565b60045560005b825181101562000144576001838281518110620000c157620000c1620005e7565b602090810291909101810151825460018101845560009384529282902081518051929460030290910192620000fc9284929091019062000150565b5060208201516001820180546001600160a01b0319166001600160a01b03909216919091179055604090910151600290910155806200013b81620005fd565b915050620000a0565b50505050505062000662565b8280546200015e9062000631565b90600052602060002090601f016020900481019282620001825760008555620001cd565b82601f106200019d57805160ff1916838001178555620001cd565b82800160010185558215620001cd579182015b82811115620001cd578251825591602001919060010190620001b0565b50620001db929150620001df565b5090565b5b80821115620001db5760008155600101620001e0565b60006001600160a01b0382165b92915050565b6200021481620001f6565b81146200022057600080fd5b50565b8051620002038162000209565b601f01601f191690565b634e487b7160e01b600052604160045260246000fd5b6200025b8262000230565b81018181106001600160401b03821117156200027b576200027b6200023a565b6040525050565b60006200028e60405190565b90506200029c828262000250565b919050565b60006001600160401b03821115620002bd57620002bd6200023a565b5060209081020190565b60006001600160401b03821115620002e357620002e36200023a565b620002ee8262000230565b60200192915050565b60005b8381101562000314578181015183820152602001620002fa565b8381111562000324576000848401525b50505050565b6000620003416200033b84620002c7565b62000282565b9050828152602081018484840111156200035e576200035e600080fd5b6200036b848285620002f7565b509392505050565b600082601f830112620003895762000389600080fd5b81516200039b8482602086016200032a565b949350505050565b8062000214565b80516200020381620003a3565b600060608284031215620003ce57620003ce600080fd5b620003da606062000282565b82519091506001600160401b03811115620003f857620003f8600080fd5b620004068482850162000373565b8252506020620004198484830162000223565b60208301525060406200042f84828501620003aa565b60408301525092915050565b60006200044c6200033b84620002a1565b838152905060208082019084028301858111156200046d576200046d600080fd5b835b81811015620004b35780516001600160401b03811115620004935762000493600080fd5b808601620004a28982620003b7565b85525050602092830192016200046f565b5050509392505050565b600082601f830112620004d357620004d3600080fd5b81516200039b8482602086016200043b565b600281106200022057600080fd5b80516200020381620004e5565b600080600080600060a086880312156200051d576200051d600080fd5b60006200052b888862000223565b95505060206200053e8882890162000223565b9450506040620005518882890162000223565b93505060608601516001600160401b03811115620005725762000572600080fd5b6200058088828901620004bd565b92505060806200059388828901620004f3565b9150509295509295909350565b634e487b7160e01b600052602160045260246000fd5b634e487b7160e01b600052601160045260246000fd5b60008219821115620005e257620005e2620005b6565b500190565b634e487b7160e01b600052603260045260246000fd5b6000600019821415620006145762000614620005b6565b5060010190565b634e487b7160e01b600052602260045260246000fd5b6002810460018216806200064657607f821691505b602082108114156200065c576200065c6200061b565b50919050565b60805160a051613119620006ff600039600081816102bf015281816108330152818161089c0152818161096d01528181610a3e01528181610a7801528181610ae4015281816112a501528181611856015281816118c00152818161194701528181611a4601528181611acd0152611b6501526000818161015e0152818161038f01528181610d380152818161160e015261167b01526131196000f3fe608060405234801561001057600080fd5b50600436106101545760003560e01c8063029eb76e1461015957806304afdded146101965780630c2a88bb146101a75780630d6a2033146101bc5780631e138f15146101de5780631f741c7a146101e757806326bbb2d1146101f05780632d91cca214610203578063301a370d1461020b578063304e2a061461021e57806333b4f36e146102345780634c3cf1c814610247578063646d72001461025c57806375999f2d1461027c5780638c935a6714610296578063970169771461029f5780639f623cf4146102a7578063ab2aba14146102ba578063ad755dc5146102e1578063bc3d4d33146102f4578063c2b6b58c146102fc578063c682360714610316578063cf1977d01461031e578063e655805b14610331578063eaabf66c14610339578063f0ea7e941461034b578063f60ca60d1461035e578063fc07b0a614610371575b600080fd5b6101807f000000000000000000000000000000000000000000000000000000000000000081565b60405161018d9190611d84565b60405180910390f35b600a545b60405161018d9190611d98565b6101ba6101b5366004611df7565b610384565b005b6101cf6101ca366004611e56565b61075c565b60405161018d93929190611ee1565b61019a60045481565b61019a60035481565b6101ba6101fe366004611f29565b610828565b6101ba610962565b6101ba610219366004611df7565b610a6d565b610226610c65565b60405161018d929190611fab565b6101ba610242366004611fde565b610d2d565b61024f610e03565b60405161018d9190612078565b61026f61026a3660046120d3565b610f17565b60405161018d919061210e565b6002546102899060ff1681565b60405161018d9190612168565b61019a60055481565b61024f611133565b61026f6102b53660046120d3565b611241565b6101807f000000000000000000000000000000000000000000000000000000000000000081565b6101ba6102ef366004611df7565b61129a565b6101ba6115cc565b600b546103099060ff1681565b60405161018d919061217e565b60015461019a565b6101ba61032c366004611df7565b611603565b6103096117fc565b60025461030990610100900460ff1681565b6101ba61035936600461218c565b61184b565b600054610180906001600160a01b031681565b6101ba61037f366004611e56565b611b5a565b336001600160a01b037f000000000000000000000000000000000000000000000000000000000000000016146103d55760405162461bcd60e51b81526004016103cc90612231565b60405180910390fd5b600b5460ff16156103f85760405162461bcd60e51b81526004016103cc90612299565b60005b818110156107575760005b60015481101561074457610520848484818110610425576104256122a9565b905060200281019061043791906122bf565b8080601f01602080910402602001604051908101604052809392919081815260200183838082843760009201919091525050600180549092508591508110610481576104816122a9565b9060005260206000209060030201600001805461049d90612333565b80601f01602080910402602001604051908101604052809291908181526020018280546104c990612333565b80156105165780601f106104eb57610100808354040283529160200191610516565b820191906000526020600020905b8154815290600101906020018083116104f957829003601f168201915b5050505050611c4b565b156107325760006001828154811061053a5761053a6122a9565b9060005260206000209060030201600001805461055690612333565b80601f016020809104026020016040519081016040528092919081815260200182805461058290612333565b80156105cf5780601f106105a4576101008083540402835291602001916105cf565b820191906000526020600020905b8154815290600101906020018083116105b257829003601f168201915b505050505090506000600183815481106105eb576105eb6122a9565b906000526020600020906003020160020154905060018080805490506106119190612370565b81548110610621576106216122a9565b906000526020600020906003020160018481548110610642576106426122a9565b9060005260206000209060030201600082018160000190805461066490612333565b61066f929190611c61565b5060018281015482820180546001600160a01b0319166001600160a01b0390921691909117905560029283015492909101919091558054806106b3576106b3612387565b600082815260208120600019909201916003830201906106d38282611cec565b506001810180546001600160a01b0319169055600060029091015590556040516106fe9083906123bf565b60405180910390206000805160206130c4833981519152826040516107239190611d98565b60405180910390a25050610744565b8061073c816123cb565b915050610406565b508061074f816123cb565b9150506103fb565b505050565b6001818154811061076c57600080fd5b906000526020600020906003020160009150905080600001805461078f90612333565b80601f01602080910402602001604051908101604052809291908181526020018280546107bb90612333565b80156108085780601f106107dd57610100808354040283529160200191610808565b820191906000526020600020905b8154815290600101906020018083116107eb57829003601f168201915b50505050600183015460029093015491926001600160a01b031691905083565b336001600160a01b037f000000000000000000000000000000000000000000000000000000000000000016146108705760405162461bcd60e51b81526004016103cc90612424565b600b5460ff166108925760405162461bcd60e51b81526004016103cc9061247c565b6001600160a01b037f0000000000000000000000000000000000000000000000000000000000000000166108cc60408301602084016124a0565b6001600160a01b0316146108f25760405162461bcd60e51b81526004016103cc90612513565b8060076108ff8282612803565b5061090c905081806122bf565b60405161091a92919061282c565b60405180910390207f27b9d82d922ac3b427b695f873089f631464fb8320e03e90c9d0501f2c974bf3826040013542604051610957929190612839565b60405180910390a250565b336001600160a01b037f000000000000000000000000000000000000000000000000000000000000000016146109aa5760405162461bcd60e51b81526004016103cc90612424565b600b5460ff16156109cd5760405162461bcd60e51b81526004016103cc90612299565b600254610100900460ff16156109f55760405162461bcd60e51b81526004016103cc906128a6565b6002805461ff0019166101001790556000546040517fdcd8ce5ccb691e620aa00facff8bbbe6c71a8ecdde42dfa428aee53ea2c7c13291610a639142916001600160a01b0316907f0000000000000000000000000000000000000000000000000000000000000000906128b6565b60405180910390a1565b336001600160a01b037f00000000000000000000000000000000000000000000000000000000000000001614610ab55760405162461bcd60e51b81526004016103cc90612424565b600b5460ff16610ad75760405162461bcd60e51b81526004016103cc9061247c565b60005b81811015610757577f00000000000000000000000000000000000000000000000000000000000000006001600160a01b0316838383818110610b1e57610b1e6122a9565b9050602002810190610b3091906128de565b610b419060408101906020016124a0565b6001600160a01b031614610b675760405162461bcd60e51b81526004016103cc90612948565b600a838383818110610b7b57610b7b6122a9565b9050602002810190610b8d91906128de565b815460018101835560009283526020909220909160030201610baf8282612803565b5050828282818110610bc357610bc36122a9565b9050602002810190610bd591906128de565b610bdf90806122bf565b604051610bed92919061282c565b60405180910390207f60ad18c818250b3d53e07a748d92927b46a7bb3370d2c6f083b26a615b93c5a0848484818110610c2857610c286122a9565b9050602002810190610c3a91906128de565b60400135604051610c4b9190611d98565b60405180910390a280610c5d816123cb565b915050610ada565b6006805460408051606081019091526007805492939282908290610c8890612333565b80601f0160208091040260200160405190810160405280929190818152602001828054610cb490612333565b8015610d015780601f10610cd657610100808354040283529160200191610d01565b820191906000526020600020905b815481529060010190602001808311610ce457829003601f168201915b505050918352505060018201546001600160a01b03166020820152600290910154604090910152905082565b336001600160a01b037f00000000000000000000000000000000000000000000000000000000000000001614610d755760405162461bcd60e51b81526004016103cc90612231565b600b5460ff1615610d985760405162461bcd60e51b81526004016103cc90612299565b600554610db75760405162461bcd60e51b81526004016103cc9061299e565b8015610dc95760058054600455600090555b7fe6c74b1d6da308711756ea9d9af654c915cbe22d349c336f106ddf68d1283e8c81604051610df8919061217e565b60405180910390a150565b60606001805480602002602001604051908101604052809291908181526020016000905b82821015610f0e5783829060005260206000209060030201604051806060016040529081600082018054610e5a90612333565b80601f0160208091040260200160405190810160405280929190818152602001828054610e8690612333565b8015610ed35780601f10610ea857610100808354040283529160200191610ed3565b820191906000526020600020905b815481529060010190602001808311610eb657829003601f168201915b50505091835250506001828101546001600160a01b031660208084019190915260029093015460409092019190915291835292019101610e27565b50505050905090565b610f1f611d29565b60005b6001548110156111145761101860018281548110610f4257610f426122a9565b90600052602060002090600302016000018054610f5e90612333565b80601f0160208091040260200160405190810160405280929190818152602001828054610f8a90612333565b8015610fd75780601f10610fac57610100808354040283529160200191610fd7565b820191906000526020600020905b815481529060010190602001808311610fba57829003601f168201915b505050505085858080601f016020809104026020016040519081016040528093929190818152602001838380828437600092019190915250611c4b92505050565b156111025760018181548110611030576110306122a9565b906000526020600020906003020160405180606001604052908160008201805461105990612333565b80601f016020809104026020016040519081016040528092919081815260200182805461108590612333565b80156110d25780601f106110a7576101008083540402835291602001916110d2565b820191906000526020600020905b8154815290600101906020018083116110b557829003601f168201915b505050918352505060018201546001600160a01b03166020820152600290910154604090910152915061112d9050565b8061110c816123cb565b915050610f22565b5060405162461bcd60e51b81526004016103cc906129f0565b92915050565b60606006600401805480602002602001604051908101604052809291908181526020016000905b82821015610f0e578382906000526020600020906003020160405180606001604052908160008201805461118d90612333565b80601f01602080910402602001604051908101604052809291908181526020018280546111b990612333565b80156112065780601f106111db57610100808354040283529160200191611206565b820191906000526020600020905b8154815290600101906020018083116111e957829003601f168201915b50505091835250506001828101546001600160a01b03166020808401919091526002909301546040909201919091529183529201910161115a565b611249611d29565b60005b600a548110156111145761126f60066004018281548110610f4257610f426122a9565b1561128857600a805482908110611030576110306122a9565b80611292816123cb565b91505061124c565b336001600160a01b037f000000000000000000000000000000000000000000000000000000000000000016146112e25760405162461bcd60e51b81526004016103cc90612424565b600b5460ff166113045760405162461bcd60e51b81526004016103cc9061247c565b60005b818110156107575760005b600a548110156115b95761138d848484818110611331576113316122a9565b905060200281019061134391906122bf565b8080601f01602080910402602001604051908101604052809392919081815260200183838082843760009201919091525050600a80549092508591508110610481576104816122a9565b156115a7576000600660040182815481106113aa576113aa6122a9565b906000526020600020906003020160000180546113c690612333565b80601f01602080910402602001604051908101604052809291908181526020018280546113f290612333565b801561143f5780601f106114145761010080835404028352916020019161143f565b820191906000526020600020905b81548152906001019060200180831161142257829003601f168201915b5050505050905060006006600401838154811061145e5761145e6122a9565b6000918252602090912060026003909202010154600a80549192509061148690600190612370565b81548110611496576114966122a9565b9060005260206000209060030201600660040184815481106114ba576114ba6122a9565b906000526020600020906003020160008201816000019080546114dc90612333565b6114e7929190611c61565b5060018281015490820180546001600160a01b0319166001600160a01b03909216919091179055600291820154910155600a80548061152857611528612387565b600082815260208120600019909201916003830201906115488282611cec565b506001810180546001600160a01b0319169055600060029091015590556040516115739083906123bf565b60405180910390206000805160206130c4833981519152826040516115989190611d98565b60405180910390a250506115b9565b806115b1816123cb565b915050611312565b50806115c4816123cb565b915050611307565b6000546001600160a01b031633146115f65760405162461bcd60e51b81526004016103cc90612a38565b6002805461ff0019169055565b336001600160a01b037f0000000000000000000000000000000000000000000000000000000000000000161461164b5760405162461bcd60e51b81526004016103cc90612231565b600b5460ff161561166e5760405162461bcd60e51b81526004016103cc90612299565b60005b81811015610757577f00000000000000000000000000000000000000000000000000000000000000006001600160a01b03168383838181106116b5576116b56122a9565b90506020028101906116c791906128de565b6116d89060408101906020016124a0565b6001600160a01b0316146116fe5760405162461bcd60e51b81526004016103cc90612a91565b6001838383818110611712576117126122a9565b905060200281019061172491906128de565b8154600181018355600092835260209092209091600302016117468282612803565b505082828281811061175a5761175a6122a9565b905060200281019061176c91906128de565b61177690806122bf565b60405161178492919061282c565b60405180910390207fbef5ffbdb27e936d418aac85e7a7dcd68153b34b631ddc76b023c8c59bf82c318484848181106117bf576117bf6122a9565b90506020028101906117d191906128de565b604001356040516117e29190611d98565b60405180910390a2806117f4816123cb565b915050611671565b6000600454421115611845577f149f4e6f33dd9d8e01e7de869eb261f2e7aa57033be8e900565d2a76df6ab8b2426040516118379190611d98565b60405180910390a150600190565b50600090565b336001600160a01b037f000000000000000000000000000000000000000000000000000000000000000016146118935760405162461bcd60e51b81526004016103cc90612424565b600b5460ff16156118b65760405162461bcd60e51b81526004016103cc90612299565b6001600160a01b037f0000000000000000000000000000000000000000000000000000000000000000166118ed60208401846128de565b6118fe9060408101906020016124a0565b6001600160a01b0316146119245760405162461bcd60e51b81526004016103cc90612afd565b60005b6119346040840184612b0d565b90508110156119df576001600160a01b037f0000000000000000000000000000000000000000000000000000000000000000166119746040850185612b0d565b83818110611984576119846122a9565b905060200281019061199691906128de565b6119a79060408101906020016124a0565b6001600160a01b0316146119cd5760405162461bcd60e51b81526004016103cc90612bb7565b806119d7816123cb565b915050611927565b508160066119ed8282612f57565b505042600655600b805460ff19166001179055600060025460ff166001811115611a1957611a1961211f565b14611aa55760005460405163cc5b255b60e01b81526001600160a01b039091169063cc5b255b90611a6e907f000000000000000000000000000000000000000000000000000000000000000090600401611d84565b600060405180830381600087803b158015611a8857600080fd5b505af1158015611a9c573d6000803e3d6000fd5b50505050611b2a565b600054604051630436e27b60e21b81526001600160a01b03909116906310db89ec90611af7907f0000000000000000000000000000000000000000000000000000000000000000908590600401612f61565b600060405180830381600087803b158015611b1157600080fd5b505af1158015611b25573d6000803e3d6000fd5b505050505b6006546040517f76abe57b1ebd79aa1de96eb8a9fbc4bc33228bfabc1d04cf9bc344bcd17eb34c90600090a25050565b336001600160a01b037f00000000000000000000000000000000000000000000000000000000000000001614611ba25760405162461bcd60e51b81526004016103cc90612424565b600b5460ff1615611bc55760405162461bcd60e51b81526004016103cc90612299565b600454811015611be75760405162461bcd60e51b81526004016103cc90612fe5565b600354611bf790624f1a00612ff5565b811115611c165760405162461bcd60e51b81526004016103cc90613073565b60058190556040517f35db10d8f770515efa5c41d75e9308cb342170b6151f4eb1b6e813fca7ea620790610df8908390611d98565b8051602091820120825192909101919091201490565b828054611c6d90612333565b90600052602060002090601f016020900481019282611c8f5760008555611cdc565b82601f10611ca05780548555611cdc565b82800160010185558215611cdc57600052602060002091601f016020900482015b82811115611cdc578254825591600101919060010190611cc1565b50611ce8929150611d49565b5090565b508054611cf890612333565b6000825580601f10611d08575050565b601f016020900490600052602060002090810190611d269190611d49565b50565b604080516060808201835281526000602082018190529181019190915290565b5b80821115611ce85760008155600101611d4a565b6001600160a01b031690565b600061112d82611d5e565b611d7e81611d6a565b82525050565b6020810161112d8284611d75565b80611d7e565b6020810161112d8284611d92565b60008083601f840112611dbb57611dbb600080fd5b5081356001600160401b03811115611dd557611dd5600080fd5b602083019150836020820283011115611df057611df0600080fd5b9250929050565b60008060208385031215611e0d57611e0d600080fd5b82356001600160401b03811115611e2657611e26600080fd5b611e3285828601611da6565b92509250509250929050565b805b8114611d2657600080fd5b803561112d81611e3e565b600060208284031215611e6b57611e6b600080fd5b6000611e778484611e4b565b949350505050565b60005b83811015611e9a578181015183820152602001611e82565b83811115611ea9576000848401525b50505050565b6000611eb9825190565b808452602084019350611ed0818560208601611e7f565b601f01601f19169290920192915050565b60608082528101611ef28186611eaf565b9050611f016020830185611d75565b611e776040830184611d92565b600060608284031215611f2357611f23600080fd5b50919050565b600060208284031215611f3e57611f3e600080fd5b81356001600160401b03811115611f5757611f57600080fd5b611e7784828501611f0e565b8051606080845260009190840190611f7b8282611eaf565b9150506020830151611f906020860182611d75565b506040830151611fa36040860182611d92565b509392505050565b60408101611fb98285611d92565b8181036020830152611e778184611f63565b801515611e40565b803561112d81611fcb565b600060208284031215611ff357611ff3600080fd5b6000611e778484611fd3565b600061200b8383611f63565b9392505050565b600061201c825190565b808452602084019350836020820285016120368560200190565b8060005b8581101561206b57848403895281516120538582611fff565b94506020830160209a909a019992505060010161203a565b5091979650505050505050565b6020808252810161200b8184612012565b60008083601f84011261209e5761209e600080fd5b5081356001600160401b038111156120b8576120b8600080fd5b602083019150836001820283011115611df057611df0600080fd5b600080602083850312156120e9576120e9600080fd5b82356001600160401b0381111561210257612102600080fd5b611e3285828601612089565b6020808252810161200b8184611f63565b634e487b7160e01b600052602160045260246000fd5b60028110611d2657611d2661211f565b8061214f81612135565b919050565b600061112d82612145565b611d7e81612154565b6020810161112d828461215f565b801515611d7e565b6020810161112d8284612176565b600080604083850312156121a2576121a2600080fd5b82356001600160401b038111156121bb576121bb600080fd5b6121c785828601611f0e565b92505060206121d885828601611fd3565b9150509250929050565b602f81526000602082017f4f6e6c79207468652070726f6a656374206d616e616765722063616e2063616c81526e36103a3434b990333ab731ba34b7b760891b602082015291505b5060400190565b6020808252810161112d816121e2565b604481526000602082016000805160206130a483398151915281527f207768656e206173736573736d656e74206861736e27742066696e7369686564602082015263081e595d60e21b604082015291505b5060600190565b6020808252810161112d81612241565b634e487b7160e01b600052603260045260246000fd5b6000808335601e19368590030181126122da576122da600080fd5b8084019250823591506001600160401b038211156122fa576122fa600080fd5b60208301925060018202360383131561231557612315600080fd5b509250929050565b634e487b7160e01b600052602260045260246000fd5b60028104600182168061234757607f821691505b60208210811415611f2357611f2361231d565b634e487b7160e01b600052601160045260246000fd5b6000828210156123825761238261235a565b500390565b634e487b7160e01b600052603160045260246000fd5b60006123a7825190565b6123b5818560208601611e7f565b9290920192915050565b600061200b828461239d565b60006000198214156123df576123df61235a565b5060010190565b603381526000602082016000805160206130848339815191528152721031b0b636103a3434b990333ab731ba34b7b760691b6020820152915061222a565b6020808252810161112d816123e6565b603d81526000602082016000805160206130a483398151915281527f207768656e206173736573736d656e74206861732066696e73696865640000006020820152915061222a565b6020808252810161112d81612434565b611e4081611d6a565b803561112d8161248c565b6000602082840312156124b5576124b5600080fd5b6000611e778484612495565b603581526000602082017f4f6e6c79207468652070726f6a656374206d616e616765722063616e20757064815274185d19481d1a19481b585a5b88191bd8dd5b595b9d605a1b6020820152915061222a565b6020808252810161112d816124c1565b634e487b7160e01b600052600060045260246000fd5b634e487b7160e01b600052604160045260246000fd5b60009081526020902090565b600061112d6125678381565b90565b6125738361255b565b612591815b83546008860291821b60001990921b9182169119161790565b825550505050565b600061075781848461256a565b818110156125c1576125b9600082612599565b6001016125a6565b5050565b601f821115610757576125d78161254f565b6020601f850104810160208510156125ec5750805b6125fe6020601f8601048301826125a6565b5050505050565b6000196008929092029190911c191690565b60006126238383612605565b600290930290921792915050565b826001600160401b0381111561264957612649612539565b6126538254612333565b61265e8282856125c5565b6000601f83116001811461268c576000841561267a5750858201355b6126848582612617565b8655506126e7565b601f19841661269a8661254f565b60005b828110156126bd578885013582556020948501946001909201910161269d565b868310156126da57848901356126d6601f891682612605565b8355505b6001600288020188555050505b50505050505050565b610757838383612631565b6000813561112d8161248c565b60006001600160a01b03835b81169019929092169190911792915050565b600061112d61273761256784611d5e565b611d5e565b600061112d82612726565b600061112d8261273c565b61275b82612747565b612766818354612708565b8255505050565b6000813561112d81611e3e565b600060001983612714565b60008161112d565b61279682612785565b6127666127a282612785565b835461277a565b80826127b581806122bf565b6127c08183866126f0565b505050506001810160208301806127d6816126fb565b90506127e28184612752565b5050506002810160408301806127f78161276d565b90506125fe818461278d565b6125c182826127a9565b82818337506000910152565b600061282683858461280d565b50500190565b6000611e77828486612819565b604081016128478285611d92565b61200b6020830184611d92565b603581526000602082017f4d61696e20646f63756d656e74207570646174652064656d616e642068617320815274185b1c9958591e481899595b881c9958da595d9959605a1b6020820152915061222a565b6020808252810161112d81612854565b606081016128c48286611d92565b6128d16020830185611d75565b611e776040830184611d75565b60008235605e19368490030181126128f8576128f8600080fd5b9190910192915050565b603b815260006020820160008051602061308483398151915281527a20616464206173736573736d656e74206174746163686d656e747360281b6020820152915061222a565b6020808252810161112d81612902565b602981526000602082017f447565206461746520657874656e73696f6e20686173206e6f74206265656e208152681c995c5d595cdd195960ba1b6020820152915061222a565b6020808252810161112d81612958565b602581526000602082017f4174746163686d656e7420776974682070726f7669646564204944206e6f7420815264199bdd5b9960da1b6020820152915061222a565b6020808252810161112d816129ae565b602d81526000602082016000805160206130a483398151915281526c08199c9bdb481c1c9bda9958dd609a1b6020820152915061222a565b6020808252810161112d81612a00565b602c81526000602082017f4f6e6c79207468652070726f6a656374206d616e616765722063616e2061646481526b206174746163686d656e747360a01b6020820152915061222a565b6020808252810161112d81612a48565b604b815260006020820160008051602061308483398151915281527f2070726f7669646520746865206d61696e20646f63756d656e74206f6620616e60208201526a08185cdcd95cdcdb595b9d60aa1b60408201529150612292565b6020808252810161112d81612aa1565b6000808335601e1936859003018112612b2857612b28600080fd5b8084019250823591506001600160401b03821115612b4857612b48600080fd5b6020928301928202360383131561231557612315600080fd5b6045815260006020820160008051602061308483398151915281527f2070726f76696465206174746163686d656e7473206f6620616e2061737365736020820152641cdb595b9d60da1b60408201529150612292565b6020808252810161112d81612b61565b612bd08261255b565b612766816127a2565b6000816000190483118215151615612bf357612bf361235a565b500290565b8061112d816003612bd9565b612c15600019836020036008021c90565b815416905550565b612c268161254f565b612c31838254612617565b9091556000905550565b602084108015612c9257601f841160018114612c6257612c5b8685612617565b8355612c8c565b612c6b8361254f565b612c806020601f8801048201600183016125a6565b612c8a8785612c1d565b505b506125fe565b612c9b8261254f565b6020601f8701048101601f87168015612cbb57612cbb8160018403612c04565b612ccd6020601f8901048401836125a6565b6001886002021785555050505050505050565b600160401b841115612cf457612cf4612539565b602083108015612d3357602085108015612d1257612c5b8685612617565b60ff199093169283612d238461254f565b55600186600202018355506125fe565b6001856002020182555050505050565b8054612d4e81612333565b80841115612d6257612d6284828486612ce0565b80841015611ea957611ea984828486612c3b565b818110156125c157612d89600082612599565b600101612d76565b611d26600082612d43565b8115612daa57612daa612523565b6125c181612d91565b612dbc83612785565b61259161257882612785565b6000610757818484612db3565b612de0600082612d9c565b60006001820155611d26600060028301612dc8565b8115612e0357612e03612523565b6125c181612dd5565b818110156125c157612e1f600082612df5565b600301612e0c565b8183101561075757612e3882612bf8565b612e4184612bf8565b612e4a8361254f565b818101838201612e5a8183612e0c565b5050505050505050565b600160401b821115612e7857612e78612539565b8054828255610757838284612e27565b8115612e9657612e96612523565b61075783826127a9565b82612eab8183612e64565b82612eb58361254f565b6000805b84811015612e5a57612ecb84886128de565b612ed6818486612e88565b506020939093019260039290920191600101612eb9565b610757838383612ea0565b808280612f048161276d565b9050612f108184612bc7565b5050506001810160208301612f2581856128de565b612f2f8184612803565b5050506004810160408301612f448185612b0d565b612f4f818386612eed565b505050505050565b6125c18282612ef8565b60408101612f6f8285611d75565b61200b6020830184612176565b604681526000602082017f5265717565737465642064756520646174652068617320746f206265206c617481527f657220696e2074686520667574757265207468616e2063757272656e7420647560208201526565206461746560d01b60408201529150612292565b6020808252810161112d81612f7c565b600082198211156130085761300861235a565b500190565b604381526000602082017f5265717565737465642064756520646174652068617320746f20626520736f6f81527f6e6572207468616e2064617465206f66206372656174696f6e202b203630206460208201526261797360e81b60408201529150612292565b6020808252810161112d8161300d56fe4f6e6c7920746865206173736573736d656e742070726f76696465722063616e546869732066756e6374696f6e2063616e206f6e6c792062652063616c6c656488fcaa2da0bb0be0326a7077265e7b2dd02e3df809f1a687a72e2332f60804f8a2646970667358221220f9e6e5f0e12e4eee0ecbdf076b874c547cff1bce7182ed01febffc63ddb4a22e64736f6c63430008090033546869732066756e6374696f6e2063616e6e6f742062652063616c6c656420618591f0116cc1bddf9c4f961511e03a7b80e9aa1e7dc7565cb8f8f1d3c7d7a758726f6a656374206d616e61676572206f6620746869732070726f6a6563740000416464726573736564206173736573736d656e742070726f766964657220686154686973206173736573736d656e742070726f76696465722068617320616c72a2646970667358221220a713c0815a1c773677e19a129e6941d849999e06793a94e2b7d013e604c8054264736f6c63430008090033",
  "linkReferences": {},
  "deployedLinkReferences": {}
}