{
  "_format": "hh-sol-artifact-1",
  "contractName": "Project",
  "sourceName": "contracts/Project.sol",
  "abi": [
    {
      "inputs": [],
      "stateMutability": "nonpayable",
      "type": "constructor"
    },
    {
      "anonymous": false,
      "inputs": [
        {
          "indexed": false,
          "internalType": "address",
          "name": "_administrativeAuthority",
          "type": "address"
        },
        {
          "indexed": false,
          "internalType": "uint256",
          "name": "timestamp",
          "type": "uint256"
        }
      ],
      "name": "AdministrativeAuthorityRemoved",
      "type": "event"
    },
    {
      "anonymous": false,
      "inputs": [
        {
          "indexed": false,
          "internalType": "address",
          "name": "_administrativeAuthority",
          "type": "address"
        },
        {
          "indexed": false,
          "internalType": "uint256",
          "name": "timestamp",
          "type": "uint256"
        }
      ],
      "name": "AdministrativeAuthoritySet",
      "type": "event"
    },
    {
      "anonymous": false,
      "inputs": [
        {
          "indexed": false,
          "internalType": "address",
          "name": "_address",
          "type": "address"
        },
        {
          "indexed": false,
          "internalType": "uint256",
          "name": "timestamp",
          "type": "uint256"
        }
      ],
      "name": "AssessmentProviderAdded",
      "type": "event"
    },
    {
      "anonymous": false,
      "inputs": [
        {
          "indexed": false,
          "internalType": "address",
          "name": "_address",
          "type": "address"
        },
        {
          "indexed": false,
          "internalType": "uint256",
          "name": "timestamp",
          "type": "uint256"
        }
      ],
      "name": "AssessmentProviderRemoved",
      "type": "event"
    },
    {
      "anonymous": false,
      "inputs": [
        {
          "indexed": false,
          "internalType": "address",
          "name": "_address",
          "type": "address"
        },
        {
          "indexed": false,
          "internalType": "uint256",
          "name": "timestamp",
          "type": "uint256"
        }
      ],
      "name": "BuildingPermitContractCreated",
      "type": "event"
    },
    {
      "anonymous": false,
      "inputs": [
        {
          "indexed": false,
          "internalType": "address",
          "name": "_address",
          "type": "address"
        },
        {
          "indexed": false,
          "internalType": "uint256",
          "name": "timestamp",
          "type": "uint256"
        }
      ],
      "name": "DGDsent",
      "type": "event"
    },
    {
      "anonymous": false,
      "inputs": [
        {
          "indexed": false,
          "internalType": "string",
          "name": "documentId",
          "type": "string"
        },
        {
          "indexed": false,
          "internalType": "uint256",
          "name": "timestamp",
          "type": "uint256"
        }
      ],
      "name": "DGDset",
      "type": "event"
    },
    {
      "anonymous": false,
      "inputs": [
        {
          "indexed": false,
          "internalType": "uint256",
          "name": "timestamp",
          "type": "uint256"
        }
      ],
      "name": "DPPPhaseFinalized",
      "type": "event"
    },
    {
      "anonymous": false,
      "inputs": [
        {
          "indexed": false,
          "internalType": "address",
          "name": "_address",
          "type": "address"
        },
        {
          "indexed": false,
          "internalType": "uint256",
          "name": "timestamp",
          "type": "uint256"
        }
      ],
      "name": "DPPsent",
      "type": "event"
    },
    {
      "anonymous": false,
      "inputs": [
        {
          "indexed": false,
          "internalType": "string",
          "name": "documentId",
          "type": "string"
        },
        {
          "indexed": false,
          "internalType": "uint256",
          "name": "timestamp",
          "type": "uint256"
        }
      ],
      "name": "DPPset",
      "type": "event"
    },
    {
      "anonymous": false,
      "inputs": [
        {
          "indexed": false,
          "internalType": "uint256",
          "name": "timestamp",
          "type": "uint256"
        }
      ],
      "name": "ProjectCreated",
      "type": "event"
    },
    {
      "anonymous": false,
      "inputs": [
        {
          "indexed": false,
          "internalType": "uint256",
          "name": "timestamp",
          "type": "uint256"
        }
      ],
      "name": "allDGDsAssessed",
      "type": "event"
    },
    {
      "anonymous": false,
      "inputs": [
        {
          "indexed": false,
          "internalType": "uint256",
          "name": "timestamp",
          "type": "uint256"
        }
      ],
      "name": "allDPPsAssessed",
      "type": "event"
    },
    {
      "inputs": [],
      "name": "DGD",
      "outputs": [
        {
          "internalType": "string",
          "name": "id",
          "type": "string"
        },
        {
          "internalType": "address",
          "name": "owner",
          "type": "address"
        },
        {
          "internalType": "bytes32",
          "name": "documentHash",
          "type": "bytes32"
        }
      ],
      "stateMutability": "view",
      "type": "function"
    },
    {
      "inputs": [],
      "name": "DPP",
      "outputs": [
        {
          "internalType": "string",
          "name": "id",
          "type": "string"
        },
        {
          "internalType": "address",
          "name": "owner",
          "type": "address"
        },
        {
          "internalType": "bytes32",
          "name": "documentHash",
          "type": "bytes32"
        }
      ],
      "stateMutability": "view",
      "type": "function"
    },
    {
      "inputs": [
        {
          "internalType": "address[]",
          "name": "_assessmentProviders",
          "type": "address[]"
        }
      ],
      "name": "addAssessmentProviders",
      "outputs": [],
      "stateMutability": "nonpayable",
      "type": "function"
    },
    {
      "inputs": [],
      "name": "administrativeAuthority",
      "outputs": [
        {
          "internalType": "address",
          "name": "",
          "type": "address"
        }
      ],
      "stateMutability": "view",
      "type": "function"
    },
    {
      "inputs": [
        {
          "internalType": "address",
          "name": "assessmentProvider",
          "type": "address"
        }
      ],
      "name": "assessDGD",
      "outputs": [],
      "stateMutability": "nonpayable",
      "type": "function"
    },
    {
      "inputs": [
        {
          "internalType": "address",
          "name": "assessmentProvider",
          "type": "address"
        },
        {
          "internalType": "bool",
          "name": "requiresAssessment",
          "type": "bool"
        }
      ],
      "name": "assessDPP",
      "outputs": [],
      "stateMutability": "nonpayable",
      "type": "function"
    },
    {
      "inputs": [
        {
          "internalType": "address",
          "name": "",
          "type": "address"
        }
      ],
      "name": "assessmentProviders",
      "outputs": [
        {
          "internalType": "bool",
          "name": "exists",
          "type": "bool"
        },
        {
          "internalType": "bool",
          "name": "hasReceivedDPP",
          "type": "bool"
        },
        {
          "internalType": "address",
          "name": "receivedDPPAddress",
          "type": "address"
        },
        {
          "internalType": "bool",
          "name": "hasAssessedDPP",
          "type": "bool"
        },
        {
          "internalType": "bool",
          "name": "hasReceivedDGD",
          "type": "bool"
        },
        {
          "internalType": "address",
          "name": "receivedDGDAddress",
          "type": "address"
        },
        {
          "internalType": "bool",
          "name": "hasAssessedDGD",
          "type": "bool"
        }
      ],
      "stateMutability": "view",
      "type": "function"
    },
    {
      "inputs": [
        {
          "internalType": "uint256",
          "name": "",
          "type": "uint256"
        }
      ],
      "name": "assessmentProvidersAddresses",
      "outputs": [
        {
          "internalType": "address",
          "name": "",
          "type": "address"
        }
      ],
      "stateMutability": "view",
      "type": "function"
    },
    {
      "inputs": [],
      "name": "buildingPermitContract",
      "outputs": [
        {
          "internalType": "contract BuildingPermitContract",
          "name": "",
          "type": "address"
        }
      ],
      "stateMutability": "view",
      "type": "function"
    },
    {
      "inputs": [
        {
          "internalType": "address",
          "name": "_administrativeAuthority",
          "type": "address"
        }
      ],
      "name": "changeAdministrativeAuthority",
      "outputs": [],
      "stateMutability": "nonpayable",
      "type": "function"
    },
    {
      "inputs": [],
      "name": "dateCreated",
      "outputs": [
        {
          "internalType": "uint256",
          "name": "",
          "type": "uint256"
        }
      ],
      "stateMutability": "view",
      "type": "function"
    },
    {
      "inputs": [],
      "name": "finalizeDPPPhase",
      "outputs": [],
      "stateMutability": "nonpayable",
      "type": "function"
    },
    {
      "inputs": [],
      "name": "getAssessmentProvidersAddresses",
      "outputs": [
        {
          "internalType": "address[]",
          "name": "",
          "type": "address[]"
        }
      ],
      "stateMutability": "view",
      "type": "function"
    },
    {
      "inputs": [],
      "name": "getSentDGDsAddresses",
      "outputs": [
        {
          "internalType": "contract DocumentContract[]",
          "name": "",
          "type": "address[]"
        }
      ],
      "stateMutability": "view",
      "type": "function"
    },
    {
      "inputs": [],
      "name": "getSentDGDsLength",
      "outputs": [
        {
          "internalType": "uint256",
          "name": "",
          "type": "uint256"
        }
      ],
      "stateMutability": "view",
      "type": "function"
    },
    {
      "inputs": [],
      "name": "getSentDPPs",
      "outputs": [
        {
          "internalType": "contract DocumentContract[]",
          "name": "",
          "type": "address[]"
        }
      ],
      "stateMutability": "view",
      "type": "function"
    },
    {
      "inputs": [],
      "name": "getSentDPPsAddresses",
      "outputs": [
        {
          "internalType": "contract DocumentContract[]",
          "name": "",
          "type": "address[]"
        }
      ],
      "stateMutability": "view",
      "type": "function"
    },
    {
      "inputs": [],
      "name": "getSentDPPsLength",
      "outputs": [
        {
          "internalType": "uint256",
          "name": "",
          "type": "uint256"
        }
      ],
      "stateMutability": "view",
      "type": "function"
    },
    {
      "inputs": [],
      "name": "isClosed",
      "outputs": [
        {
          "internalType": "bool",
          "name": "",
          "type": "bool"
        }
      ],
      "stateMutability": "view",
      "type": "function"
    },
    {
      "inputs": [],
      "name": "isDPPPhaseFinalized",
      "outputs": [
        {
          "internalType": "bool",
          "name": "",
          "type": "bool"
        }
      ],
      "stateMutability": "view",
      "type": "function"
    },
    {
      "inputs": [],
      "name": "numOfAssessedDGDs",
      "outputs": [
        {
          "internalType": "uint256",
          "name": "",
          "type": "uint256"
        }
      ],
      "stateMutability": "view",
      "type": "function"
    },
    {
      "inputs": [],
      "name": "numOfAssessedDPPs",
      "outputs": [
        {
          "internalType": "uint256",
          "name": "",
          "type": "uint256"
        }
      ],
      "stateMutability": "view",
      "type": "function"
    },
    {
      "inputs": [],
      "name": "numOfAssessmentProviders",
      "outputs": [
        {
          "internalType": "uint256",
          "name": "",
          "type": "uint256"
        }
      ],
      "stateMutability": "view",
      "type": "function"
    },
    {
      "inputs": [],
      "name": "projectManager",
      "outputs": [
        {
          "internalType": "address",
          "name": "",
          "type": "address"
        }
      ],
      "stateMutability": "view",
      "type": "function"
    },
    {
      "inputs": [],
      "name": "removeAdministrativeAuthority",
      "outputs": [],
      "stateMutability": "nonpayable",
      "type": "function"
    },
    {
      "inputs": [
        {
          "internalType": "address[]",
          "name": "_assessmentProviders",
          "type": "address[]"
        }
      ],
      "name": "removeAssessmentProviders",
      "outputs": [],
      "stateMutability": "nonpayable",
      "type": "function"
    },
    {
      "inputs": [
        {
          "components": [
            {
              "internalType": "address",
              "name": "assessmentProvider",
              "type": "address"
            },
            {
              "components": [
                {
                  "internalType": "string",
                  "name": "id",
                  "type": "string"
                },
                {
                  "internalType": "address",
                  "name": "owner",
                  "type": "address"
                },
                {
                  "internalType": "bytes32",
                  "name": "documentHash",
                  "type": "bytes32"
                }
              ],
              "internalType": "struct Document[]",
              "name": "attachments",
              "type": "tuple[]"
            }
          ],
          "internalType": "struct Project.DocumentContractStruct[]",
          "name": "_sentDGDs",
          "type": "tuple[]"
        }
      ],
      "name": "sendDGD",
      "outputs": [],
      "stateMutability": "nonpayable",
      "type": "function"
    },
    {
      "inputs": [
        {
          "components": [
            {
              "internalType": "address",
              "name": "assessmentProvider",
              "type": "address"
            },
            {
              "components": [
                {
                  "internalType": "string",
                  "name": "id",
                  "type": "string"
                },
                {
                  "internalType": "address",
                  "name": "owner",
                  "type": "address"
                },
                {
                  "internalType": "bytes32",
                  "name": "documentHash",
                  "type": "bytes32"
                }
              ],
              "internalType": "struct Document[]",
              "name": "attachments",
              "type": "tuple[]"
            }
          ],
          "internalType": "struct Project.DocumentContractStruct[]",
          "name": "_sentDPPs",
          "type": "tuple[]"
        }
      ],
      "name": "sendDPP",
      "outputs": [],
      "stateMutability": "nonpayable",
      "type": "function"
    },
    {
      "inputs": [
        {
          "internalType": "uint256",
          "name": "",
          "type": "uint256"
        }
      ],
      "name": "sentDGDs",
      "outputs": [
        {
          "internalType": "contract DocumentContract",
          "name": "",
          "type": "address"
        }
      ],
      "stateMutability": "view",
      "type": "function"
    },
    {
      "inputs": [
        {
          "internalType": "uint256",
          "name": "",
          "type": "uint256"
        }
      ],
      "name": "sentDPPs",
      "outputs": [
        {
          "internalType": "contract DocumentContract",
          "name": "",
          "type": "address"
        }
      ],
      "stateMutability": "view",
      "type": "function"
    },
    {
      "inputs": [
        {
          "internalType": "address",
          "name": "_administrativeAuthority",
          "type": "address"
        }
      ],
      "name": "setAdministrativeAuthority",
      "outputs": [],
      "stateMutability": "nonpayable",
      "type": "function"
    },
    {
      "inputs": [
        {
          "components": [
            {
              "internalType": "string",
              "name": "id",
              "type": "string"
            },
            {
              "internalType": "address",
              "name": "owner",
              "type": "address"
            },
            {
              "internalType": "bytes32",
              "name": "documentHash",
              "type": "bytes32"
            }
          ],
          "internalType": "struct Document",
          "name": "_DGD",
          "type": "tuple"
        }
      ],
      "name": "setDGD",
      "outputs": [],
      "stateMutability": "nonpayable",
      "type": "function"
    },
    {
      "inputs": [
        {
          "components": [
            {
              "internalType": "string",
              "name": "id",
              "type": "string"
            },
            {
              "internalType": "address",
              "name": "owner",
              "type": "address"
            },
            {
              "internalType": "bytes32",
              "name": "documentHash",
              "type": "bytes32"
            }
          ],
          "internalType": "struct Document",
          "name": "_DPP",
          "type": "tuple"
        }
      ],
      "name": "setDPP",
      "outputs": [],
      "stateMutability": "nonpayable",
      "type": "function"
    }
  ],
  "bytecode": "0x60a060405234801561001057600080fd5b50336080524260108190556040519081527f1ac2092e16e28eef29d1832f3dc69da1b21284a1f3159d3b26cb238b22fe4f8a9060200160405180910390a1608051616c9d6100c4600039600081816101b901528181610733015281816107d40152818161096c01528181610bdc01528181610d9901528181610e730152818161117f0152818161145d015281816114f2015281816117db0152818161184b015281816119950152611b540152616c9d6000f3fe60806040523480156200001157600080fd5b5060043610620001ae5760003560e01c8063029eb76e14620001b357806310db89ec14620001f357806313d6d685146200020c57806314b7c68414620002255780631532d3a714620002405780631e93160014620002545780631f741c7a146200026b578063441f99b714620002845780634dc3b41f146200020c5780635033565c146200029b5780635a408ff514620002b25780635b5f1f8114620002d557806361031cdc14620002df57806372e5d57014620002f65780637f272da414620003745780637f7ad9a0146200037e57806380f7f29d146200039557806382fa96ed146200039f57806383970a1b14620003b657806397a70d3e14620003d357806398964a6714620003ea578063ac6ac5141462000403578063aec3ee80146200040c578063af2341e01462000423578063c2b6b58c146200042d578063cc5b255b1462000442578063cd9b8fec1462000459578063d2e303391462000462578063dd6149c41462000479578063e112b2401462000483578063e327f4f9146200048d578063e461cadb14620004a4578063f2c944c214620004ae575b600080fd5b620001db7f000000000000000000000000000000000000000000000000000000000000000081565b604051620001ea919062002072565b60405180910390f35b6200020a62000204366004620020bc565b620004c5565b005b6200021662000614565b604051620001ea9190620021a6565b6200022f62000678565b604051620001ea939291906200223d565b600354620001db906001600160a01b031681565b6200020a6200026536600462002278565b62000728565b6200027560105481565b604051620001ea91906200229d565b6200020a6200029536600462002304565b620007c9565b6200020a620002ac36600462002278565b62000bd1565b600f54620002c6906001600160a01b031681565b604051620001ea919062002351565b6200020a62000cce565b620002c6620002f036600462002375565b62000d63565b6200035f6200030736600462002278565b6000602081905290815260409020805460019091015460ff8083169261010081048216926001600160a01b03620100008304811693600160b01b8404811693600160b81b900481169291821691600160a01b90041687565b604051620001ea9796959493929190620023a3565b6200020a62000d8e565b620002c66200038f36600462002375565b62000e57565b6200027560025481565b6200020a620003b036600462002304565b62000e68565b600954620003c49060ff1681565b604051620001ea919062002419565b6200020a620003e436600462002304565b62001174565b620003f4620013f0565b604051620001ea91906200247a565b600d5462000275565b6200020a6200041d366004620024aa565b62001452565b62000275600e5481565b600f54620003c490600160a01b900460ff1681565b6200020a6200045336600462002278565b62001631565b60075462000275565b620001db6200047336600462002375565b6200174c565b620002166200175d565b6200022f620017bf565b6200020a6200049e366004620024aa565b620017d0565b6200027560085481565b6200020a620004bf36600462002304565b6200198a565b60095460ff1615620004f45760405162461bcd60e51b8152600401620004eb9062002540565b60405180910390fd5b6001600160a01b0382166000908152602081905260409020805460ff191660011790819055600160b01b900460ff1615620005435760405162461bcd60e51b8152600401620004eb9062002599565b6001600160a01b0382166000908152602081905260408120805460ff60b01b1916600160b01b17905560088054916200057c83620025c1565b919050555080620005c9576001600160a01b0382166000908152602081905260408120600101805460ff60a01b1916600160a01b179055600e805491620005c383620025c1565b91905055505b600254600854141562000610577f9ca565660d7e2220b0acf5dcdf85e7d5e9387e40d224bce333576cd294ba4808426040516200060791906200229d565b60405180910390a15b5050565b606060078054806020026020016040519081016040528092919081815260200182805480156200066e57602002820191906000526020600020905b81546001600160a01b031681526001909101906020018083116200064f575b5050505050905090565b600a805481906200068990620025f5565b80601f0160208091040260200160405190810160405280929190818152602001828054620006b790620025f5565b8015620007085780601f10620006dc5761010080835404028352916020019162000708565b820191906000526020600020905b815481529060010190602001808311620006ea57829003601f168201915b50505050600183015460029093015491926001600160a01b031691905083565b336001600160a01b037f00000000000000000000000000000000000000000000000000000000000000001614620007735760405162461bcd60e51b8152600401620004eb906200266d565b600f546001600160a01b0316156200079f5760405162461bcd60e51b8152600401620004eb90620026dd565b6003546001600160a01b031615620007bb57620007bb62000d8e565b620007c68162000bd1565b50565b336001600160a01b037f00000000000000000000000000000000000000000000000000000000000000001614620008145760405162461bcd60e51b8152600401620004eb906200266d565b60095460ff16156200083a5760405162461bcd60e51b8152600401620004eb9062002540565b6005546001600160a01b0316620008655760405162461bcd60e51b8152600401620004eb906200273d565b60005b8181101562000bcc576000808484848181106200088957620008896200274f565b90506020028101906200089d919062002765565b620008ad90602081019062002278565b6001600160a01b0316815260208101919091526040016000205460ff16620008e95760405162461bcd60e51b8152600401620004eb90620027d0565b6000808484848181106200090157620009016200274f565b905060200281019062000915919062002765565b6200092590602081019062002278565b6001600160a01b03168152602081019190915260400160002054610100900460ff1615620009675760405162461bcd60e51b8152600401620004eb9062002827565b6000307f0000000000000000000000000000000000000000000000000000000000000000858585818110620009a057620009a06200274f565b9050602002810190620009b4919062002765565b620009c490602081019062002278565b868686818110620009d957620009d96200274f565b9050602002810190620009ed919062002765565b620009fd90602081019062002839565b600060405162000a0d9062002034565b62000a1e9695949392919062002a98565b604051809103906000f08015801562000a3b573d6000803e3d6000fd5b50600780546001808201835560009283527fa66cc928b5edb82af9bd49922954155ab7b0942694bea4ce44661d9a8736c68890910180546001600160a01b0319166001600160a01b0385161790559192508086868681811062000aa25762000aa26200274f565b905060200281019062000ab6919062002765565b62000ac690602081019062002278565b6001600160a01b031681526020810191909152604001600090812080549215156101000261ff00199093169290921790915581908086868681811062000b105762000b106200274f565b905060200281019062000b24919062002765565b62000b3490602081019062002278565b6001600160a01b03166001600160a01b0316815260200190815260200160002060000160026101000a8154816001600160a01b0302191690836001600160a01b031602179055507f6caf21665b34d731fa6d137a3fdad339e3765f78a30515ecf0812bebc10723fe814260405162000bae92919062002af7565b60405180910390a1508062000bc381620025c1565b91505062000868565b505050565b336001600160a01b037f0000000000000000000000000000000000000000000000000000000000000000161462000c1c5760405162461bcd60e51b8152600401620004eb906200266d565b600f546001600160a01b03161562000c485760405162461bcd60e51b8152600401620004eb90620026dd565b6003546001600160a01b03161562000c745760405162461bcd60e51b8152600401620004eb9062002b61565b600380546001600160a01b0319166001600160a01b0383161790556040517f4a6f313eb6d61d41bf100625037c6b2236b863e059433630fc9c7aae1712dc939062000cc3908390429062002af7565b60405180910390a150565b60095460ff161562000cf45760405162461bcd60e51b8152600401620004eb9062002540565b6002546008541462000d1a5760405162461bcd60e51b8152600401620004eb9062002bc7565b6009805460ff191660011790556040517f70cff86f2ddf60cc5652d5827ed7849eccc7ad0022687e767a88f2564e967ec99062000d599042906200229d565b60405180910390a1565b6007818154811062000d7457600080fd5b6000918252602090912001546001600160a01b0316905081565b336001600160a01b037f0000000000000000000000000000000000000000000000000000000000000000161462000dd95760405162461bcd60e51b8152600401620004eb906200266d565b600f546001600160a01b03161562000e055760405162461bcd60e51b8152600401620004eb90620026dd565b600380546001600160a01b031981169091556040516001600160a01b03909116907fc1ec6b1119581992547435e21f50ad87c3e65c7cadfac67a4ad27a1a72d3f1d79062000cc3908390429062002af7565b600d818154811062000d7457600080fd5b336001600160a01b037f0000000000000000000000000000000000000000000000000000000000000000161462000eb35760405162461bcd60e51b8152600401620004eb906200266d565b60095460ff161562000ed95760405162461bcd60e51b8152600401620004eb9062002540565b60005b8181101562000bcc5760008084848481811062000efd5762000efd6200274f565b905060200201602081019062000f14919062002278565b6001600160a01b0316815260208101919091526040016000205460ff161562000f515760405162461bcd60e51b8152600401620004eb9062002c40565b6040805160e08101825260018152600060208201819052918101829052606081018290526080810182905260a0810182905260c08101829052908085858581811062000fa15762000fa16200274f565b905060200201602081019062000fb8919062002278565b6001600160a01b0390811682526020808301939093526040918201600020845181549486015193860151606087015160808801511515600160b81b0260ff60b81b19911515600160b01b0260ff60b01b1993871662010000029390931662010000600160b81b03199715156101000261ff00199515159590951661ffff1990991698909817939093179590951695909517949094179290921692909217815560a08301516001918201805460c0909501511515600160a01b026001600160a81b031990951691909316179290921790558383838181106200109d576200109d6200274f565b9050602002016020810190620010b4919062002278565b81546001810183556000928352602083200180546001600160a01b0319166001600160a01b03929092169190911790556002805491620010f483620025c1565b91905055507f88cf711075170bc5a1348a4bfb66d22a6503ea2f0b7f80e6aa9b35c3ef3168398383838181106200112f576200112f6200274f565b905060200201602081019062001146919062002278565b426040516200115792919062002af7565b60405180910390a1806200116b81620025c1565b91505062000edc565b336001600160a01b037f00000000000000000000000000000000000000000000000000000000000000001614620011bf5760405162461bcd60e51b8152600401620004eb906200266d565b60095460ff1615620011e55760405162461bcd60e51b8152600401620004eb9062002540565b60005b8181101562000bcc576000808484848181106200120957620012096200274f565b905060200201602081019062001220919062002278565b6001600160a01b0316815260208101919091526040016000205460ff166200125c5760405162461bcd60e51b8152600401620004eb9062002c9d565b6000808484848181106200127457620012746200274f565b90506020020160208101906200128b919062002278565b6001600160a01b03168152602081019190915260400160002054600160b01b900460ff1615620012cf5760405162461bcd60e51b8152600401620004eb9062002d16565b6000806000858585818110620012e957620012e96200274f565b905060200201602081019062001300919062002278565b6001600160a01b031681526020810191909152604001600020805460ff19169115159190911790556200135e8383838181106200134157620013416200274f565b905060200201602081019062001358919062002278565b62001db8565b60028054906000620013708362002d28565b91905055507fb53f1a8530fa5b93df4b395e4fe5a9ba1b50a935ac91af46e2522e21763ddd14838383818110620013ab57620013ab6200274f565b9050602002016020810190620013c2919062002278565b42604051620013d392919062002af7565b60405180910390a180620013e781620025c1565b915050620011e8565b606060018054806020026020016040519081016040528092919081815260200182805480156200066e576020028201919060005260206000209081546001600160a01b031681526001909101906020018083116200064f575050505050905090565b336001600160a01b037f000000000000000000000000000000000000000000000000000000000000000016146200149d5760405162461bcd60e51b8152600401620004eb906200266d565b60095460ff16620014c25760405162461bcd60e51b8152600401620004eb9062002d97565b600254600e5410620014e85760405162461bcd60e51b8152600401620004eb9062002e00565b6001600160a01b037f00000000000000000000000000000000000000000000000000000000000000001662001524604083016020840162002278565b6001600160a01b0316146200154d5760405162461bcd60e51b8152600401620004eb9062002e5c565b80600a6200155c82826200318d565b90505060005b600d54811015620015fb57600d81815481106200158357620015836200274f565b60009182526020822001546040805163bc3d4d3360e01b815290516001600160a01b039092169263bc3d4d339260048084019382900301818387803b158015620015cc57600080fd5b505af1158015620015e1573d6000803e3d6000fd5b505050508080620015f290620025c1565b91505062001562565b506040517f5a77cfaa00943caf9f8183d49c03c2fbf55097fdafe7f15f96351e14a66f19b79062000cc390600a90429062003217565b60095460ff16620016565760405162461bcd60e51b8152600401620004eb9062002d97565b600254600e54106200167c5760405162461bcd60e51b8152600401620004eb9062002e00565b6001600160a01b0381166000908152602081905260409020805460ff1916600190811782550154600160a01b900460ff1615620016cd5760405162461bcd60e51b8152600401620004eb906200327b565b6001600160a01b0381166000908152602081905260408120600101805460ff60a01b1916600160a01b179055600e8054916200170983620025c1565b9190505550600254600e541415620007c6577f2b42cd39e5c02652cbf02054f931c5d06974ba14b7678efe854cd284f24e69f04260405162000cc391906200229d565b6001818154811062000d7457600080fd5b6060600d8054806020026020016040519081016040528092919081815260200182805480156200066e576020028201919060005260206000209081546001600160a01b031681526001909101906020018083116200064f575050505050905090565b6004805481906200068990620025f5565b336001600160a01b037f000000000000000000000000000000000000000000000000000000000000000016146200181b5760405162461bcd60e51b8152600401620004eb906200266d565b60095460ff1615620018415760405162461bcd60e51b8152600401620004eb9062002540565b6001600160a01b037f0000000000000000000000000000000000000000000000000000000000000000166200187d604083016020840162002278565b6001600160a01b031614620018a65760405162461bcd60e51b8152600401620004eb90620032d7565b806004620018b582826200318d565b90505060005b600754811015620019545760078181548110620018dc57620018dc6200274f565b60009182526020822001546040805163bc3d4d3360e01b815290516001600160a01b039092169263bc3d4d339260048084019382900301818387803b1580156200192557600080fd5b505af11580156200193a573d6000803e3d6000fd5b5050505080806200194b90620025c1565b915050620018bb565b506040517fa6f4768cfd6b5ccf02bf592a15d59ca4f9710bb353eb7f58fc0c6833bb0022fd9062000cc390600490429062003217565b336001600160a01b037f00000000000000000000000000000000000000000000000000000000000000001614620019d55760405162461bcd60e51b8152600401620004eb906200266d565b60095460ff16620019fa5760405162461bcd60e51b8152600401620004eb9062002d97565b600254600e541062001a205760405162461bcd60e51b8152600401620004eb9062002e00565b600b546001600160a01b031662001a4b5760405162461bcd60e51b8152600401620004eb9062003337565b60005b8181101562000bcc5760008084848481811062001a6f5762001a6f6200274f565b905060200281019062001a83919062002765565b62001a9390602081019062002278565b6001600160a01b0316815260208101919091526040016000205460ff1662001acf5760405162461bcd60e51b8152600401620004eb90620027d0565b60008084848481811062001ae75762001ae76200274f565b905060200281019062001afb919062002765565b62001b0b90602081019062002278565b6001600160a01b03168152602081019190915260400160002054600160b81b900460ff161562001b4f5760405162461bcd60e51b8152600401620004eb906200338e565b6000307f000000000000000000000000000000000000000000000000000000000000000085858581811062001b885762001b886200274f565b905060200281019062001b9c919062002765565b62001bac90602081019062002278565b86868681811062001bc15762001bc16200274f565b905060200281019062001bd5919062002765565b62001be590602081019062002839565b600160405162001bf59062002034565b62001c069695949392919062002a98565b604051809103906000f08015801562001c23573d6000803e3d6000fd5b50600d80546001808201835560009283527fd7b6990105719101dabeb77144f2a3385c8033acd3af97e9423a695e81ad1eb590910180546001600160a01b0319166001600160a01b0385161790559192508086868681811062001c8a5762001c8a6200274f565b905060200281019062001c9e919062002765565b62001cae90602081019062002278565b6001600160a01b03168152602081019190915260400160009081208054921515600160b81b0260ff60b81b199093169290921790915581908086868681811062001cfc5762001cfc6200274f565b905060200281019062001d10919062002765565b62001d2090602081019062002278565b6001600160a01b03166001600160a01b0316815260200190815260200160002060010160006101000a8154816001600160a01b0302191690836001600160a01b031602179055507fc66ebdd4e588d6a2f8765ba102915c8f478d547b77e8ce606de2db44147d77b9814260405162001d9a92919062002af7565b60405180910390a1508062001daf81620025c1565b91505062001a4e565b60005b60015481101562001ed457816001600160a01b03166001828154811062001de65762001de66200274f565b6000918252602090912001546001600160a01b0316141562001ebf576001805462001e13908290620033a0565b8154811062001e265762001e266200274f565b600091825260209091200154600180546001600160a01b03909216918390811062001e555762001e556200274f565b9060005260206000200160006101000a8154816001600160a01b0302191690836001600160a01b03160217905550600180548062001e975762001e97620033ba565b600082815260209020810160001990810180546001600160a01b031916905501905562001ed4565b8062001ecb81620025c1565b91505062001dbb565b506001600160a01b038116600090815260208190526040902054610100900460ff1615620007c65760005b60075481101562000610576001600160a01b03808316600090815260208190526040902054600780546201000090920490921691908390811062001f475762001f476200274f565b6000918252602090912001546001600160a01b031614156200201f576007805462001f7590600190620033a0565b8154811062001f885762001f886200274f565b600091825260209091200154600780546001600160a01b03909216918390811062001fb75762001fb76200274f565b9060005260206000200160006101000a8154816001600160a01b0302191690836001600160a01b03160217905550600780548062001ff95762001ff9620033ba565b600082815260209020810160001990810180546001600160a01b03191690550190555050565b806200202b81620025c1565b91505062001eff565b6137f780620033d183390190565b6001600160a01b031690565b60006200205b8262002042565b92915050565b6200206c816200204e565b82525050565b602081016200205b828462002061565b6200208d816200204e565b8114620007c657600080fd5b80356200205b8162002082565b8015156200208d565b80356200205b81620020a6565b60008060408385031215620020d457620020d4600080fd5b6000620020e2858562002099565b9250506020620020f585828601620020af565b9150509250929050565b60006200205b62002117620021148462002042565b90565b62002042565b60006200205b82620020ff565b60006200205b826200211d565b6200206c816200212a565b600062002150838362002137565b505060200190565b600062002163825190565b80845260209384019383018060005b838110156200219b57815162002189888262002142565b97506020830192505060010162002172565b509495945050505050565b60208082528101620021b9818462002158565b9392505050565b60005b83811015620021dd578181015183820152602001620021c3565b83811115620021ed576000848401525b50505050565b601f01601f191690565b600062002208825190565b80845260208401935062002221818560208601620021c0565b6200222c81620021f3565b9093019392505050565b806200206c565b60608082528101620022508186620021fd565b905062002261602083018562002061565b62002270604083018462002236565b949350505050565b6000602082840312156200228f576200228f600080fd5b600062002270848462002099565b602081016200205b828462002236565b60008083601f840112620022c457620022c4600080fd5b5081356001600160401b03811115620022e057620022e0600080fd5b602083019150836020820283011115620022fd57620022fd600080fd5b9250929050565b600080602083850312156200231c576200231c600080fd5b82356001600160401b03811115620023375762002337600080fd5b6200234585828601620022ad565b92509250509250929050565b602081016200205b828462002137565b806200208d565b80356200205b8162002361565b6000602082840312156200238c576200238c600080fd5b600062002270848462002368565b8015156200206c565b60e08101620023b3828a6200239a565b620023c260208301896200239a565b620023d1604083018862002061565b620023e060608301876200239a565b620023ef60808301866200239a565b620023fe60a083018562002061565b6200240d60c08301846200239a565b98975050505050505050565b602081016200205b82846200239a565b600062002150838362002061565b600062002442825190565b80845260209384019383018060005b838110156200219b57815162002468888262002429565b97506020830192505060010162002451565b60208082528101620021b9818462002437565b600060608284031215620024a457620024a4600080fd5b50919050565b600060208284031215620024c157620024c1600080fd5b81356001600160401b03811115620024dc57620024dc600080fd5b62002270848285016200248d565b6041815260006020820160008051602062006be883398151915281527f667465722044505020706861736520686173206265656e2066696e616c697a656020820152601960fa1b604082015291505b5060600190565b602080825281016200205b81620024ea565b5060400190565b6033815260006020820160008051602062006c4883398151915281527206561647920617373657373656420612044505606c1b6020820152915062002552565b602080825281016200205b8162002559565b634e487b7160e01b600052601160045260246000fd5b6000600019821415620025d857620025d8620025ab565b5060010190565b634e487b7160e01b600052602260045260246000fd5b6002810460018216806200260a57607f821691505b60208210811415620024a457620024a4620025df565b602f81526000602082017f4f6e6c79207468652070726f6a656374206d616e616765722063616e2063616c81526e36103a3434b990333ab731ba34b7b760891b6020820152915062002552565b602080825281016200205b8162002620565b604b815260006020820160008051602062006be883398151915281527f66746572206275696c64696e67207065726d697420636f6e747261637420686160208201526a1cc81899595b881cd95b9d60aa1b6040820152915062002539565b602080825281016200205b816200267f565b603081526000602082017f445050206d75737420626520616464656420696e206f7264657220746f20636181526f3636103a3434b990333ab731ba34b7b760811b6020820152915062002552565b602080825281016200205b81620026ef565b634e487b7160e01b600052603260045260246000fd5b60008235603e1936849003018112620027815762002781600080fd5b9190910192915050565b6038815260006020820160008051602062006c288339815191528152771cc81d1bc8195e1cda5cdd081bdb8818481c1c9bda9958dd60421b6020820152915062002552565b602080825281016200205b816200278b565b6038815260006020820160008051602062006c2883398151915281527707320616c72656164792072656365697665642061204450560441b6020820152915062002552565b602080825281016200205b81620027e2565b6000808335601e1936859003018112620028565762002856600080fd5b8084019250823591506001600160401b03821115620028785762002878600080fd5b60209283019282023603831315620028935762002893600080fd5b509250929050565b6000808335601e1936859003018112620028b857620028b8600080fd5b8381016020810193503591506001600160401b03821115620028dd57620028dd600080fd5b36829003841315620028935762002893600080fd5b82818337506000910152565b818352600060208401935062002916838584620028f2565b6200222c83620021f3565b6000620021b9602084018462002099565b6000620021b9602084018462002368565b6000606083016200295583806200289b565b858303865262002967838284620028fe565b925050506200297a602084018462002921565b62002989602086018262002061565b5062002999604084018462002932565b620029a8604086018262002236565b509392505050565b6000620021b9838362002943565b60008235605e1936849003018112620029da57620029da600080fd5b90910192915050565b818352600060208401935083602084028101838060005b8781101562002a3957848403895262002a148284620029be565b62002a208582620029b0565b94506020830160209a909a0199925050600101620029fa565b5091979650505050505050565b634e487b7160e01b600052602160045260246000fd5b60028110620007c657620007c662002a46565b8062002a7b8162002a5c565b919050565b60006200205b8262002a6f565b6200206c8162002a80565b60a0810162002aa8828962002061565b62002ab7602083018862002061565b62002ac6604083018762002061565b818103606083015262002adb818587620029e3565b905062002aec608083018462002a8d565b979650505050505050565b6040810162002b07828562002061565b620021b9602083018462002236565b602d81526000602082017f41646d696e69737472617469766520617574686f726974792068617320616c7281526c1958591e481899595b881cd95d609a1b6020820152915062002552565b602080825281016200205b8162002b16565b6041815260006020820160008051602062006bc883398151915281527f65666f726520616c6c20445050732068617665206265656e20617373657373656020820152601960fa1b6040820152915062002539565b602080825281016200205b8162002b73565b604381526000602082017f596f752063616e277420616464206173736573736d656e742070726f7669646581527f72207468617420616c72656164792065787369737473206f6e20612070726f6a6020820152621958dd60ea1b6040820152915062002539565b602080825281016200205b8162002bd9565b602d81526000602082017f4173736573736d656e742070726f76696465722068617320746f20657869737481526c081bdb8818481c1c9bda9958dd609a1b6020820152915062002552565b602080825281016200205b8162002c52565b604381526000602082017f596f752063616e27742072656d6f7665206173736573736d656e7450726f766981527f64657220746861742068617320616c726561647920617373657373656420612060208201526204450560ec1b6040820152915062002539565b602080825281016200205b8162002caf565b60008162002d3a5762002d3a620025ab565b506000190190565b6042815260006020820160008051602062006bc883398151915281527f65666f72652044505020706861736520686173206265656e2066696e616c697a602082015261195960f21b6040820152915062002539565b602080825281016200205b8162002d42565b6044815260006020820160008051602062006be883398151915281527f6674657220616c6c2074686520444744732068617665206265656e20617373656020820152631cdcd95960e21b6040820152915062002539565b602080825281016200205b8162002da9565b603e81526000602082017f50726f7669646564204447442773206f776e6572206d75737420626520612070815260008051602062006c088339815191526020820152915062002552565b602080825281016200205b8162002e12565b6000808335601e193685900301811262002e8b5762002e8b600080fd5b8084019250823591506001600160401b0382111562002ead5762002ead600080fd5b602083019250600182023603831315620028935762002893600080fd5b634e487b7160e01b600052604160045260246000fd5b60006200205b620021148381565b62002ef98362002ee0565b81546008840282811b60001990911b908116901990911617825550505050565b600062000bcc81848462002eee565b81811015620006105762002f3e60008262002f19565b60010162002f28565b601f82111562000bcc576000818152602090206020601f8501048101602085101562002f705750805b62002f846020601f86010483018262002f28565b5050505050565b6000196008929092029190911c191690565b600062002fab838362002f8b565b600290930290921792915050565b826001600160401b0381111562002fd45762002fd462002eca565b62002fe08254620025f5565b62002fed82828562002f47565b6000601f8311600181146200302057600084156200300b5750858201355b62003017858262002f9d565b8655506200307f565b600085815260208120601f198616915b8281101562003052578885013582556020948501946001909201910162003030565b868310156200307257848901356200306e601f89168262002f8b565b8355505b6001600288020188555050505b50505050505050565b62000bcc83838362002fb9565b600081356200205b8162002082565b60006001600160a01b03835b81169019929092169190911792915050565b620030cd826200212a565b620030da818354620030a4565b8255505050565b600081356200205b8162002361565b600060001983620030b0565b6000816200205b565b6200311082620030fc565b620030da6200311f82620030fc565b8354620030f0565b808262003135818062002e6e565b6200314281838662003088565b505050506001810160208301806200315a8162003095565b9050620031688184620030c2565b5050506002810160408301806200317f81620030e1565b905062002f84818462003105565b62000610828262003127565b60008154620031a881620025f5565b808552602085019450600182168015620031cb5760018114620031de576200320e565b60ff19831686526020860193506200320e565b60008581526020902060005b838110156200320857815488820152600190910190602001620031ea565b87019450505b50505092915050565b604080825281016200322a818562003199565b9050620021b9602083018462002236565b6033815260006020820160008051602062006c488339815191528152721958591e48185cdcd95cdcd9590818481111d1606a1b6020820152915062002552565b602080825281016200205b816200323b565b603e81526000602082017f50726f7669646564204450502773206f776e6572206d75737420626520612070815260008051602062006c088339815191526020820152915062002552565b602080825281016200205b816200328d565b603081526000602082017f444744206d75737420626520616464656420696e206f7264657220746f20636181526f3636103a3434b990333ab731ba34b7b760811b6020820152915062002552565b602080825281016200205b81620032e9565b6038815260006020820160008051602062006c288339815191528152771cc8185b1c9958591e481c9958d95a5d99590818481111d160421b6020820152915062002552565b602080825281016200205b8162003349565b600082821015620033b557620033b5620025ab565b500390565b634e487b7160e01b600052603160045260246000fdfe60c06040523480156200001157600080fd5b50604051620037f7380380620037f7833981016040819052620000349162000539565b600080546001600160a01b0319166001600160a01b0387811691909117909155848116608052831660a0526002805482919060ff191660018381811115620000805762000080620005d9565b02179055504260038190556200009a906213c68062000605565b60045560005b825181101562000144576001838281518110620000c157620000c162000620565b602090810291909101810151825460018101845560009384529282902081518051929460030290910192620000fc9284929091019062000189565b5060208201516001820180546001600160a01b0319166001600160a01b03909216919091179055604090910151600290910155806200013b8162000636565b915050620000a0565b507f0a42774af8172f1bfdb5883c1631e4f3ac73489e62bed248dc4e3b718cafe9b74260405162000176919062000654565b60405180910390a15050505050620006a8565b828054620001979062000677565b90600052602060002090601f016020900481019282620001bb576000855562000206565b82601f10620001d657805160ff191683800117855562000206565b8280016001018555821562000206579182015b8281111562000206578251825591602001919060010190620001e9565b506200021492915062000218565b5090565b5b8082111562000214576000815560010162000219565b60006001600160a01b0382165b92915050565b6200024d816200022f565b81146200025957600080fd5b50565b80516200023c8162000242565b601f01601f191690565b634e487b7160e01b600052604160045260246000fd5b620002948262000269565b81018181106001600160401b0382111715620002b457620002b462000273565b6040525050565b6000620002c760405190565b9050620002d5828262000289565b919050565b60006001600160401b03821115620002f657620002f662000273565b5060209081020190565b60006001600160401b038211156200031c576200031c62000273565b620003278262000269565b60200192915050565b60005b838110156200034d57818101518382015260200162000333565b838111156200035d576000848401525b50505050565b60006200037a620003748462000300565b620002bb565b905082815260208101848484011115620003975762000397600080fd5b620003a484828562000330565b509392505050565b600082601f830112620003c257620003c2600080fd5b8151620003d484826020860162000363565b949350505050565b806200024d565b80516200023c81620003dc565b600060608284031215620004075762000407600080fd5b620004136060620002bb565b82519091506001600160401b03811115620004315762000431600080fd5b6200043f84828501620003ac565b825250602062000452848483016200025c565b60208301525060406200046884828501620003e3565b60408301525092915050565b6000620004856200037484620002da565b83815290506020808201908402830185811115620004a657620004a6600080fd5b835b81811015620004ec5780516001600160401b03811115620004cc57620004cc600080fd5b808601620004db8982620003f0565b8552505060209283019201620004a8565b5050509392505050565b600082601f8301126200050c576200050c600080fd5b8151620003d484826020860162000474565b600281106200025957600080fd5b80516200023c816200051e565b600080600080600060a08688031215620005565762000556600080fd5b60006200056488886200025c565b955050602062000577888289016200025c565b94505060406200058a888289016200025c565b93505060608601516001600160401b03811115620005ab57620005ab600080fd5b620005b988828901620004f6565b9250506080620005cc888289016200052c565b9150509295509295909350565b634e487b7160e01b600052602160045260246000fd5b634e487b7160e01b600052601160045260246000fd5b600082198211156200061b576200061b620005ef565b500190565b634e487b7160e01b600052603260045260246000fd5b60006000198214156200064d576200064d620005ef565b5060010190565b818152602081016200023c565b634e487b7160e01b600052602260045260246000fd5b6002810460018216806200068c57607f821691505b60208210811415620006a257620006a262000661565b50919050565b60805160a0516130b96200073e600039600081816102bf01528181610820015281816108890152818161095401528181610a3001528181610a9c01528181611225015281816117ac015281816118160152818161189d0152818161199c01528181611a230152611adf01526000818161015e0152818161038f01528181610cb50152818161159f015261160c01526130b96000f3fe608060405234801561001057600080fd5b50600436106101545760003560e01c8063029eb76e1461015957806304afdded146101965780630c2a88bb146101a75780630d6a2033146101bc5780631e138f15146101de5780631f741c7a146101e757806326bbb2d1146101f05780632d91cca214610203578063301a370d1461020b578063304e2a061461021e57806333b4f36e146102345780634c3cf1c814610247578063646d72001461025c57806375999f2d1461027c5780638c935a6714610296578063970169771461029f5780639f623cf4146102a7578063ab2aba14146102ba578063ad755dc5146102e1578063bc3d4d33146102f4578063c2b6b58c146102fc578063c682360714610316578063cf1977d01461031e578063e655805b14610331578063eaabf66c14610339578063f0ea7e941461034b578063f60ca60d1461035e578063fc07b0a614610371575b600080fd5b6101807f000000000000000000000000000000000000000000000000000000000000000081565b60405161018d9190611d00565b60405180910390f35b600a545b60405161018d9190611d14565b6101ba6101b5366004611d73565b610384565b005b6101cf6101ca366004611dd2565b610749565b60405161018d93929190611e69565b61019a60045481565b61019a60035481565b6101ba6101fe366004611eb1565b610815565b6101ba610949565b6101ba610219366004611d73565b610a25565b610226610be2565b60405161018d929190611f33565b6101ba610242366004611f66565b610caa565b61024f610d83565b60405161018d9190612000565b61026f61026a36600461205b565b610e97565b60405161018d9190612096565b6002546102899060ff1681565b60405161018d91906120f0565b61019a60055481565b61024f6110b3565b61026f6102b536600461205b565b6111c1565b6101807f000000000000000000000000000000000000000000000000000000000000000081565b6101ba6102ef366004611d73565b61121a565b6101ba611539565b600b546103099060ff1681565b60405161018d9190612106565b60015461019a565b6101ba61032c366004611d73565b611594565b610309611752565b60025461030990610100900460ff1681565b6101ba610359366004612114565b6117a1565b600054610180906001600160a01b031681565b6101ba61037f366004611dd2565b611ad4565b336001600160a01b037f000000000000000000000000000000000000000000000000000000000000000016146103d55760405162461bcd60e51b81526004016103cc906121b9565b60405180910390fd5b600b5460ff16156103f85760405162461bcd60e51b81526004016103cc90612221565b60005b818110156107445760005b6001548110156107315761052084848481811061042557610425612231565b90506020028101906104379190612247565b8080601f0160208091040260200160405190810160405280939291908181526020018383808284376000920191909152505060018054909250859150811061048157610481612231565b9060005260206000209060030201600001805461049d906122bb565b80601f01602080910402602001604051908101604052809291908181526020018280546104c9906122bb565b80156105165780601f106104eb57610100808354040283529160200191610516565b820191906000526020600020905b8154815290600101906020018083116104f957829003601f168201915b5050505050611bc7565b1561071f5760006001828154811061053a5761053a612231565b90600052602060002090600302016000018054610556906122bb565b80601f0160208091040260200160405190810160405280929190818152602001828054610582906122bb565b80156105cf5780601f106105a4576101008083540402835291602001916105cf565b820191906000526020600020905b8154815290600101906020018083116105b257829003601f168201915b505050505090506000600183815481106105eb576105eb612231565b9060005260206000209060030201600201549050600180808054905061061191906122f8565b8154811061062157610621612231565b90600052602060002090600302016001848154811061064257610642612231565b90600052602060002090600302016000820181600001908054610664906122bb565b61066f929190611bdd565b5060018281015482820180546001600160a01b0319166001600160a01b0390921691909117905560029283015492909101919091558054806106b3576106b361230f565b600082815260208120600019909201916003830201906106d38282611c68565b506001810180546001600160a01b031916905560006002909101559055604051600080516020613064833981519152906107109084904290612325565b60405180910390a15050610731565b8061072981612345565b915050610406565b508061073c81612345565b9150506103fb565b505050565b6001818154811061075957600080fd5b906000526020600020906003020160009150905080600001805461077c906122bb565b80601f01602080910402602001604051908101604052809291908181526020018280546107a8906122bb565b80156107f55780601f106107ca576101008083540402835291602001916107f5565b820191906000526020600020905b8154815290600101906020018083116107d857829003601f168201915b50505050600183015460029093015491926001600160a01b031691905083565b336001600160a01b037f0000000000000000000000000000000000000000000000000000000000000000161461085d5760405162461bcd60e51b81526004016103cc9061239e565b600b5460ff1661087f5760405162461bcd60e51b81526004016103cc906123f6565b6001600160a01b037f0000000000000000000000000000000000000000000000000000000000000000166108b9604083016020840161241a565b6001600160a01b0316146108df5760405162461bcd60e51b81526004016103cc9061248d565b8060076108ec828261277d565b506108f990508180612247565b6040516109079291906127a6565b60405180910390207fbd645c38518d9dbd0ff7c276fb1980290586bfdabe71a977a378a9a38c3886354260405161093e9190611d14565b60405180910390a250565b336001600160a01b037f000000000000000000000000000000000000000000000000000000000000000016146109915760405162461bcd60e51b81526004016103cc9061239e565b600b5460ff16156109b45760405162461bcd60e51b81526004016103cc90612221565b600254610100900460ff16156109dc5760405162461bcd60e51b81526004016103cc90612805565b6002805461ff0019166101001790556040517f30a645864802fd37e5309659c8158196beab10384e11a79759958e918f57cd0990610a1b904290611d14565b60405180910390a1565b336001600160a01b037f00000000000000000000000000000000000000000000000000000000000000001614610a6d5760405162461bcd60e51b81526004016103cc9061239e565b600b5460ff16610a8f5760405162461bcd60e51b81526004016103cc906123f6565b60005b81811015610744577f00000000000000000000000000000000000000000000000000000000000000006001600160a01b0316838383818110610ad657610ad6612231565b9050602002810190610ae89190612815565b610af990604081019060200161241a565b6001600160a01b031614610b1f5760405162461bcd60e51b81526004016103cc9061287f565b600a838383818110610b3357610b33612231565b9050602002810190610b459190612815565b815460018101835560009283526020909220909160030201610b67828261277d565b50507fe647898d33c06a0cd3c952bd040a0228849eb960d381b055e7c66dd2f136f142838383818110610b9c57610b9c612231565b9050602002810190610bae9190612815565b610bb89080612247565b42604051610bc8939291906128ae565b60405180910390a180610bda81612345565b915050610a92565b6006805460408051606081019091526007805492939282908290610c05906122bb565b80601f0160208091040260200160405190810160405280929190818152602001828054610c31906122bb565b8015610c7e5780601f10610c5357610100808354040283529160200191610c7e565b820191906000526020600020905b815481529060010190602001808311610c6157829003601f168201915b505050918352505060018201546001600160a01b03166020820152600290910154604090910152905082565b336001600160a01b037f00000000000000000000000000000000000000000000000000000000000000001614610cf25760405162461bcd60e51b81526004016103cc906121b9565b600b5460ff1615610d155760405162461bcd60e51b81526004016103cc90612221565b600554610d345760405162461bcd60e51b81526004016103cc90612915565b8015610d41576005546004555b60006005556040517fedb2afa2cb6908ad551e4813020dfbde0ceec29862ad2bbdcad05b776f69f68490610d789083904290612925565b60405180910390a150565b60606001805480602002602001604051908101604052809291908181526020016000905b82821015610e8e5783829060005260206000209060030201604051806060016040529081600082018054610dda906122bb565b80601f0160208091040260200160405190810160405280929190818152602001828054610e06906122bb565b8015610e535780601f10610e2857610100808354040283529160200191610e53565b820191906000526020600020905b815481529060010190602001808311610e3657829003601f168201915b50505091835250506001828101546001600160a01b031660208084019190915260029093015460409092019190915291835292019101610da7565b50505050905090565b610e9f611ca5565b60005b60015481101561109457610f9860018281548110610ec257610ec2612231565b90600052602060002090600302016000018054610ede906122bb565b80601f0160208091040260200160405190810160405280929190818152602001828054610f0a906122bb565b8015610f575780601f10610f2c57610100808354040283529160200191610f57565b820191906000526020600020905b815481529060010190602001808311610f3a57829003601f168201915b505050505085858080601f016020809104026020016040519081016040528093929190818152602001838380828437600092019190915250611bc792505050565b156110825760018181548110610fb057610fb0612231565b9060005260206000209060030201604051806060016040529081600082018054610fd9906122bb565b80601f0160208091040260200160405190810160405280929190818152602001828054611005906122bb565b80156110525780601f1061102757610100808354040283529160200191611052565b820191906000526020600020905b81548152906001019060200180831161103557829003601f168201915b505050918352505060018201546001600160a01b0316602082015260029091015460409091015291506110ad9050565b8061108c81612345565b915050610ea2565b5060405162461bcd60e51b81526004016103cc90612982565b92915050565b60606006600401805480602002602001604051908101604052809291908181526020016000905b82821015610e8e578382906000526020600020906003020160405180606001604052908160008201805461110d906122bb565b80601f0160208091040260200160405190810160405280929190818152602001828054611139906122bb565b80156111865780601f1061115b57610100808354040283529160200191611186565b820191906000526020600020905b81548152906001019060200180831161116957829003601f168201915b50505091835250506001828101546001600160a01b0316602080840191909152600290930154604090920191909152918352920191016110da565b6111c9611ca5565b60005b600a54811015611094576111ef60066004018281548110610ec257610ec2612231565b1561120857600a805482908110610fb057610fb0612231565b8061121281612345565b9150506111cc565b336001600160a01b037f000000000000000000000000000000000000000000000000000000000000000016146112625760405162461bcd60e51b81526004016103cc9061239e565b600b5460ff166112845760405162461bcd60e51b81526004016103cc906123f6565b60005b818110156107445760005b600a548110156115265761130d8484848181106112b1576112b1612231565b90506020028101906112c39190612247565b8080601f01602080910402602001604051908101604052809392919081815260200183838082843760009201919091525050600a8054909250859150811061048157610481612231565b156115145760006006600401828154811061132a5761132a612231565b90600052602060002090600302016000018054611346906122bb565b80601f0160208091040260200160405190810160405280929190818152602001828054611372906122bb565b80156113bf5780601f10611394576101008083540402835291602001916113bf565b820191906000526020600020905b8154815290600101906020018083116113a257829003601f168201915b505050505090506000600660040183815481106113de576113de612231565b6000918252602090912060026003909202010154600a805491925090611406906001906122f8565b8154811061141657611416612231565b90600052602060002090600302016006600401848154811061143a5761143a612231565b9060005260206000209060030201600082018160000190805461145c906122bb565b611467929190611bdd565b5060018281015490820180546001600160a01b0319166001600160a01b03909216919091179055600291820154910155600a8054806114a8576114a861230f565b600082815260208120600019909201916003830201906114c88282611c68565b506001810180546001600160a01b031916905560006002909101559055604051600080516020613064833981519152906115059084904290612325565b60405180910390a15050611526565b8061151e81612345565b915050611292565b508061153181612345565b915050611287565b6000546001600160a01b031633146115635760405162461bcd60e51b81526004016103cc906129ca565b600254610100900460ff161561158757600454611583906213c6806129da565b6004555b6002805461ff0019169055565b336001600160a01b037f000000000000000000000000000000000000000000000000000000000000000016146115dc5760405162461bcd60e51b81526004016103cc906121b9565b600b5460ff16156115ff5760405162461bcd60e51b81526004016103cc90612221565b60005b81811015610744577f00000000000000000000000000000000000000000000000000000000000000006001600160a01b031683838381811061164657611646612231565b90506020028101906116589190612815565b61166990604081019060200161241a565b6001600160a01b03161461168f5760405162461bcd60e51b81526004016103cc90612a3b565b60018383838181106116a3576116a3612231565b90506020028101906116b59190612815565b8154600181018355600092835260209092209091600302016116d7828261277d565b50507f701ba5028eb50d43b96f8c5fe59070c7f7eaca9966c214c10f9971c503d9838483838381811061170c5761170c612231565b905060200281019061171e9190612815565b6117289080612247565b42604051611738939291906128ae565b60405180910390a18061174a81612345565b915050611602565b600060045442111561179b577f149f4e6f33dd9d8e01e7de869eb261f2e7aa57033be8e900565d2a76df6ab8b24260405161178d9190611d14565b60405180910390a150600190565b50600090565b336001600160a01b037f000000000000000000000000000000000000000000000000000000000000000016146117e95760405162461bcd60e51b81526004016103cc9061239e565b600b5460ff161561180c5760405162461bcd60e51b81526004016103cc90612221565b6001600160a01b037f0000000000000000000000000000000000000000000000000000000000000000166118436020840184612815565b61185490604081019060200161241a565b6001600160a01b03161461187a5760405162461bcd60e51b81526004016103cc90612aa7565b60005b61188a6040840184612ab7565b9050811015611935576001600160a01b037f0000000000000000000000000000000000000000000000000000000000000000166118ca6040850185612ab7565b838181106118da576118da612231565b90506020028101906118ec9190612815565b6118fd90604081019060200161241a565b6001600160a01b0316146119235760405162461bcd60e51b81526004016103cc90612b61565b8061192d81612345565b91505061187d565b508160066119438282612f01565b505042600655600b805460ff19166001179055600060025460ff16600181111561196f5761196f6120a7565b146119fb5760005460405163cc5b255b60e01b81526001600160a01b039091169063cc5b255b906119c4907f000000000000000000000000000000000000000000000000000000000000000090600401611d00565b600060405180830381600087803b1580156119de57600080fd5b505af11580156119f2573d6000803e3d6000fd5b50505050611a80565b600054604051630436e27b60e21b81526001600160a01b03909116906310db89ec90611a4d907f0000000000000000000000000000000000000000000000000000000000000000908590600401612f0b565b600060405180830381600087803b158015611a6757600080fd5b505af1158015611a7b573d6000803e3d6000fd5b505050505b7f0ca29d4db1abbb1a72b6a95850391d05b6cefeb784a5e82d03cdcf5d0f58ebc4611aae6020840184612815565b611ab89080612247565b42604051611ac8939291906128ae565b60405180910390a15050565b336001600160a01b037f00000000000000000000000000000000000000000000000000000000000000001614611b1c5760405162461bcd60e51b81526004016103cc9061239e565b600b5460ff1615611b3f5760405162461bcd60e51b81526004016103cc90612221565b600454811015611b615760405162461bcd60e51b81526004016103cc90612f8f565b600354611b7190624f1a006129da565b811115611b905760405162461bcd60e51b81526004016103cc90613005565b60058190556040517f9dffe71b2f41db9fb2e51c496974d7da184e8691b61780ae7801b6cb4757799390610d789083904290613015565b8051602091820120825192909101919091201490565b828054611be9906122bb565b90600052602060002090601f016020900481019282611c0b5760008555611c58565b82601f10611c1c5780548555611c58565b82800160010185558215611c5857600052602060002091601f016020900482015b82811115611c58578254825591600101919060010190611c3d565b50611c64929150611cc5565b5090565b508054611c74906122bb565b6000825580601f10611c84575050565b601f016020900490600052602060002090810190611ca29190611cc5565b50565b604080516060808201835281526000602082018190529181019190915290565b5b80821115611c645760008155600101611cc6565b6001600160a01b031690565b60006110ad82611cda565b611cfa81611ce6565b82525050565b602081016110ad8284611cf1565b80611cfa565b602081016110ad8284611d0e565b60008083601f840112611d3757611d37600080fd5b5081356001600160401b03811115611d5157611d51600080fd5b602083019150836020820283011115611d6c57611d6c600080fd5b9250929050565b60008060208385031215611d8957611d89600080fd5b82356001600160401b03811115611da257611da2600080fd5b611dae85828601611d22565b92509250509250929050565b805b8114611ca257600080fd5b80356110ad81611dba565b600060208284031215611de757611de7600080fd5b6000611df38484611dc7565b949350505050565b60005b83811015611e16578181015183820152602001611dfe565b83811115611e25576000848401525b50505050565b601f01601f191690565b6000611e3f825190565b808452602084019350611e56818560208601611dfb565b611e5f81611e2b565b9093019392505050565b60608082528101611e7a8186611e35565b9050611e896020830185611cf1565b611df36040830184611d0e565b600060608284031215611eab57611eab600080fd5b50919050565b600060208284031215611ec657611ec6600080fd5b81356001600160401b03811115611edf57611edf600080fd5b611df384828501611e96565b8051606080845260009190840190611f038282611e35565b9150506020830151611f186020860182611cf1565b506040830151611f2b6040860182611d0e565b509392505050565b60408101611f418285611d0e565b8181036020830152611df38184611eeb565b801515611dbc565b80356110ad81611f53565b600060208284031215611f7b57611f7b600080fd5b6000611df38484611f5b565b6000611f938383611eeb565b9392505050565b6000611fa4825190565b80845260208401935083602082028501611fbe8560200190565b8060005b85811015611ff35784840389528151611fdb8582611f87565b94506020830160209a909a0199925050600101611fc2565b5091979650505050505050565b60208082528101611f938184611f9a565b60008083601f84011261202657612026600080fd5b5081356001600160401b0381111561204057612040600080fd5b602083019150836001820283011115611d6c57611d6c600080fd5b6000806020838503121561207157612071600080fd5b82356001600160401b0381111561208a5761208a600080fd5b611dae85828601612011565b60208082528101611f938184611eeb565b634e487b7160e01b600052602160045260246000fd5b60028110611ca257611ca26120a7565b806120d7816120bd565b919050565b60006110ad826120cd565b611cfa816120dc565b602081016110ad82846120e7565b801515611cfa565b602081016110ad82846120fe565b6000806040838503121561212a5761212a600080fd5b82356001600160401b0381111561214357612143600080fd5b61214f85828601611e96565b925050602061216085828601611f5b565b9150509250929050565b602f81526000602082017f4f6e6c79207468652070726f6a656374206d616e616765722063616e2063616c81526e36103a3434b990333ab731ba34b7b760891b602082015291505b5060400190565b602080825281016110ad8161216a565b6044815260006020820160008051602061304483398151915281527f207768656e206173736573736d656e74206861736e27742066696e7369686564602082015263081e595d60e21b604082015291505b5060600190565b602080825281016110ad816121c9565b634e487b7160e01b600052603260045260246000fd5b6000808335601e193685900301811261226257612262600080fd5b8084019250823591506001600160401b0382111561228257612282600080fd5b60208301925060018202360383131561229d5761229d600080fd5b509250929050565b634e487b7160e01b600052602260045260246000fd5b6002810460018216806122cf57607f821691505b60208210811415611eab57611eab6122a5565b634e487b7160e01b600052601160045260246000fd5b60008282101561230a5761230a6122e2565b500390565b634e487b7160e01b600052603160045260246000fd5b604080825281016123368185611e35565b9050611f936020830184611d0e565b6000600019821415612359576123596122e2565b5060010190565b603381526000602082016000805160206130248339815191528152721031b0b636103a3434b990333ab731ba34b7b760691b602082015291506121b2565b602080825281016110ad81612360565b603d815260006020820160008051602061304483398151915281527f207768656e206173736573736d656e74206861732066696e7369686564000000602082015291506121b2565b602080825281016110ad816123ae565b611dbc81611ce6565b80356110ad81612406565b60006020828403121561242f5761242f600080fd5b6000611df3848461240f565b603581526000602082017f4f6e6c79207468652070726f6a656374206d616e616765722063616e20757064815274185d19481d1a19481b585a5b88191bd8dd5b595b9d605a1b602082015291506121b2565b602080825281016110ad8161243b565b634e487b7160e01b600052600060045260246000fd5b634e487b7160e01b600052604160045260246000fd5b60009081526020902090565b60006110ad6124e18381565b90565b6124ed836124d5565b61250b815b83546008860291821b60001990921b9182169119161790565b825550505050565b60006107448184846124e4565b8181101561253b57612533600082612513565b600101612520565b5050565b601f82111561074457612551816124c9565b6020601f850104810160208510156125665750805b6125786020601f860104830182612520565b5050505050565b6000196008929092029190911c191690565b600061259d838361257f565b600290930290921792915050565b826001600160401b038111156125c3576125c36124b3565b6125cd82546122bb565b6125d882828561253f565b6000601f83116001811461260657600084156125f45750858201355b6125fe8582612591565b865550612661565b601f198416612614866124c9565b60005b828110156126375788850135825560209485019460019092019101612617565b868310156126545784890135612650601f89168261257f565b8355505b6001600288020188555050505b50505050505050565b6107448383836125ab565b600081356110ad81612406565b60006001600160a01b03835b81169019929092169190911792915050565b60006110ad6126b16124e184611cda565b611cda565b60006110ad826126a0565b60006110ad826126b6565b6126d5826126c1565b6126e0818354612682565b8255505050565b600081356110ad81611dba565b60006000198361268e565b6000816110ad565b612710826126ff565b6126e061271c826126ff565b83546126f4565b808261272f8180612247565b61273a81838661266a565b5050505060018101602083018061275081612675565b905061275c81846126cc565b505050600281016040830180612771816126e7565b90506125788184612707565b61253b8282612723565b82818337506000910152565b60006127a0838584612787565b50500190565b6000611df3828486612793565b603581526000602082017f4d61696e20646f63756d656e74207570646174652064656d616e642068617320815274185b1c9958591e481899595b881c9958da595d9959605a1b602082015291506121b2565b602080825281016110ad816127b3565b60008235605e193684900301811261282f5761282f600080fd5b9190910192915050565b603b815260006020820160008051602061302483398151915281527a20616464206173736573736d656e74206174746163686d656e747360281b602082015291506121b2565b602080825281016110ad81612839565b81835260006020840193506128a5838584612787565b611e5f83611e2b565b604080825281016128c081858761288f565b9050611df36020830184611d0e565b602981526000602082017f447565206461746520657874656e73696f6e20686173206e6f74206265656e208152681c995c5d595cdd195960ba1b602082015291506121b2565b602080825281016110ad816128cf565b6040810161293382856120fe565b611f936020830184611d0e565b602581526000602082017f4174746163686d656e7420776974682070726f7669646564204944206e6f7420815264199bdd5b9960da1b602082015291506121b2565b602080825281016110ad81612940565b602d815260006020820160008051602061304483398151915281526c08199c9bdb481c1c9bda9958dd609a1b602082015291506121b2565b602080825281016110ad81612992565b600082198211156129ed576129ed6122e2565b500190565b602c81526000602082017f4f6e6c79207468652070726f6a656374206d616e616765722063616e2061646481526b206174746163686d656e747360a01b602082015291506121b2565b602080825281016110ad816129f2565b604b815260006020820160008051602061302483398151915281527f2070726f7669646520746865206d61696e20646f63756d656e74206f6620616e60208201526a08185cdcd95cdcdb595b9d60aa1b6040820152915061221a565b602080825281016110ad81612a4b565b6000808335601e1936859003018112612ad257612ad2600080fd5b8084019250823591506001600160401b03821115612af257612af2600080fd5b6020928301928202360383131561229d5761229d600080fd5b6045815260006020820160008051602061302483398151915281527f2070726f76696465206174746163686d656e7473206f6620616e2061737365736020820152641cdb595b9d60da1b6040820152915061221a565b602080825281016110ad81612b0b565b612b7a826124d5565b6126e08161271c565b6000816000190483118215151615612b9d57612b9d6122e2565b500290565b806110ad816003612b83565b612bbf600019836020036008021c90565b815416905550565b612bd0816124c9565b612bdb838254612591565b9091556000905550565b602084108015612c3c57601f841160018114612c0c57612c058685612591565b8355612c36565b612c15836124c9565b612c2a6020601f880104820160018301612520565b612c348785612bc7565b505b50612578565b612c45826124c9565b6020601f8701048101601f87168015612c6557612c658160018403612bae565b612c776020601f890104840183612520565b6001886002021785555050505050505050565b600160401b841115612c9e57612c9e6124b3565b602083108015612cdd57602085108015612cbc57612c058685612591565b60ff199093169283612ccd846124c9565b5560018660020201835550612578565b6001856002020182555050505050565b8054612cf8816122bb565b80841115612d0c57612d0c84828486612c8a565b80841015611e2557611e2584828486612be5565b8181101561253b57612d33600082612513565b600101612d20565b611ca2600082612ced565b8115612d5457612d5461249d565b61253b81612d3b565b612d66836126ff565b61250b6124f2826126ff565b6000610744818484612d5d565b612d8a600082612d46565b60006001820155611ca2600060028301612d72565b8115612dad57612dad61249d565b61253b81612d7f565b8181101561253b57612dc9600082612d9f565b600301612db6565b8183101561074457612de282612ba2565b612deb84612ba2565b612df4836124c9565b818101838201612e048183612db6565b5050505050505050565b600160401b821115612e2257612e226124b3565b8054828255610744838284612dd1565b8115612e4057612e4061249d565b6107448382612723565b82612e558183612e0e565b82612e5f836124c9565b6000805b84811015612e0457612e758488612815565b612e80818486612e32565b506020939093019260039290920191600101612e63565b610744838383612e4a565b808280612eae816126e7565b9050612eba8184612b71565b5050506001810160208301612ecf8185612815565b612ed9818461277d565b5050506004810160408301612eee8185612ab7565b612ef9818386612e97565b505050505050565b61253b8282612ea2565b60408101612f198285611cf1565b611f9360208301846120fe565b604681526000602082017f5265717565737465642064756520646174652068617320746f206265206c617481527f657220696e2074686520667574757265207468616e2063757272656e7420647560208201526565206461746560d01b6040820152915061221a565b602080825281016110ad81612f26565b604381526000602082017f5265717565737465642064756520646174652068617320746f20626520736f6f81527f6e6572207468616e2064617465206f66206372656174696f6e202b203630206460208201526261797360e81b6040820152915061221a565b602080825281016110ad81612f9f565b604081016129338285611d0e56fe4f6e6c7920746865206173736573736d656e742070726f76696465722063616e546869732066756e6374696f6e2063616e206f6e6c792062652063616c6c65645013cb14fd8cc8745beb9bbf4d104d7cbab0afe81b0073a58ce6b82e1a2ed9e8a264697066735822122084e3ed07a43301fac0df2396cc57e9ca80272ae2fa8c8cf8b5e11f5d7976b1e964736f6c63430008090033546869732066756e6374696f6e2063616e6e6f742062652063616c6c65642062546869732066756e6374696f6e2063616e6e6f742062652063616c6c65642061726f6a656374206d616e61676572206f6620746869732070726f6a6563740000416464726573736564206173736573736d656e742070726f766964657220686154686973206173736573736d656e742070726f76696465722068617320616c72a2646970667358221220d9fcbd173acb37aad36d576b8f3926ad373d628ab71d85a3a2eec38f8f7556b064736f6c63430008090033",
  "linkReferences": {},
  "deployedLinkReferences": {}
}